{
  "address": "0xda8E5848201D362F4FED3C89bEaFE03a7ca5c6b6",
  "abi": [
    {
      "anonymous": false,
      "inputs": [
        {
          "indexed": false,
          "internalType": "uint256",
          "name": "timestamp",
          "type": "uint256"
        },
        {
          "indexed": false,
          "internalType": "uint256",
          "name": "seigniorage",
          "type": "uint256"
        }
      ],
      "name": "BoardroomFunded",
      "type": "event"
    },
    {
      "anonymous": false,
      "inputs": [
        {
          "indexed": true,
          "internalType": "address",
          "name": "from",
          "type": "address"
        },
        {
          "indexed": false,
          "internalType": "uint256",
          "name": "libraAmount",
          "type": "uint256"
        },
        {
          "indexed": false,
          "internalType": "uint256",
          "name": "bondAmount",
          "type": "uint256"
        }
      ],
      "name": "BoughtBonds",
      "type": "event"
    },
    {
      "anonymous": false,
      "inputs": [
        {
          "indexed": true,
          "internalType": "address",
          "name": "from",
          "type": "address"
        },
        {
          "indexed": false,
          "internalType": "uint256",
          "name": "bondAmount",
          "type": "uint256"
        }
      ],
      "name": "BurnedBonds",
      "type": "event"
    },
    {
      "anonymous": false,
      "inputs": [
        {
          "indexed": false,
          "internalType": "uint256",
          "name": "timestamp",
          "type": "uint256"
        },
        {
          "indexed": false,
          "internalType": "uint256",
          "name": "seigniorage",
          "type": "uint256"
        }
      ],
      "name": "DaoFundFunded",
      "type": "event"
    },
    {
      "anonymous": false,
      "inputs": [
        {
          "indexed": false,
          "internalType": "uint256",
          "name": "timestamp",
          "type": "uint256"
        },
        {
          "indexed": false,
          "internalType": "uint256",
          "name": "seigniorage",
          "type": "uint256"
        }
      ],
      "name": "DevFundFunded",
      "type": "event"
    },
    {
      "anonymous": false,
      "inputs": [
        {
          "indexed": true,
          "internalType": "address",
          "name": "executor",
          "type": "address"
        },
        {
          "indexed": false,
          "internalType": "uint256",
          "name": "at",
          "type": "uint256"
        }
      ],
      "name": "Initialized",
      "type": "event"
    },
    {
      "anonymous": false,
      "inputs": [
        {
          "indexed": false,
          "internalType": "uint256",
          "name": "timestamp",
          "type": "uint256"
        },
        {
          "indexed": false,
          "internalType": "uint256",
          "name": "seigniorage",
          "type": "uint256"
        }
      ],
      "name": "InsuranceFundFunded",
      "type": "event"
    },
    {
      "anonymous": false,
      "inputs": [
        {
          "indexed": true,
          "internalType": "address",
          "name": "from",
          "type": "address"
        },
        {
          "indexed": false,
          "internalType": "uint256",
          "name": "libraAmount",
          "type": "uint256"
        },
        {
          "indexed": false,
          "internalType": "uint256",
          "name": "bondAmount",
          "type": "uint256"
        }
      ],
      "name": "RedeemedBonds",
      "type": "event"
    },
    {
      "anonymous": false,
      "inputs": [
        {
          "indexed": false,
          "internalType": "uint256",
          "name": "timestamp",
          "type": "uint256"
        },
        {
          "indexed": false,
          "internalType": "uint256",
          "name": "seigniorage",
          "type": "uint256"
        }
      ],
      "name": "TreasuryFunded",
      "type": "event"
    },
    {
      "inputs": [],
      "name": "PERIOD",
      "outputs": [
        {
          "internalType": "uint256",
          "name": "",
          "type": "uint256"
        }
      ],
      "stateMutability": "view",
      "type": "function"
    },
    {
      "inputs": [],
      "name": "allocateSeigniorage",
      "outputs": [],
      "stateMutability": "nonpayable",
      "type": "function"
    },
    {
      "inputs": [],
      "name": "boardroom",
      "outputs": [
        {
          "internalType": "address",
          "name": "",
          "type": "address"
        }
      ],
      "stateMutability": "view",
      "type": "function"
    },
    {
      "inputs": [
        {
          "internalType": "uint256",
          "name": "amount",
          "type": "uint256"
        }
      ],
      "name": "boardroomAllocateSeigniorage",
      "outputs": [],
      "stateMutability": "nonpayable",
      "type": "function"
    },
    {
      "inputs": [
        {
          "internalType": "address",
          "name": "_token",
          "type": "address"
        },
        {
          "internalType": "uint256",
          "name": "_amount",
          "type": "uint256"
        },
        {
          "internalType": "address",
          "name": "_to",
          "type": "address"
        }
      ],
      "name": "boardroomGovernanceRecoverUnsupported",
      "outputs": [],
      "stateMutability": "nonpayable",
      "type": "function"
    },
    {
      "inputs": [
        {
          "internalType": "uint256",
          "name": "_withdrawLockupEpochs",
          "type": "uint256"
        },
        {
          "internalType": "uint256",
          "name": "_rewardLockupEpochs",
          "type": "uint256"
        }
      ],
      "name": "boardroomSetLockUp",
      "outputs": [],
      "stateMutability": "nonpayable",
      "type": "function"
    },
    {
      "inputs": [
        {
          "internalType": "address",
          "name": "_operator",
          "type": "address"
        }
      ],
      "name": "boardroomSetOperator",
      "outputs": [],
      "stateMutability": "nonpayable",
      "type": "function"
    },
    {
      "inputs": [],
      "name": "bondDepletionFloorPercent",
      "outputs": [
        {
          "internalType": "uint256",
          "name": "",
          "type": "uint256"
        }
      ],
      "stateMutability": "view",
      "type": "function"
    },
    {
      "inputs": [],
      "name": "bondSupplyExpansionPercent",
      "outputs": [
        {
          "internalType": "uint256",
          "name": "",
          "type": "uint256"
        }
      ],
      "stateMutability": "view",
      "type": "function"
    },
    {
      "inputs": [],
      "name": "bootstrapEpochs",
      "outputs": [
        {
          "internalType": "uint256",
          "name": "",
          "type": "uint256"
        }
      ],
      "stateMutability": "view",
      "type": "function"
    },
    {
      "inputs": [],
      "name": "bootstrapSupplyExpansionPercent",
      "outputs": [
        {
          "internalType": "uint256",
          "name": "",
          "type": "uint256"
        }
      ],
      "stateMutability": "view",
      "type": "function"
    },
    {
      "inputs": [
        {
          "internalType": "uint256",
          "name": "_libraAmount",
          "type": "uint256"
        },
        {
          "internalType": "uint256",
          "name": "targetPrice",
          "type": "uint256"
        }
      ],
      "name": "buyBonds",
      "outputs": [],
      "stateMutability": "nonpayable",
      "type": "function"
    },
    {
      "inputs": [],
      "name": "daoFund",
      "outputs": [
        {
          "internalType": "address",
          "name": "",
          "type": "address"
        }
      ],
      "stateMutability": "view",
      "type": "function"
    },
    {
      "inputs": [],
      "name": "daoFundSharedPercent",
      "outputs": [
        {
          "internalType": "uint256",
          "name": "",
          "type": "uint256"
        }
      ],
      "stateMutability": "view",
      "type": "function"
    },
    {
      "inputs": [],
      "name": "devFund",
      "outputs": [
        {
          "internalType": "address",
          "name": "",
          "type": "address"
        }
      ],
      "stateMutability": "view",
      "type": "function"
    },
    {
      "inputs": [],
      "name": "devFundSharedPercent",
      "outputs": [
        {
          "internalType": "uint256",
          "name": "",
          "type": "uint256"
        }
      ],
      "stateMutability": "view",
      "type": "function"
    },
    {
      "inputs": [],
      "name": "discountPercent",
      "outputs": [
        {
          "internalType": "uint256",
          "name": "",
          "type": "uint256"
        }
      ],
      "stateMutability": "view",
      "type": "function"
    },
    {
      "inputs": [],
      "name": "epoch",
      "outputs": [
        {
          "internalType": "uint256",
          "name": "",
          "type": "uint256"
        }
      ],
      "stateMutability": "view",
      "type": "function"
    },
    {
      "inputs": [],
      "name": "epochSupplyContractionLeft",
      "outputs": [
        {
          "internalType": "uint256",
          "name": "",
          "type": "uint256"
        }
      ],
      "stateMutability": "view",
      "type": "function"
    },
    {
      "inputs": [
        {
          "internalType": "uint256",
          "name": "",
          "type": "uint256"
        }
      ],
      "name": "excludedFromTotalSupply",
      "outputs": [
        {
          "internalType": "address",
          "name": "",
          "type": "address"
        }
      ],
      "stateMutability": "view",
      "type": "function"
    },
    {
      "inputs": [],
      "name": "getBondDiscountRate",
      "outputs": [
        {
          "internalType": "uint256",
          "name": "_rate",
          "type": "uint256"
        }
      ],
      "stateMutability": "view",
      "type": "function"
    },
    {
      "inputs": [],
      "name": "getBondPremiumRate",
      "outputs": [
        {
          "internalType": "uint256",
          "name": "_rate",
          "type": "uint256"
        }
      ],
      "stateMutability": "view",
      "type": "function"
    },
    {
      "inputs": [],
      "name": "getBurnableLibraLeft",
      "outputs": [
        {
          "internalType": "uint256",
          "name": "_burnableLibraLeft",
          "type": "uint256"
        }
      ],
      "stateMutability": "view",
      "type": "function"
    },
    {
      "inputs": [],
      "name": "getLibraCirculatingSupply",
      "outputs": [
        {
          "internalType": "uint256",
          "name": "",
          "type": "uint256"
        }
      ],
      "stateMutability": "view",
      "type": "function"
    },
    {
      "inputs": [],
      "name": "getLibraPrice",
      "outputs": [
        {
          "internalType": "uint256",
          "name": "libraPrice",
          "type": "uint256"
        }
      ],
      "stateMutability": "view",
      "type": "function"
    },
    {
      "inputs": [],
      "name": "getLibraUpdatedPrice",
      "outputs": [
        {
          "internalType": "uint256",
          "name": "_libraPrice",
          "type": "uint256"
        }
      ],
      "stateMutability": "view",
      "type": "function"
    },
    {
      "inputs": [],
      "name": "getRedeemableBonds",
      "outputs": [
        {
          "internalType": "uint256",
          "name": "_redeemableBonds",
          "type": "uint256"
        }
      ],
      "stateMutability": "view",
      "type": "function"
    },
    {
      "inputs": [],
      "name": "getReserve",
      "outputs": [
        {
          "internalType": "uint256",
          "name": "",
          "type": "uint256"
        }
      ],
      "stateMutability": "view",
      "type": "function"
    },
    {
      "inputs": [
        {
          "internalType": "contract IERC20",
          "name": "_token",
          "type": "address"
        },
        {
          "internalType": "uint256",
          "name": "_amount",
          "type": "uint256"
        },
        {
          "internalType": "address",
          "name": "_to",
          "type": "address"
        }
      ],
      "name": "governanceRecoverUnsupported",
      "outputs": [],
      "stateMutability": "nonpayable",
      "type": "function"
    },
    {
      "inputs": [
        {
          "internalType": "address",
          "name": "_libra",
          "type": "address"
        },
        {
          "internalType": "address",
          "name": "_lbond",
          "type": "address"
        },
        {
          "internalType": "address",
          "name": "_lshare",
          "type": "address"
        },
        {
          "internalType": "address",
          "name": "_libraOracle",
          "type": "address"
        },
        {
          "internalType": "address",
          "name": "_boardroom",
          "type": "address"
        },
        {
          "internalType": "address",
          "name": "_genesisPool",
          "type": "address"
        },
        {
          "internalType": "uint256",
          "name": "_startTime",
          "type": "uint256"
        }
      ],
      "name": "initialize",
      "outputs": [],
      "stateMutability": "nonpayable",
      "type": "function"
    },
    {
      "inputs": [],
      "name": "initialized",
      "outputs": [
        {
          "internalType": "bool",
          "name": "",
          "type": "bool"
        }
      ],
      "stateMutability": "view",
      "type": "function"
    },
    {
      "inputs": [],
      "name": "insuranceFund",
      "outputs": [
        {
          "internalType": "address",
          "name": "",
          "type": "address"
        }
      ],
      "stateMutability": "view",
      "type": "function"
    },
    {
      "inputs": [],
      "name": "insuranceFundSharedPercent",
      "outputs": [
        {
          "internalType": "uint256",
          "name": "",
          "type": "uint256"
        }
      ],
      "stateMutability": "view",
      "type": "function"
    },
    {
      "inputs": [],
      "name": "isInitialized",
      "outputs": [
        {
          "internalType": "bool",
          "name": "",
          "type": "bool"
        }
      ],
      "stateMutability": "view",
      "type": "function"
    },
    {
      "inputs": [],
      "name": "lbond",
      "outputs": [
        {
          "internalType": "address",
          "name": "",
          "type": "address"
        }
      ],
      "stateMutability": "view",
      "type": "function"
    },
    {
      "inputs": [],
      "name": "libra",
      "outputs": [
        {
          "internalType": "address",
          "name": "",
          "type": "address"
        }
      ],
      "stateMutability": "view",
      "type": "function"
    },
    {
      "inputs": [],
      "name": "libraOracle",
      "outputs": [
        {
          "internalType": "address",
          "name": "",
          "type": "address"
        }
      ],
      "stateMutability": "view",
      "type": "function"
    },
    {
      "inputs": [],
      "name": "libraPriceCeiling",
      "outputs": [
        {
          "internalType": "uint256",
          "name": "",
          "type": "uint256"
        }
      ],
      "stateMutability": "view",
      "type": "function"
    },
    {
      "inputs": [],
      "name": "libraPriceOne",
      "outputs": [
        {
          "internalType": "uint256",
          "name": "",
          "type": "uint256"
        }
      ],
      "stateMutability": "view",
      "type": "function"
    },
    {
      "inputs": [],
      "name": "lshare",
      "outputs": [
        {
          "internalType": "address",
          "name": "",
          "type": "address"
        }
      ],
      "stateMutability": "view",
      "type": "function"
    },
    {
      "inputs": [],
      "name": "maxDebtRatioPercent",
      "outputs": [
        {
          "internalType": "uint256",
          "name": "",
          "type": "uint256"
        }
      ],
      "stateMutability": "view",
      "type": "function"
    },
    {
      "inputs": [],
      "name": "maxDiscountRate",
      "outputs": [
        {
          "internalType": "uint256",
          "name": "",
          "type": "uint256"
        }
      ],
      "stateMutability": "view",
      "type": "function"
    },
    {
      "inputs": [
        {
          "internalType": "uint256",
          "name": "",
          "type": "uint256"
        }
      ],
      "name": "maxExpansionTiers",
      "outputs": [
        {
          "internalType": "uint256",
          "name": "",
          "type": "uint256"
        }
      ],
      "stateMutability": "view",
      "type": "function"
    },
    {
      "inputs": [],
      "name": "maxPremiumRate",
      "outputs": [
        {
          "internalType": "uint256",
          "name": "",
          "type": "uint256"
        }
      ],
      "stateMutability": "view",
      "type": "function"
    },
    {
      "inputs": [],
      "name": "maxSupplyContractionPercent",
      "outputs": [
        {
          "internalType": "uint256",
          "name": "",
          "type": "uint256"
        }
      ],
      "stateMutability": "view",
      "type": "function"
    },
    {
      "inputs": [],
      "name": "maxSupplyExpansionPercent",
      "outputs": [
        {
          "internalType": "uint256",
          "name": "",
          "type": "uint256"
        }
      ],
      "stateMutability": "view",
      "type": "function"
    },
    {
      "inputs": [],
      "name": "mintingFactorForPayingDebt",
      "outputs": [
        {
          "internalType": "uint256",
          "name": "",
          "type": "uint256"
        }
      ],
      "stateMutability": "view",
      "type": "function"
    },
    {
      "inputs": [],
      "name": "nextEpochPoint",
      "outputs": [
        {
          "internalType": "uint256",
          "name": "",
          "type": "uint256"
        }
      ],
      "stateMutability": "view",
      "type": "function"
    },
    {
      "inputs": [],
      "name": "operator",
      "outputs": [
        {
          "internalType": "address",
          "name": "",
          "type": "address"
        }
      ],
      "stateMutability": "view",
      "type": "function"
    },
    {
      "inputs": [],
      "name": "premiumPercent",
      "outputs": [
        {
          "internalType": "uint256",
          "name": "",
          "type": "uint256"
        }
      ],
      "stateMutability": "view",
      "type": "function"
    },
    {
      "inputs": [],
      "name": "premiumThreshold",
      "outputs": [
        {
          "internalType": "uint256",
          "name": "",
          "type": "uint256"
        }
      ],
      "stateMutability": "view",
      "type": "function"
    },
    {
      "inputs": [],
      "name": "previousEpochLibraPrice",
      "outputs": [
        {
          "internalType": "uint256",
          "name": "",
          "type": "uint256"
        }
      ],
      "stateMutability": "view",
      "type": "function"
    },
    {
      "inputs": [
        {
          "internalType": "uint256",
          "name": "_bondAmount",
          "type": "uint256"
        },
        {
          "internalType": "uint256",
          "name": "targetPrice",
          "type": "uint256"
        }
      ],
      "name": "redeemBonds",
      "outputs": [],
      "stateMutability": "nonpayable",
      "type": "function"
    },
    {
      "inputs": [],
      "name": "seigniorageExpansionFloorPercent",
      "outputs": [
        {
          "internalType": "uint256",
          "name": "",
          "type": "uint256"
        }
      ],
      "stateMutability": "view",
      "type": "function"
    },
    {
      "inputs": [],
      "name": "seigniorageSaved",
      "outputs": [
        {
          "internalType": "uint256",
          "name": "",
          "type": "uint256"
        }
      ],
      "stateMutability": "view",
      "type": "function"
    },
    {
      "inputs": [
        {
          "internalType": "address",
          "name": "_boardroom",
          "type": "address"
        }
      ],
      "name": "setBoardroom",
      "outputs": [],
      "stateMutability": "nonpayable",
      "type": "function"
    },
    {
      "inputs": [
        {
          "internalType": "uint256",
          "name": "_bondDepletionFloorPercent",
          "type": "uint256"
        }
      ],
      "name": "setBondDepletionFloorPercent",
      "outputs": [],
      "stateMutability": "nonpayable",
      "type": "function"
    },
    {
      "inputs": [
        {
          "internalType": "uint256",
          "name": "_bondSupplyExpansionPercent",
          "type": "uint256"
        }
      ],
      "name": "setBondSupplyExpansionPercent",
      "outputs": [],
      "stateMutability": "nonpayable",
      "type": "function"
    },
    {
      "inputs": [
        {
          "internalType": "uint256",
          "name": "_bootstrapEpochs",
          "type": "uint256"
        },
        {
          "internalType": "uint256",
          "name": "_bootstrapSupplyExpansionPercent",
          "type": "uint256"
        }
      ],
      "name": "setBootstrap",
      "outputs": [],
      "stateMutability": "nonpayable",
      "type": "function"
    },
    {
      "inputs": [
        {
          "internalType": "uint256",
          "name": "_discountPercent",
          "type": "uint256"
        }
      ],
      "name": "setDiscountPercent",
      "outputs": [],
      "stateMutability": "nonpayable",
      "type": "function"
    },
    {
      "inputs": [
        {
          "internalType": "address",
          "name": "_daoFund",
          "type": "address"
        },
        {
          "internalType": "uint256",
          "name": "_daoFundSharedPercent",
          "type": "uint256"
        },
        {
          "internalType": "address",
          "name": "_devFund",
          "type": "address"
        },
        {
          "internalType": "uint256",
          "name": "_devFundSharedPercent",
          "type": "uint256"
        },
        {
          "internalType": "address",
          "name": "_insuranceFund",
          "type": "address"
        },
        {
          "internalType": "uint256",
          "name": "_insuranceFundSharedPercent",
          "type": "uint256"
        }
      ],
      "name": "setExtraFunds",
      "outputs": [],
      "stateMutability": "nonpayable",
      "type": "function"
    },
    {
      "inputs": [
        {
          "internalType": "address",
          "name": "_libraOracle",
          "type": "address"
        }
      ],
      "name": "setLibraOracle",
      "outputs": [],
      "stateMutability": "nonpayable",
      "type": "function"
    },
    {
      "inputs": [
        {
          "internalType": "uint256",
          "name": "_libraPriceCeiling",
          "type": "uint256"
        }
      ],
      "name": "setLibraPriceCeiling",
      "outputs": [],
      "stateMutability": "nonpayable",
      "type": "function"
    },
    {
      "inputs": [
        {
          "internalType": "uint256",
          "name": "_maxDebtRatioPercent",
          "type": "uint256"
        }
      ],
      "name": "setMaxDebtRatioPercent",
      "outputs": [],
      "stateMutability": "nonpayable",
      "type": "function"
    },
    {
      "inputs": [
        {
          "internalType": "uint256",
          "name": "_maxDiscountRate",
          "type": "uint256"
        }
      ],
      "name": "setMaxDiscountRate",
      "outputs": [],
      "stateMutability": "nonpayable",
      "type": "function"
    },
    {
      "inputs": [
        {
          "internalType": "uint8",
          "name": "_index",
          "type": "uint8"
        },
        {
          "internalType": "uint256",
          "name": "_value",
          "type": "uint256"
        }
      ],
      "name": "setMaxExpansionTiersEntry",
      "outputs": [
        {
          "internalType": "bool",
          "name": "",
          "type": "bool"
        }
      ],
      "stateMutability": "nonpayable",
      "type": "function"
    },
    {
      "inputs": [
        {
          "internalType": "uint256",
          "name": "_maxPremiumRate",
          "type": "uint256"
        }
      ],
      "name": "setMaxPremiumRate",
      "outputs": [],
      "stateMutability": "nonpayable",
      "type": "function"
    },
    {
      "inputs": [
        {
          "internalType": "uint256",
          "name": "_maxSupplyContractionPercent",
          "type": "uint256"
        }
      ],
      "name": "setMaxSupplyContractionPercent",
      "outputs": [],
      "stateMutability": "nonpayable",
      "type": "function"
    },
    {
      "inputs": [
        {
          "internalType": "uint256",
          "name": "_maxSupplyExpansionPercent",
          "type": "uint256"
        }
      ],
      "name": "setMaxSupplyExpansionPercents",
      "outputs": [],
      "stateMutability": "nonpayable",
      "type": "function"
    },
    {
      "inputs": [
        {
          "internalType": "uint256",
          "name": "_mintingFactorForPayingDebt",
          "type": "uint256"
        }
      ],
      "name": "setMintingFactorForPayingDebt",
      "outputs": [],
      "stateMutability": "nonpayable",
      "type": "function"
    },
    {
      "inputs": [
        {
          "internalType": "address",
          "name": "_operator",
          "type": "address"
        }
      ],
      "name": "setOperator",
      "outputs": [],
      "stateMutability": "nonpayable",
      "type": "function"
    },
    {
      "inputs": [
        {
          "internalType": "uint256",
          "name": "_premiumPercent",
          "type": "uint256"
        }
      ],
      "name": "setPremiumPercent",
      "outputs": [],
      "stateMutability": "nonpayable",
      "type": "function"
    },
    {
      "inputs": [
        {
          "internalType": "uint256",
          "name": "_premiumThreshold",
          "type": "uint256"
        }
      ],
      "name": "setPremiumThreshold",
      "outputs": [],
      "stateMutability": "nonpayable",
      "type": "function"
    },
    {
      "inputs": [
        {
          "internalType": "uint8",
          "name": "_index",
          "type": "uint8"
        },
        {
          "internalType": "uint256",
          "name": "_value",
          "type": "uint256"
        }
      ],
      "name": "setSupplyTiersEntry",
      "outputs": [
        {
          "internalType": "bool",
          "name": "",
          "type": "bool"
        }
      ],
      "stateMutability": "nonpayable",
      "type": "function"
    },
    {
      "inputs": [],
      "name": "startTime",
      "outputs": [
        {
          "internalType": "uint256",
          "name": "",
          "type": "uint256"
        }
      ],
      "stateMutability": "view",
      "type": "function"
    },
    {
      "inputs": [
        {
          "internalType": "uint256",
          "name": "",
          "type": "uint256"
        }
      ],
      "name": "supplyTiers",
      "outputs": [
        {
          "internalType": "uint256",
          "name": "",
          "type": "uint256"
        }
      ],
      "stateMutability": "view",
      "type": "function"
    }
  ],
  "transactionHash": "0x8bcb31ed40059e5a4f486cad9aa2c7ee3fcdeb201937acad67a066679a1fe755",
  "args": [],
  "numDeployments": 1,
  "solcInputHash": "4608e6a7e27fcdd98a69c84c0705564b",
  "bytecode": "0x60806040526001805460ff60a01b191690556000600381905560045534801561002757600080fd5b50614887806100376000396000f3fe608060405234801561001057600080fd5b50600436106104545760003560e01c806382cad83811610241578063b4d1d7951161013b578063d98f2495116100c3578063f245245a11610087578063f245245a146109ea578063f8cd4d7214610a07578063f921eb3314610a2a578063fcb6f00814610a47578063fec3a60114610a4f57610454565b8063d98f2495146109c2578063da3ed419146109ca578063dfe2f9ee146109d2578063e90b2454146109da578063f14698de146109e257610454565b8063c5967c261161010a578063c5967c2614610967578063c8412d021461096f578063c8f987f314610977578063cecce38e1461097f578063d4b149441461099c57610454565b8063b4d1d79514610947578063b79023031461094f578063b8a878f914610957578063bd20f9af1461095f57610454565b806399820025116101c9578063aed3ba6b1161018d578063aed3ba6b146108c5578063b06ce14a146108cd578063b3ab15fb146108f3578063b3ffc77714610919578063b40d73651461093f57610454565b806399820025146108305780639f7be3251461084d578063a0487eea14610855578063a204452b14610872578063a3ec30fe1461088f57610454565b80638d934f74116102105780638d934f74146107ba578063900cf0cf146107c257806391bbfed5146107ca578063940e6064146107ed57806398b762a11461081357610454565b806382cad83814610770578063860c31771461078d578063874106cc146107955780638c664db61461079d57610454565b80634013a08e1161035257806358a69833116102da5780635b7561791161029e5780635b756179146107485780635e02c51e1461075057806372c054f91461075857806378e979251461076057806381d11eaf1461076857610454565b806358a69833146106ed578063591663e11461071357806359bf5d39146107305780635a0fc79c146107385780635b0231681461074057610454565b8063499f3f1911610321578063499f3f191461066757806354575af41461068457806354f04a11146106ba57806355ebdeef146106dd578063570ca735146106e557610454565b80634013a08e1461061657806340af7ba51461061e578063426799031461063b5780634390d2a81461064357610454565b8063154ec2db116103e057806322f832cd116103a457806322f832cd146105ee57806329ef1919146105f65780632e9c7b65146105fe578063349aa30a14610606578063392e53cd1461060e57610454565b8063154ec2db1461055d578063158ef93e1461057a57806316f5ff1714610596578063196dd8621461059e5780631b0fb35f146105a657610454565b80630cf60175116104275780630cf60175146104cc5780630db7eb0b146104d45780630f25cde5146104dc578063118ebbf9146104e45780631460e3901461050757610454565b806301a937831461045957806303be7e761461047857806304e5c7b1146104925780630b5bcec7146104af575b600080fd5b6104766004803603602081101561046f57600080fd5b5035610a57565b005b610480610b08565b60408051918252519081900360200190f35b610476600480360360208110156104a857600080fd5b5035610b0e565b610476600480360360208110156104c557600080fd5b5035610bdd565b610480610c79565b610480610d2b565b610480610dcd565b610476600480360360408110156104fa57600080fd5b5080359060200135610dd3565b610476600480360360e081101561051d57600080fd5b506001600160a01b038135811691602081013582169160408201358116916060810135821691608082013581169160a08101359091169060c00135611430565b6104766004803603602081101561057357600080fd5b5035611769565b61058261180e565b604080519115158252519081900360200190f35b61048061181e565b6104806118f9565b610476600480360360c08110156105bc57600080fd5b506001600160a01b03813581169160208101359160408201358116916060810135916080820135169060a00135611a41565b610480611c77565b610480611c7d565b610480611c83565b610480611c89565b610582611c8f565b610480611c9f565b6104766004803603602081101561063457600080fd5b5035611ca5565b610480611d4a565b61064b611d50565b604080516001600160a01b039092168252519081900360200190f35b6104766004803603602081101561067d57600080fd5b5035611d5f565b6104766004803603606081101561069a57600080fd5b506001600160a01b03813581169160208101359160409091013516611dfc565b610476600480360360408110156106d057600080fd5b5080359060200135611f40565b61048061267f565b61064b612685565b6104766004803603602081101561070357600080fd5b50356001600160a01b0316612694565b6104766004803603602081101561072957600080fd5b50356126ff565b6104806127a1565b6104806127a7565b61064b6127ad565b6104766127bc565b61064b612e6e565b610480612e7d565b610480612f35565b610480612f3b565b61064b6004803603602081101561078657600080fd5b5035612f41565b610480612f68565b610480612f6e565b610476600480360360208110156107b357600080fd5b5035612f74565b61064b613016565b610480613025565b610476600480360360408110156107e057600080fd5b508035906020013561302b565b6105826004803603604081101561080357600080fd5b5060ff8135169060200135613123565b6104766004803603602081101561082957600080fd5b503561323f565b6104806004803603602081101561084657600080fd5b503561328d565b61064b6132ab565b6104806004803603602081101561086b57600080fd5b50356132ba565b6104766004803603602081101561088857600080fd5b50356132c7565b610476600480360360608110156108a557600080fd5b506001600160a01b03813581169160208101359160409091013516613315565b61064b6133d8565b610476600480360360208110156108e357600080fd5b50356001600160a01b03166133e7565b6104766004803603602081101561090957600080fd5b50356001600160a01b031661347e565b6104766004803603602081101561092f57600080fd5b50356001600160a01b03166134e9565b610480613554565b61048061365b565b61064b613661565b610480613670565b610480613676565b6104806136d8565b610480613702565b610480613708565b6104766004803603602081101561099557600080fd5b503561370e565b610582600480360360408110156109b257600080fd5b5060ff81351690602001356137af565b6104806138a9565b6104806138af565b6104806138b5565b6104806138bb565b6104806138c1565b61047660048036036020811015610a0057600080fd5b50356138c7565b61047660048036036040811015610a1d57600080fd5b5080359060200135613915565b61047660048036036020811015610a4057600080fd5b50356139ce565b610480613a88565b61064b613a8e565b6001546001600160a01b03163314610aa05760405162461bcd60e51b81526004018080602001828103825260248152602001806147506024913960400191505060405180910390fd5b600954604080516397ffe1d760e01b81526004810184905290516001600160a01b03909216916397ffe1d79160248082019260009290919082900301818387803b158015610aed57600080fd5b505af1158015610b01573d6000803e3d6000fd5b5050505050565b60225481565b6001546001600160a01b03163314610b575760405162461bcd60e51b81526004018080602001828103825260248152602001806147506024913960400191505060405180910390fd5b600c54811015610b985760405162461bcd60e51b815260040180806020018281038252602b8152602001806145b8602b913960400191505060405180910390fd5b6096811115610bd85760405162461bcd60e51b81526004018080602001828103825260248152602001806145e36024913960400191505060405180910390fd5b601c55565b6001546001600160a01b03163314610c265760405162461bcd60e51b81526004018080602001828103825260248152602001806147506024913960400191505060405180910390fd5b600a8110158015610c3957506103e88111155b610c745760405162461bcd60e51b81526004018080602001828103825260288152602001806146ff6028913960400191505060405180910390fd5b601055565b600080610c84613676565b9050600b548111610d2757601b54610ca057600b549150610d27565b6000610cc982610cc3670de0b6b3a7640000600b54613a9d90919063ffffffff16565b90613afd565b90506000610cf4612710610cc3601b54610cee600b5487613b6490919063ffffffff16565b90613a9d565b600b54909150610d049082613bc1565b93506000601954118015610d19575060195484115b15610d245760195493505b50505b5090565b600080610d36613676565b9050600c54811115610d27576000610d606064610cc3601c54600b54613a9d90919063ffffffff16565b9050808210610dc2576000610d8c612710610cc3601d54610cee600b5488613b6490919063ffffffff16565b600b54909150610d9c9082613bc1565b93506000601a54118015610db15750601a5484115b15610dbc57601a5493505b50610dc8565b600b5492505b505090565b600b5481565b610ddb613c1b565b15610e175760405162461bcd60e51b815260040180806020018281038252602681526020018061479e6026913960400191505060405180910390fd5b610e1f613c3a565b15610e5b5760405162461bcd60e51b815260040180806020018281038252602681526020018061479e6026913960400191505060405180910390fd5b600254421015610eae576040805162461bcd60e51b8152602060048201526019602482015278151c99585cdd5c9e4e881b9bdd081cdd185c9d1959081e595d603a1b604482015290519081900360640190fd5b6006546040805163570ca73560e01b8152905130926001600160a01b03169163570ca735916004808301926020929190829003018186803b158015610ef257600080fd5b505afa158015610f06573d6000803e3d6000fd5b505050506040513d6020811015610f1c57600080fd5b50516001600160a01b0316148015610faa57506007546040805163570ca73560e01b8152905130926001600160a01b03169163570ca735916004808301926020929190829003018186803b158015610f7357600080fd5b505afa158015610f87573d6000803e3d6000fd5b505050506040513d6020811015610f9d57600080fd5b50516001600160a01b0316145b801561102c57506008546040805163570ca73560e01b8152905130926001600160a01b03169163570ca735916004808301926020929190829003018186803b158015610ff557600080fd5b505afa158015611009573d6000803e3d6000fd5b505050506040513d602081101561101f57600080fd5b50516001600160a01b0316145b80156110ae57506009546040805163570ca73560e01b8152905130926001600160a01b03169163570ca735916004808301926020929190829003018186803b15801561107757600080fd5b505afa15801561108b573d6000803e3d6000fd5b505050506040513d60208110156110a157600080fd5b50516001600160a01b0316145b6110ff576040805162461bcd60e51b815260206004820152601e60248201527f54726561737572793a206e656564206d6f7265207065726d697373696f6e0000604482015290519081900360640190fd5b6000821161113e5760405162461bcd60e51b815260040180806020018281038252602e815260200180614553602e913960400191505060405180910390fd5b6000611148613676565b905081811461119e576040805162461bcd60e51b815260206004820152601b60248201527f54726561737572793a204c49425241207072696365206d6f7665640000000000604482015290519081900360640190fd5b600c5481116111de5760405162461bcd60e51b81526004018080602001828103825260338152602001806146526033913960400191505060405180910390fd5b60006111e8610d2b565b90506000811161123f576040805162461bcd60e51b815260206004820152601b60248201527f54726561737572793a20696e76616c696420626f6e6420726174650000000000604482015290519081900360640190fd5b6000611257670de0b6b3a7640000610cc38785613a9d565b600654604080516370a0823160e01b8152306004820152905192935083926001600160a01b03909216916370a0823191602480820192602092909190829003018186803b1580156112a757600080fd5b505afa1580156112bb573d6000803e3d6000fd5b505050506040513d60208110156112d157600080fd5b505110156113105760405162461bcd60e51b815260040180806020018281038252602581526020018061462d6025913960400191505060405180910390fd5b61132861131f600d5483613c59565b600d5490613b64565b600d556007546040805163079cc67960e41b81523360048201526024810188905290516001600160a01b03909216916379cc67909160448082019260009290919082900301818387803b15801561137e57600080fd5b505af1158015611392573d6000803e3d6000fd5b50506006546113ae92506001600160a01b031690503383613c6f565b6113b6613cc1565b6040805182815260208101879052815133927f51e0d16595cabc591e64da08e45bb223577e5b9a39cd947b4ddc3472b2dd8878928290030190a25050436000908152602081815260408083203284529091528082208054600160ff1991821681179092553384529190922080549091169091179055505050565b600154600160a01b900460ff161561148f576040805162461bcd60e51b815260206004820152601d60248201527f54726561737572793a20616c726561647920696e697469616c697a6564000000604482015290519081900360640190fd5b600680546001600160a01b03199081166001600160a01b038a811691909117909255600780548216898416179055600880548216888416179055600a80548216878416179055600980549091169185169190911790556002819055670de0b6b3a7640000600b81905561150a90606490610cc3906065613a9d565b600c556005805460018101825560009182527f036b6384b5eca791c62761152d0c79bb0604c104a5fb6f4eb0703f3154bb3db00180546001600160a01b0319166001600160a01b03851617905560408051610120810182529182526969e10de76676d0800000602083015269d3c21bcecceda1000000908201526a013da329b633647180000060608201526a01a784379d99db4200000060808201526a0422ca8b0a00a42500000060a08201526a084595161401484a00000060c08201526a108b2a2c2802909400000060e08201526a295be96e640669720000006101008201526115f990600e9060096144a6565b5060408051610120810182526101c28152610190602082015261015e9181019190915261012c606082015260fa608082015260c860a0820152609660c0820152607d60e0820152606461010082015261165690600f9060096144fc565b50610190601055612710601155610dac601281905561012c6013556014556101f46015819055606e601c55611b58601d55600c601655601755600654604080516370a0823160e01b815230600482015290516001600160a01b03909216916370a0823191602480820192602092909190829003018186803b1580156116da57600080fd5b505afa1580156116ee573d6000803e3d6000fd5b505050506040513d602081101561170457600080fd5b5051600d55600180546001600160a01b031960ff60a01b19909116600160a01b1716339081179091556040805143815290517f25ff68dd81b34665b5ba7e553ee5511bf6812e12adb4a7e2c0d9e26b3099ce799181900360200190a250505050505050565b6001546001600160a01b031633146117b25760405162461bcd60e51b81526004018080602001828103825260248152602001806147506024913960400191505060405180910390fd5b614e20811115611809576040805162461bcd60e51b815260206004820152601d60248201527f5f646973636f756e7450657263656e74206973206f7665722032303025000000604482015290519081900360640190fd5b601b55565b600154600160a01b900460ff1681565b600a5460065460408051630d01142560e31b81526001600160a01b039283166004820152670de0b6b3a7640000602482015290516000939290921691636808a12891604480820192602092909190829003018186803b15801561188057600080fd5b505afa9250505080156118a557506040513d60208110156118a057600080fd5b505160015b6118e05760405162461bcd60e51b81526004018080602001828103825260378152602001806145816037913960400191505060405180910390fd5b71ffffffffffffffffffffffffffffffffffff16905090565b600654604080516318160ddd60e01b815290516000926001600160a01b031691839183916318160ddd916004808301926020929190829003018186803b15801561194257600080fd5b505afa158015611956573d6000803e3d6000fd5b505050506040513d602081101561196c57600080fd5b505190506000805b60055460ff82161015611a2e57611a24846001600160a01b03166370a0823160058460ff16815481106119a357fe5b60009182526020918290200154604080516001600160e01b031960e086901b1681526001600160a01b0390921660048301525160248083019392829003018186803b1580156119f157600080fd5b505afa158015611a05573d6000803e3d6000fd5b505050506040513d6020811015611a1b57600080fd5b50518390613bc1565b9150600101611974565b50611a398282613b64565b935050505090565b6001546001600160a01b03163314611a8a5760405162461bcd60e51b81526004018080602001828103825260248152602001806147506024913960400191505060405180910390fd5b6001600160a01b038616611ace576040805162461bcd60e51b815260206004808301919091526024820152637a65726f60e01b604482015290519081900360640190fd5b610bb8851115611b14576040805162461bcd60e51b815260206004820152600c60248201526b6f7574206f662072616e676560a01b604482015290519081900360640190fd5b6001600160a01b038416611b58576040805162461bcd60e51b815260206004808301919091526024820152637a65726f60e01b604482015290519081900360640190fd5b6103e8831115611b9e576040805162461bcd60e51b815260206004820152600c60248201526b6f7574206f662072616e676560a01b604482015290519081900360640190fd5b6001600160a01b038216611be2576040805162461bcd60e51b815260206004808301919091526024820152637a65726f60e01b604482015290519081900360640190fd5b6103e8811115611c28576040805162461bcd60e51b815260206004820152600c60248201526b6f7574206f662072616e676560a01b604482015290519081900360640190fd5b601f80546001600160a01b03199081166001600160a01b039889161790915560209590955560218054861694871694909417909355602291909155602380549093169316929092179055602455565b60125481565b601b5481565b601a5481565b60155481565b600154600160a01b900460ff1690565b601e5481565b6001546001600160a01b03163314611cee5760405162461bcd60e51b81526004018080602001828103825260248152602001806147506024913960400191505060405180910390fd5b614e20811115611d45576040805162461bcd60e51b815260206004820152601c60248201527f5f7072656d69756d50657263656e74206973206f766572203230302500000000604482015290519081900360640190fd5b601d55565b60185481565b6021546001600160a01b031681565b6001546001600160a01b03163314611da85760405162461bcd60e51b81526004018080602001828103825260248152602001806147506024913960400191505060405180910390fd5b6127108110158015611dbc5750614e208111155b611df75760405162461bcd60e51b81526004018080602001828103825260298152602001806146d66029913960400191505060405180910390fd5b601e55565b6001546001600160a01b03163314611e455760405162461bcd60e51b81526004018080602001828103825260248152602001806147506024913960400191505060405180910390fd5b6006546001600160a01b0384811691161415611e90576040805162461bcd60e51b81526020600482015260056024820152646c6962726160d81b604482015290519081900360640190fd5b6007546001600160a01b0384811691161415611edc576040805162461bcd60e51b81526020600480830191909152602482015263189bdb9960e21b604482015290519081900360640190fd5b6008546001600160a01b0384811691161415611f27576040805162461bcd60e51b8152602060048201526005602482015264736861726560d81b604482015290519081900360640190fd5b611f3b6001600160a01b0384168284613c6f565b505050565b611f48613c1b565b15611f845760405162461bcd60e51b815260040180806020018281038252602681526020018061479e6026913960400191505060405180910390fd5b611f8c613c3a565b15611fc85760405162461bcd60e51b815260040180806020018281038252602681526020018061479e6026913960400191505060405180910390fd5b60025442101561201b576040805162461bcd60e51b8152602060048201526019602482015278151c99585cdd5c9e4e881b9bdd081cdd185c9d1959081e595d603a1b604482015290519081900360640190fd5b6006546040805163570ca73560e01b8152905130926001600160a01b03169163570ca735916004808301926020929190829003018186803b15801561205f57600080fd5b505afa158015612073573d6000803e3d6000fd5b505050506040513d602081101561208957600080fd5b50516001600160a01b031614801561211757506007546040805163570ca73560e01b8152905130926001600160a01b03169163570ca735916004808301926020929190829003018186803b1580156120e057600080fd5b505afa1580156120f4573d6000803e3d6000fd5b505050506040513d602081101561210a57600080fd5b50516001600160a01b0316145b801561219957506008546040805163570ca73560e01b8152905130926001600160a01b03169163570ca735916004808301926020929190829003018186803b15801561216257600080fd5b505afa158015612176573d6000803e3d6000fd5b505050506040513d602081101561218c57600080fd5b50516001600160a01b0316145b801561221b57506009546040805163570ca73560e01b8152905130926001600160a01b03169163570ca735916004808301926020929190829003018186803b1580156121e457600080fd5b505afa1580156121f8573d6000803e3d6000fd5b505050506040513d602081101561220e57600080fd5b50516001600160a01b0316145b61226c576040805162461bcd60e51b815260206004820152601e60248201527f54726561737572793a206e656564206d6f7265207065726d697373696f6e0000604482015290519081900360640190fd5b600082116122ab5760405162461bcd60e51b81526004018080602001828103825260308152602001806146a66030913960400191505060405180910390fd5b60006122b5613676565b905081811461230b576040805162461bcd60e51b815260206004820152601b60248201527f54726561737572793a204c49425241207072696365206d6f7665640000000000604482015290519081900360640190fd5b600b54811061234b5760405162461bcd60e51b81526004018080602001828103825260338152602001806146526033913960400191505060405180910390fd5b60045483111561238c5760405162461bcd60e51b815260040180806020018281038252602a8152602001806147fa602a913960400191505060405180910390fd5b6000612396610c79565b9050600081116123ed576040805162461bcd60e51b815260206004820152601b60248201527f54726561737572793a20696e76616c696420626f6e6420726174650000000000604482015290519081900360640190fd5b6000612405670de0b6b3a7640000610cc38785613a9d565b905060006124116118f9565b9050600061249983600760009054906101000a90046001600160a01b03166001600160a01b03166318160ddd6040518163ffffffff1660e01b815260040160206040518083038186803b15801561246757600080fd5b505afa15801561247b573d6000803e3d6000fd5b505050506040513d602081101561249157600080fd5b505190613bc1565b90506124b6612710610cc360145485613a9d90919063ffffffff16565b811115612500576040805162461bcd60e51b81526020600482015260136024820152726f766572206d6178206465627420726174696f60681b604482015290519081900360640190fd5b6006546040805163079cc67960e41b8152336004820152602481018a905290516001600160a01b03909216916379cc67909160448082019260009290919082900301818387803b15801561255357600080fd5b505af1158015612567573d6000803e3d6000fd5b5050600754604080516340c10f1960e01b81523360048201526024810188905290516001600160a01b0390921693506340c10f1992506044808201926020929091908290030181600087803b1580156125bf57600080fd5b505af11580156125d3573d6000803e3d6000fd5b505050506040513d60208110156125e957600080fd5b50506004546125f89088613b64565b600455612603613cc1565b6040805188815260208101859052815133927f73017f1b70789e2e66759eeb3c7ec11f59e6eedb55d921cfaec5410dd42a4799928290030190a25050436000908152602081815260408083203284529091528082208054600160ff19918216811790925533845291909220805490911690911790555050505050565b60205481565b6001546001600160a01b031681565b6001546001600160a01b031633146126dd5760405162461bcd60e51b81526004018080602001828103825260248152602001806147506024913960400191505060405180910390fd5b600a80546001600160a01b0319166001600160a01b0392909216919091179055565b6001546001600160a01b031633146127485760405162461bcd60e51b81526004018080602001828103825260248152602001806147506024913960400191505060405180910390fd5b6103e8811015801561275c57506127108111155b61279c576040805162461bcd60e51b815260206004820152600c60248201526b6f7574206f662072616e676560a01b604482015290519081900360640190fd5b601455565b600d5490565b600d5481565b6008546001600160a01b031681565b6127c4613c1b565b156128005760405162461bcd60e51b815260040180806020018281038252602681526020018061479e6026913960400191505060405180910390fd5b612808613c3a565b156128445760405162461bcd60e51b815260040180806020018281038252602681526020018061479e6026913960400191505060405180910390fd5b600254421015612897576040805162461bcd60e51b8152602060048201526019602482015278151c99585cdd5c9e4e881b9bdd081cdd185c9d1959081e595d603a1b604482015290519081900360640190fd5b61289f6136d8565b4210156128f3576040805162461bcd60e51b815260206004820152601860248201527f54726561737572793a206e6f74206f70656e6564207965740000000000000000604482015290519081900360640190fd5b6006546040805163570ca73560e01b8152905130926001600160a01b03169163570ca735916004808301926020929190829003018186803b15801561293757600080fd5b505afa15801561294b573d6000803e3d6000fd5b505050506040513d602081101561296157600080fd5b50516001600160a01b03161480156129ef57506007546040805163570ca73560e01b8152905130926001600160a01b03169163570ca735916004808301926020929190829003018186803b1580156129b857600080fd5b505afa1580156129cc573d6000803e3d6000fd5b505050506040513d60208110156129e257600080fd5b50516001600160a01b0316145b8015612a7157506008546040805163570ca73560e01b8152905130926001600160a01b03169163570ca735916004808301926020929190829003018186803b158015612a3a57600080fd5b505afa158015612a4e573d6000803e3d6000fd5b505050506040513d6020811015612a6457600080fd5b50516001600160a01b0316145b8015612af357506009546040805163570ca73560e01b8152905130926001600160a01b03169163570ca735916004808301926020929190829003018186803b158015612abc57600080fd5b505afa158015612ad0573d6000803e3d6000fd5b505050506040513d6020811015612ae657600080fd5b50516001600160a01b0316145b612b44576040805162461bcd60e51b815260206004820152601e60248201527f54726561737572793a206e656564206d6f7265207065726d697373696f6e0000604482015290519081900360640190fd5b612b4c613cc1565b612b54613676565b601855600d54600090612b6f90612b696118f9565b90613b64565b90506016546003541015612ba557612ba0612b9b612710610cc360175485613a9d90919063ffffffff16565b613d25565b612df2565b600c546018541115612df257600754604080516318160ddd60e01b815290516000926001600160a01b0316916318160ddd916004808301926020929190829003018186803b158015612bf657600080fd5b505afa158015612c0a573d6000803e3d6000fd5b505050506040513d6020811015612c2057600080fd5b5051600b54601854919250600091612c3791613b64565b90506000806000612c51655af3107a4000610cee88614068565b905080841115612c5f578093505b612c7a612710610cc360115488613a9d90919063ffffffff16565b600d5410612c9f57612c98670de0b6b3a7640000610cc38887613a9d565b9150612d0b565b6000612cb7670de0b6b3a7640000610cc38988613a9d565b9050612cd4612710610cc360125484613a9d90919063ffffffff16565b9250612ce08184613b64565b601e5490945015612d0957612d06612710610cc3601e5487613a9d90919063ffffffff16565b93505b505b8115612d1a57612d1a82613d25565b8215612dec57600d54612d2d9084613bc1565b600d55600654604080516340c10f1960e01b81523060048201526024810186905290516001600160a01b03909216916340c10f19916044808201926020929091908290030181600087803b158015612d8457600080fd5b505af1158015612d98573d6000803e3d6000fd5b505050506040513d6020811015612dae57600080fd5b5050604080514281526020810185905281517ff705142bf09f04297640495ddf7c59b7fd6f51894c5aea9602d631cf05f0efc2929181900390910190a15b50505050505b50600354612e01906001613bc1565b600355600c54612e0f613676565b11612e2d57612e28612710610cc3601354610cee6118f9565b612e30565b60005b600455436000908152602081815260408083203284529091528082208054600160ff1991821681179092553384529190922080549091169091179055565b6009546001600160a01b031681565b600080612e88613676565b9050600c54811115610d2757600654604080516370a0823160e01b815230600482015290516000926001600160a01b0316916370a08231916024808301926020929190829003018186803b158015612edf57600080fd5b505afa158015612ef3573d6000803e3d6000fd5b505050506040513d6020811015612f0957600080fd5b505190506000612f17610d2b565b90508015610d2457611a3981610cc384670de0b6b3a7640000613a9d565b60025481565b60115481565b60058181548110612f4e57fe5b6000918252602090912001546001600160a01b0316905081565b60245481565b60175481565b6001546001600160a01b03163314612fbd5760405162461bcd60e51b81526004018080602001828103825260248152602001806147506024913960400191505060405180910390fd5b6101f48110158015612fd157506127108111155b613011576040805162461bcd60e51b815260206004820152600c60248201526b6f7574206f662072616e676560a01b604482015290519081900360640190fd5b601155565b601f546001600160a01b031681565b60035481565b6001546001600160a01b031633146130745760405162461bcd60e51b81526004018080602001828103825260248152602001806147506024913960400191505060405180910390fd5b60788211156130ca576040805162461bcd60e51b815260206004820152601e60248201527f5f626f6f74737472617045706f6368733a206f7574206f662072616e67650000604482015290519081900360640190fd5b606481101580156130dd57506103e88111155b6131185760405162461bcd60e51b815260040180806020018281038252602e815260200180614824602e913960400191505060405180910390fd5b601691909155601755565b6001546000906001600160a01b0316331461316f5760405162461bcd60e51b81526004018080602001828103825260248152602001806147506024913960400191505060405180910390fd5b60098360ff16106131b15760405162461bcd60e51b81526004018080602001828103825260298152602001806147276029913960400191505060405180910390fd5b60ff8316156131e357600e6001840360ff16815481106131cd57fe5b906000526020600020015482116131e357600080fd5b60088360ff16101561321857600e8360010160ff168154811061320257fe5b9060005260206000200154821061321857600080fd5b81600e8460ff168154811061322957fe5b6000918252602090912001555060015b92915050565b6001546001600160a01b031633146132885760405162461bcd60e51b81526004018080602001828103825260248152602001806147506024913960400191505060405180910390fd5b601955565b600e818154811061329a57fe5b600091825260209091200154905081565b600a546001600160a01b031681565b600f818154811061329a57fe5b6001546001600160a01b031633146133105760405162461bcd60e51b81526004018080602001828103825260248152602001806147506024913960400191505060405180910390fd5b601a55565b6001546001600160a01b0316331461335e5760405162461bcd60e51b81526004018080602001828103825260248152602001806147506024913960400191505060405180910390fd5b60095460408051631515d6bd60e21b81526001600160a01b038681166004830152602482018690528481166044830152915191909216916354575af491606480830192600092919082900301818387803b1580156133bb57600080fd5b505af11580156133cf573d6000803e3d6000fd5b50505050505050565b6006546001600160a01b031681565b6001546001600160a01b031633146134305760405162461bcd60e51b81526004018080602001828103825260248152602001806147506024913960400191505060405180910390fd5b6009546040805163b3ab15fb60e01b81526001600160a01b0384811660048301529151919092169163b3ab15fb91602480830192600092919082900301818387803b158015610aed57600080fd5b6001546001600160a01b031633146134c75760405162461bcd60e51b81526004018080602001828103825260248152602001806147506024913960400191505060405180910390fd5b600180546001600160a01b0319166001600160a01b0392909216919091179055565b6001546001600160a01b031633146135325760405162461bcd60e51b81526004018080602001828103825260248152602001806147506024913960400191505060405180910390fd5b600980546001600160a01b0319166001600160a01b0392909216919091179055565b60008061355f613676565b9050600b548111610d275760006135746118f9565b90506000613593612710610cc360145485613a9d90919063ffffffff16565b90506000600760009054906101000a90046001600160a01b03166001600160a01b03166318160ddd6040518163ffffffff1660e01b815260040160206040518083038186803b1580156135e557600080fd5b505afa1580156135f9573d6000803e3d6000fd5b505050506040513d602081101561360f57600080fd5b50519050808211156136545760006136278383613b64565b90506000613641670de0b6b3a7640000610cc38489613a9d565b905061364f60045482613c59565b965050505b5050505090565b61546081565b6023546001600160a01b031681565b60195481565b600a5460065460408051633ddac95360e01b81526001600160a01b039283166004820152670de0b6b3a7640000602482015290516000939290921691633ddac95391604480820192602092909190829003018186803b15801561188057600080fd5b60006136fd6136f4615460600354613a9d90919063ffffffff16565b60025490613bc1565b905090565b601d5481565b601c5481565b6001546001600160a01b031633146137575760405162461bcd60e51b81526004018080602001828103825260248152602001806147506024913960400191505060405180910390fd5b6064811015801561376a57506105dc8111155b6137aa576040805162461bcd60e51b815260206004820152600c60248201526b6f7574206f662072616e676560a01b604482015290519081900360640190fd5b601355565b6001546000906001600160a01b031633146137fb5760405162461bcd60e51b81526004018080602001828103825260248152602001806147506024913960400191505060405180910390fd5b60098360ff161061383d5760405162461bcd60e51b81526004018080602001828103825260298152602001806147276029913960400191505060405180910390fd5b600a821015801561385057506103e88211155b613898576040805162461bcd60e51b81526020600482015260146024820152735f76616c75653a206f7574206f662072616e676560601b604482015290519081900360640190fd5b81600f8460ff168154811061322957fe5b60105481565b60145481565b600c5481565b60135481565b60165481565b6001546001600160a01b031633146139105760405162461bcd60e51b81526004018080602001828103825260248152602001806147506024913960400191505060405180910390fd5b601555565b6001546001600160a01b0316331461395e5760405162461bcd60e51b81526004018080602001828103825260248152602001806147506024913960400191505060405180910390fd5b60095460408051632ffaaa0960e01b8152600481018590526024810184905290516001600160a01b0390921691632ffaaa099160448082019260009290919082900301818387803b1580156139b257600080fd5b505af11580156139c6573d6000803e3d6000fd5b505050505050565b6001546001600160a01b03163314613a175760405162461bcd60e51b81526004018080602001828103825260248152602001806147506024913960400191505060405180910390fd5b600b548110158015613a435750613a3f6064610cc36078600b54613a9d90919063ffffffff16565b8111155b613a83576040805162461bcd60e51b815260206004820152600c60248201526b6f7574206f662072616e676560a01b604482015290519081900360640190fd5b600c55565b60045481565b6007546001600160a01b031681565b600082613aac57506000613239565b82820282848281613ab957fe5b0414613af65760405162461bcd60e51b81526004018080602001828103825260218152602001806146856021913960400191505060405180910390fd5b9392505050565b6000808211613b53576040805162461bcd60e51b815260206004820152601a60248201527f536166654d6174683a206469766973696f6e206279207a65726f000000000000604482015290519081900360640190fd5b818381613b5c57fe5b049392505050565b600082821115613bbb576040805162461bcd60e51b815260206004820152601e60248201527f536166654d6174683a207375627472616374696f6e206f766572666c6f770000604482015290519081900360640190fd5b50900390565b600082820183811015613af6576040805162461bcd60e51b815260206004820152601b60248201527f536166654d6174683a206164646974696f6e206f766572666c6f770000000000604482015290519081900360640190fd5b4360009081526020818152604080832032845290915290205460ff1690565b4360009081526020818152604080832033845290915290205460ff1690565b6000818310613c685781613af6565b5090919050565b604080516001600160a01b038416602482015260448082018490528251808303909101815260649091019091526020810180516001600160e01b031663a9059cbb60e01b179052611f3b9084906140c5565b600a60009054906101000a90046001600160a01b03166001600160a01b031663a2e620456040518163ffffffff1660e01b8152600401600060405180830381600087803b158015613d1157600080fd5b505af1925050508015613d22575060015b50565b600654604080516340c10f1960e01b81523060048201526024810184905290516001600160a01b03909216916340c10f19916044808201926020929091908290030181600087803b158015613d7957600080fd5b505af1158015613d8d573d6000803e3d6000fd5b505050506040513d6020811015613da357600080fd5b505060205460009015613e8e57613dcb612710610cc360205485613a9d90919063ffffffff16565b600654601f546040805163a9059cbb60e01b81526001600160a01b03928316600482015260248101859052905193945091169163a9059cbb916044808201926020929091908290030181600087803b158015613e2657600080fd5b505af1158015613e3a573d6000803e3d6000fd5b505050506040513d6020811015613e5057600080fd5b5050604080514281526020810183905281517fcb3f34aaa3445b461e6da5492dc89e5c257a59fa598131f3b6bbc97a3638e409929181900390910190a15b60225460009015613f7757613eb4612710610cc360225486613a9d90919063ffffffff16565b6006546021546040805163a9059cbb60e01b81526001600160a01b03928316600482015260248101859052905193945091169163a9059cbb916044808201926020929091908290030181600087803b158015613f0f57600080fd5b505af1158015613f23573d6000803e3d6000fd5b505050506040513d6020811015613f3957600080fd5b5050604080514281526020810183905281517fdc8b715b18523e58b7fd0da53259dfa91efd91df4a854d94b136e3333a3b9395929181900390910190a15b613f8581612b698585613b64565b600954600654919450613fa6916001600160a01b0390811691166000614176565b600954600654613fc3916001600160a01b03918216911685614176565b600954604080516397ffe1d760e01b81526004810186905290516001600160a01b03909216916397ffe1d79160248082019260009290919082900301818387803b15801561401057600080fd5b505af1158015614024573d6000803e3d6000fd5b5050604080514281526020810187905281517f03ca7276ab7799bf73fb79d27ff0610cd7049574f2508ef8445162833d439aea9450908190039091019150a1505050565b600060085b600e8160ff168154811061407d57fe5b906000526020600020015483106140b257600f8160ff168154811061409e57fe5b6000918252602090912001546010556140bb565b6000190161406d565b5050601054919050565b606061411a826040518060400160405280602081526020017f5361666545524332303a206c6f772d6c6576656c2063616c6c206661696c6564815250856001600160a01b03166142899092919063ffffffff16565b805190915015611f3b5780806020019051602081101561413957600080fd5b5051611f3b5760405162461bcd60e51b815260040180806020018281038252602a815260200180614774602a913960400191505060405180910390fd5b8015806141fc575060408051636eb1769f60e11b81523060048201526001600160a01b03848116602483015291519185169163dd62ed3e91604480820192602092909190829003018186803b1580156141ce57600080fd5b505afa1580156141e2573d6000803e3d6000fd5b505050506040513d60208110156141f857600080fd5b5051155b6142375760405162461bcd60e51b81526004018080602001828103825260368152602001806147c46036913960400191505060405180910390fd5b604080516001600160a01b038416602482015260448082018490528251808303909101815260649091019091526020810180516001600160e01b031663095ea7b360e01b179052611f3b9084906140c5565b606061429884846000856142a0565b949350505050565b6060824710156142e15760405162461bcd60e51b81526004018080602001828103825260268152602001806146076026913960400191505060405180910390fd5b6142ea856143fc565b61433b576040805162461bcd60e51b815260206004820152601d60248201527f416464726573733a2063616c6c20746f206e6f6e2d636f6e7472616374000000604482015290519081900360640190fd5b60006060866001600160a01b031685876040518082805190602001908083835b6020831061437a5780518252601f19909201916020918201910161435b565b6001836020036101000a03801982511681845116808217855250505050505090500191505060006040518083038185875af1925050503d80600081146143dc576040519150601f19603f3d011682016040523d82523d6000602084013e6143e1565b606091505b50915091506143f1828286614402565b979650505050505050565b3b151590565b60608315614411575081613af6565b8251156144215782518084602001fd5b8160405162461bcd60e51b81526004018080602001828103825283818151815260200191508051906020019080838360005b8381101561446b578181015183820152602001614453565b50505050905090810190601f1680156144985780820380516001836020036101000a031916815260200191505b509250505060405180910390fd5b8280548282559060005260206000209081019282156144f0579160200282015b828111156144f057825182906affffffffffffffffffffff169055916020019190600101906144c6565b50610d2792915061453d565b8280548282559060005260206000209081019282156144f0579160200282015b828111156144f0578251829061ffff1690559160200191906001019061451c565b5b80821115610d27576000815560010161453e56fe54726561737572793a2063616e6e6f742072656465656d20626f6e64732077697468207a65726f20616d6f756e7454726561737572793a206661696c656420746f20636f6e73756c74204c494252412070726963652066726f6d20746865206f7261636c655f7072656d69756d5468726573686f6c642065786365656473206c6962726150726963654365696c696e675f7072656d69756d5468726573686f6c6420697320686967686572207468616e20312e35416464726573733a20696e73756666696369656e742062616c616e636520666f722063616c6c54726561737572793a20747265617375727920686173206e6f206d6f72652062756467657454726561737572793a206c696272615072696365206e6f7420656c696769626c6520666f7220626f6e64207075726368617365536166654d6174683a206d756c7469706c69636174696f6e206f766572666c6f7754726561737572793a2063616e6e6f7420707572636861736520626f6e64732077697468207a65726f20616d6f756e745f6d696e74696e67466163746f72466f72506179696e67446562743a206f7574206f662072616e67655f6d6178537570706c79457870616e73696f6e50657263656e743a206f7574206f662072616e6765496e6465782068617320746f206265206c6f776572207468616e20636f756e74206f6620746965727354726561737572793a2063616c6c6572206973206e6f7420746865206f70657261746f725361666545524332303a204552433230206f7065726174696f6e20646964206e6f742073756363656564436f6e747261637447756172643a206f6e6520626c6f636b2c206f6e652066756e6374696f6e5361666545524332303a20617070726f76652066726f6d206e6f6e2d7a65726f20746f206e6f6e2d7a65726f20616c6c6f77616e636554726561737572793a206e6f7420656e6f75676820626f6e64206c65667420746f2070757263686173655f626f6f747374726170537570706c79457870616e73696f6e50657263656e743a206f7574206f662072616e6765a26469706673582212206149c47d9d2ea9ddedbbad8f6f7c88fdd5f89986beeb64db6836babe47f279ca64736f6c634300060c0033",
  "devdoc": {
    "kind": "dev",
    "methods": {},
    "version": 1
  },
  "userdoc": {
    "kind": "user",
    "methods": {},
    "version": 1
  },
  "storageLayout": {
    "storage": [
      {
        "astId": 12667,
        "contract": "contracts/Treasury.sol:Treasury",
        "label": "_status",
        "offset": 0,
        "slot": "0",
        "type": "t_mapping(t_uint256,t_mapping(t_address,t_bool))"
      },
      {
        "astId": 4343,
        "contract": "contracts/Treasury.sol:Treasury",
        "label": "operator",
        "offset": 0,
        "slot": "1",
        "type": "t_address"
      },
      {
        "astId": 4346,
        "contract": "contracts/Treasury.sol:Treasury",
        "label": "initialized",
        "offset": 20,
        "slot": "1",
        "type": "t_bool"
      },
      {
        "astId": 4348,
        "contract": "contracts/Treasury.sol:Treasury",
        "label": "startTime",
        "offset": 0,
        "slot": "2",
        "type": "t_uint256"
      },
      {
        "astId": 4351,
        "contract": "contracts/Treasury.sol:Treasury",
        "label": "epoch",
        "offset": 0,
        "slot": "3",
        "type": "t_uint256"
      },
      {
        "astId": 4354,
        "contract": "contracts/Treasury.sol:Treasury",
        "label": "epochSupplyContractionLeft",
        "offset": 0,
        "slot": "4",
        "type": "t_uint256"
      },
      {
        "astId": 4357,
        "contract": "contracts/Treasury.sol:Treasury",
        "label": "excludedFromTotalSupply",
        "offset": 0,
        "slot": "5",
        "type": "t_array(t_address)dyn_storage"
      },
      {
        "astId": 4359,
        "contract": "contracts/Treasury.sol:Treasury",
        "label": "libra",
        "offset": 0,
        "slot": "6",
        "type": "t_address"
      },
      {
        "astId": 4361,
        "contract": "contracts/Treasury.sol:Treasury",
        "label": "lbond",
        "offset": 0,
        "slot": "7",
        "type": "t_address"
      },
      {
        "astId": 4363,
        "contract": "contracts/Treasury.sol:Treasury",
        "label": "lshare",
        "offset": 0,
        "slot": "8",
        "type": "t_address"
      },
      {
        "astId": 4365,
        "contract": "contracts/Treasury.sol:Treasury",
        "label": "boardroom",
        "offset": 0,
        "slot": "9",
        "type": "t_address"
      },
      {
        "astId": 4367,
        "contract": "contracts/Treasury.sol:Treasury",
        "label": "libraOracle",
        "offset": 0,
        "slot": "10",
        "type": "t_address"
      },
      {
        "astId": 4369,
        "contract": "contracts/Treasury.sol:Treasury",
        "label": "libraPriceOne",
        "offset": 0,
        "slot": "11",
        "type": "t_uint256"
      },
      {
        "astId": 4371,
        "contract": "contracts/Treasury.sol:Treasury",
        "label": "libraPriceCeiling",
        "offset": 0,
        "slot": "12",
        "type": "t_uint256"
      },
      {
        "astId": 4373,
        "contract": "contracts/Treasury.sol:Treasury",
        "label": "seigniorageSaved",
        "offset": 0,
        "slot": "13",
        "type": "t_uint256"
      },
      {
        "astId": 4376,
        "contract": "contracts/Treasury.sol:Treasury",
        "label": "supplyTiers",
        "offset": 0,
        "slot": "14",
        "type": "t_array(t_uint256)dyn_storage"
      },
      {
        "astId": 4379,
        "contract": "contracts/Treasury.sol:Treasury",
        "label": "maxExpansionTiers",
        "offset": 0,
        "slot": "15",
        "type": "t_array(t_uint256)dyn_storage"
      },
      {
        "astId": 4381,
        "contract": "contracts/Treasury.sol:Treasury",
        "label": "maxSupplyExpansionPercent",
        "offset": 0,
        "slot": "16",
        "type": "t_uint256"
      },
      {
        "astId": 4383,
        "contract": "contracts/Treasury.sol:Treasury",
        "label": "bondDepletionFloorPercent",
        "offset": 0,
        "slot": "17",
        "type": "t_uint256"
      },
      {
        "astId": 4385,
        "contract": "contracts/Treasury.sol:Treasury",
        "label": "seigniorageExpansionFloorPercent",
        "offset": 0,
        "slot": "18",
        "type": "t_uint256"
      },
      {
        "astId": 4387,
        "contract": "contracts/Treasury.sol:Treasury",
        "label": "maxSupplyContractionPercent",
        "offset": 0,
        "slot": "19",
        "type": "t_uint256"
      },
      {
        "astId": 4389,
        "contract": "contracts/Treasury.sol:Treasury",
        "label": "maxDebtRatioPercent",
        "offset": 0,
        "slot": "20",
        "type": "t_uint256"
      },
      {
        "astId": 4391,
        "contract": "contracts/Treasury.sol:Treasury",
        "label": "bondSupplyExpansionPercent",
        "offset": 0,
        "slot": "21",
        "type": "t_uint256"
      },
      {
        "astId": 4393,
        "contract": "contracts/Treasury.sol:Treasury",
        "label": "bootstrapEpochs",
        "offset": 0,
        "slot": "22",
        "type": "t_uint256"
      },
      {
        "astId": 4395,
        "contract": "contracts/Treasury.sol:Treasury",
        "label": "bootstrapSupplyExpansionPercent",
        "offset": 0,
        "slot": "23",
        "type": "t_uint256"
      },
      {
        "astId": 4397,
        "contract": "contracts/Treasury.sol:Treasury",
        "label": "previousEpochLibraPrice",
        "offset": 0,
        "slot": "24",
        "type": "t_uint256"
      },
      {
        "astId": 4399,
        "contract": "contracts/Treasury.sol:Treasury",
        "label": "maxDiscountRate",
        "offset": 0,
        "slot": "25",
        "type": "t_uint256"
      },
      {
        "astId": 4401,
        "contract": "contracts/Treasury.sol:Treasury",
        "label": "maxPremiumRate",
        "offset": 0,
        "slot": "26",
        "type": "t_uint256"
      },
      {
        "astId": 4403,
        "contract": "contracts/Treasury.sol:Treasury",
        "label": "discountPercent",
        "offset": 0,
        "slot": "27",
        "type": "t_uint256"
      },
      {
        "astId": 4405,
        "contract": "contracts/Treasury.sol:Treasury",
        "label": "premiumThreshold",
        "offset": 0,
        "slot": "28",
        "type": "t_uint256"
      },
      {
        "astId": 4407,
        "contract": "contracts/Treasury.sol:Treasury",
        "label": "premiumPercent",
        "offset": 0,
        "slot": "29",
        "type": "t_uint256"
      },
      {
        "astId": 4409,
        "contract": "contracts/Treasury.sol:Treasury",
        "label": "mintingFactorForPayingDebt",
        "offset": 0,
        "slot": "30",
        "type": "t_uint256"
      },
      {
        "astId": 4411,
        "contract": "contracts/Treasury.sol:Treasury",
        "label": "daoFund",
        "offset": 0,
        "slot": "31",
        "type": "t_address"
      },
      {
        "astId": 4413,
        "contract": "contracts/Treasury.sol:Treasury",
        "label": "daoFundSharedPercent",
        "offset": 0,
        "slot": "32",
        "type": "t_uint256"
      },
      {
        "astId": 4415,
        "contract": "contracts/Treasury.sol:Treasury",
        "label": "devFund",
        "offset": 0,
        "slot": "33",
        "type": "t_address"
      },
      {
        "astId": 4417,
        "contract": "contracts/Treasury.sol:Treasury",
        "label": "devFundSharedPercent",
        "offset": 0,
        "slot": "34",
        "type": "t_uint256"
      },
      {
        "astId": 4419,
        "contract": "contracts/Treasury.sol:Treasury",
        "label": "insuranceFund",
        "offset": 0,
        "slot": "35",
        "type": "t_address"
      },
      {
        "astId": 4421,
        "contract": "contracts/Treasury.sol:Treasury",
        "label": "insuranceFundSharedPercent",
        "offset": 0,
        "slot": "36",
        "type": "t_uint256"
      }
    ],
    "types": {
      "t_address": {
        "encoding": "inplace",
        "label": "address",
        "numberOfBytes": "20"
      },
      "t_array(t_address)dyn_storage": {
        "base": "t_address",
        "encoding": "dynamic_array",
        "label": "address[]",
        "numberOfBytes": "32"
      },
      "t_array(t_uint256)dyn_storage": {
        "base": "t_uint256",
        "encoding": "dynamic_array",
        "label": "uint256[]",
        "numberOfBytes": "32"
      },
      "t_bool": {
        "encoding": "inplace",
        "label": "bool",
        "numberOfBytes": "1"
      },
      "t_mapping(t_address,t_bool)": {
        "encoding": "mapping",
        "key": "t_address",
        "label": "mapping(address => bool)",
        "numberOfBytes": "32",
        "value": "t_bool"
      },
      "t_mapping(t_uint256,t_mapping(t_address,t_bool))": {
        "encoding": "mapping",
        "key": "t_uint256",
        "label": "mapping(uint256 => mapping(address => bool))",
        "numberOfBytes": "32",
        "value": "t_mapping(t_address,t_bool)"
      },
      "t_uint256": {
        "encoding": "inplace",
        "label": "uint256",
        "numberOfBytes": "32"
      }
    }
  }
}