{
  "address": "0x3BC8c48367dcb8b8af1c0B732D7D783BD9eF81cB",
  "abi": [
    {
      "anonymous": false,
      "inputs": [
        {
          "indexed": true,
          "internalType": "address",
          "name": "executor",
          "type": "address"
        },
        {
          "indexed": false,
          "internalType": "uint256",
          "name": "at",
          "type": "uint256"
        }
      ],
      "name": "Initialized",
      "type": "event"
    },
    {
      "anonymous": false,
      "inputs": [
        {
          "indexed": true,
          "internalType": "address",
          "name": "user",
          "type": "address"
        },
        {
          "indexed": false,
          "internalType": "uint256",
          "name": "reward",
          "type": "uint256"
        }
      ],
      "name": "RewardAdded",
      "type": "event"
    },
    {
      "anonymous": false,
      "inputs": [
        {
          "indexed": true,
          "internalType": "address",
          "name": "user",
          "type": "address"
        },
        {
          "indexed": false,
          "internalType": "uint256",
          "name": "reward",
          "type": "uint256"
        }
      ],
      "name": "RewardPaid",
      "type": "event"
    },
    {
      "anonymous": false,
      "inputs": [
        {
          "indexed": true,
          "internalType": "address",
          "name": "user",
          "type": "address"
        },
        {
          "indexed": false,
          "internalType": "uint256",
          "name": "amount",
          "type": "uint256"
        }
      ],
      "name": "Staked",
      "type": "event"
    },
    {
      "anonymous": false,
      "inputs": [
        {
          "indexed": true,
          "internalType": "address",
          "name": "user",
          "type": "address"
        },
        {
          "indexed": false,
          "internalType": "uint256",
          "name": "amount",
          "type": "uint256"
        }
      ],
      "name": "Withdrawn",
      "type": "event"
    },
    {
      "inputs": [
        {
          "internalType": "uint256",
          "name": "amount",
          "type": "uint256"
        }
      ],
      "name": "allocateSeigniorage",
      "outputs": [],
      "stateMutability": "nonpayable",
      "type": "function"
    },
    {
      "inputs": [
        {
          "internalType": "address",
          "name": "account",
          "type": "address"
        }
      ],
      "name": "balanceOf",
      "outputs": [
        {
          "internalType": "uint256",
          "name": "",
          "type": "uint256"
        }
      ],
      "stateMutability": "view",
      "type": "function"
    },
    {
      "inputs": [
        {
          "internalType": "uint256",
          "name": "",
          "type": "uint256"
        }
      ],
      "name": "boardroomHistory",
      "outputs": [
        {
          "internalType": "uint256",
          "name": "time",
          "type": "uint256"
        },
        {
          "internalType": "uint256",
          "name": "rewardReceived",
          "type": "uint256"
        },
        {
          "internalType": "uint256",
          "name": "rewardPerShare",
          "type": "uint256"
        }
      ],
      "stateMutability": "view",
      "type": "function"
    },
    {
      "inputs": [
        {
          "internalType": "address",
          "name": "member",
          "type": "address"
        }
      ],
      "name": "canClaimReward",
      "outputs": [
        {
          "internalType": "bool",
          "name": "",
          "type": "bool"
        }
      ],
      "stateMutability": "view",
      "type": "function"
    },
    {
      "inputs": [
        {
          "internalType": "address",
          "name": "member",
          "type": "address"
        }
      ],
      "name": "canWithdraw",
      "outputs": [
        {
          "internalType": "bool",
          "name": "",
          "type": "bool"
        }
      ],
      "stateMutability": "view",
      "type": "function"
    },
    {
      "inputs": [],
      "name": "claimReward",
      "outputs": [],
      "stateMutability": "nonpayable",
      "type": "function"
    },
    {
      "inputs": [
        {
          "internalType": "address",
          "name": "member",
          "type": "address"
        }
      ],
      "name": "earned",
      "outputs": [
        {
          "internalType": "uint256",
          "name": "",
          "type": "uint256"
        }
      ],
      "stateMutability": "view",
      "type": "function"
    },
    {
      "inputs": [],
      "name": "epoch",
      "outputs": [
        {
          "internalType": "uint256",
          "name": "",
          "type": "uint256"
        }
      ],
      "stateMutability": "view",
      "type": "function"
    },
    {
      "inputs": [],
      "name": "exit",
      "outputs": [],
      "stateMutability": "nonpayable",
      "type": "function"
    },
    {
      "inputs": [
        {
          "internalType": "address",
          "name": "member",
          "type": "address"
        }
      ],
      "name": "getLastSnapshotIndexOf",
      "outputs": [
        {
          "internalType": "uint256",
          "name": "",
          "type": "uint256"
        }
      ],
      "stateMutability": "view",
      "type": "function"
    },
    {
      "inputs": [],
      "name": "getLibraPrice",
      "outputs": [
        {
          "internalType": "uint256",
          "name": "",
          "type": "uint256"
        }
      ],
      "stateMutability": "view",
      "type": "function"
    },
    {
      "inputs": [
        {
          "internalType": "contract IERC20",
          "name": "_token",
          "type": "address"
        },
        {
          "internalType": "uint256",
          "name": "_amount",
          "type": "uint256"
        },
        {
          "internalType": "address",
          "name": "_to",
          "type": "address"
        }
      ],
      "name": "governanceRecoverUnsupported",
      "outputs": [],
      "stateMutability": "nonpayable",
      "type": "function"
    },
    {
      "inputs": [
        {
          "internalType": "contract IERC20",
          "name": "_libra",
          "type": "address"
        },
        {
          "internalType": "contract IERC20",
          "name": "_lshare",
          "type": "address"
        },
        {
          "internalType": "contract ITreasury",
          "name": "_treasury",
          "type": "address"
        }
      ],
      "name": "initialize",
      "outputs": [],
      "stateMutability": "nonpayable",
      "type": "function"
    },
    {
      "inputs": [],
      "name": "initialized",
      "outputs": [
        {
          "internalType": "bool",
          "name": "",
          "type": "bool"
        }
      ],
      "stateMutability": "view",
      "type": "function"
    },
    {
      "inputs": [],
      "name": "latestSnapshotIndex",
      "outputs": [
        {
          "internalType": "uint256",
          "name": "",
          "type": "uint256"
        }
      ],
      "stateMutability": "view",
      "type": "function"
    },
    {
      "inputs": [],
      "name": "libra",
      "outputs": [
        {
          "internalType": "contract IERC20",
          "name": "",
          "type": "address"
        }
      ],
      "stateMutability": "view",
      "type": "function"
    },
    {
      "inputs": [],
      "name": "lshare",
      "outputs": [
        {
          "internalType": "contract IERC20",
          "name": "",
          "type": "address"
        }
      ],
      "stateMutability": "view",
      "type": "function"
    },
    {
      "inputs": [
        {
          "internalType": "address",
          "name": "",
          "type": "address"
        }
      ],
      "name": "members",
      "outputs": [
        {
          "internalType": "uint256",
          "name": "lastSnapshotIndex",
          "type": "uint256"
        },
        {
          "internalType": "uint256",
          "name": "rewardEarned",
          "type": "uint256"
        },
        {
          "internalType": "uint256",
          "name": "epochTimerStart",
          "type": "uint256"
        }
      ],
      "stateMutability": "view",
      "type": "function"
    },
    {
      "inputs": [],
      "name": "nextEpochPoint",
      "outputs": [
        {
          "internalType": "uint256",
          "name": "",
          "type": "uint256"
        }
      ],
      "stateMutability": "view",
      "type": "function"
    },
    {
      "inputs": [],
      "name": "operator",
      "outputs": [
        {
          "internalType": "address",
          "name": "",
          "type": "address"
        }
      ],
      "stateMutability": "view",
      "type": "function"
    },
    {
      "inputs": [],
      "name": "rewardLockupEpochs",
      "outputs": [
        {
          "internalType": "uint256",
          "name": "",
          "type": "uint256"
        }
      ],
      "stateMutability": "view",
      "type": "function"
    },
    {
      "inputs": [],
      "name": "rewardPerShare",
      "outputs": [
        {
          "internalType": "uint256",
          "name": "",
          "type": "uint256"
        }
      ],
      "stateMutability": "view",
      "type": "function"
    },
    {
      "inputs": [
        {
          "internalType": "uint256",
          "name": "_withdrawLockupEpochs",
          "type": "uint256"
        },
        {
          "internalType": "uint256",
          "name": "_rewardLockupEpochs",
          "type": "uint256"
        }
      ],
      "name": "setLockUp",
      "outputs": [],
      "stateMutability": "nonpayable",
      "type": "function"
    },
    {
      "inputs": [
        {
          "internalType": "address",
          "name": "_operator",
          "type": "address"
        }
      ],
      "name": "setOperator",
      "outputs": [],
      "stateMutability": "nonpayable",
      "type": "function"
    },
    {
      "inputs": [
        {
          "internalType": "uint256",
          "name": "amount",
          "type": "uint256"
        }
      ],
      "name": "stake",
      "outputs": [],
      "stateMutability": "nonpayable",
      "type": "function"
    },
    {
      "inputs": [],
      "name": "totalSupply",
      "outputs": [
        {
          "internalType": "uint256",
          "name": "",
          "type": "uint256"
        }
      ],
      "stateMutability": "view",
      "type": "function"
    },
    {
      "inputs": [],
      "name": "treasury",
      "outputs": [
        {
          "internalType": "contract ITreasury",
          "name": "",
          "type": "address"
        }
      ],
      "stateMutability": "view",
      "type": "function"
    },
    {
      "inputs": [
        {
          "internalType": "uint256",
          "name": "amount",
          "type": "uint256"
        }
      ],
      "name": "withdraw",
      "outputs": [],
      "stateMutability": "nonpayable",
      "type": "function"
    },
    {
      "inputs": [],
      "name": "withdrawLockupEpochs",
      "outputs": [
        {
          "internalType": "uint256",
          "name": "",
          "type": "uint256"
        }
      ],
      "stateMutability": "view",
      "type": "function"
    }
  ],
  "transactionHash": "0xf19b9e561bf8af4b69ceb8c4761d392daf1740790411dff9f26d018e1c2d05db",
  "args": [],
  "numDeployments": 1,
  "solcInputHash": "493bb397ef1553f5ada0f74a3cf1e3b0",
  "bytecode": "0x60806040526004805460ff60a01b1916905534801561001d57600080fd5b506121768061002d6000396000f3fe608060405234801561001057600080fd5b50600436106101ce5760003560e01c80635b02316811610104578063aed3ba6b116100a2578063c0c53b8b11610071578063c0c53b8b14610457578063c58e38431461048f578063c5967c26146104ac578063e9fad8ee146104b4576101ce565b8063aed3ba6b14610419578063b3ab15fb14610421578063b88a802f14610447578063bd20f9af1461044f576101ce565b8063714b4658116100de578063714b4658146103b1578063900cf0cf146103d757806397ffe1d7146103df578063a694fc3a146103fc576101ce565b80635b0231681461037b57806361d027b31461038357806370a082311461038b576101ce565b80631e85cd65116101715780633f9e3f041161014b5780633f9e3f0414610311578063446a2ec81461031957806354575af414610321578063570ca73514610357576101ce565b80631e85cd65146102c75780632e1a7d4d146102cf5780632ffaaa09146102ee576101ce565b806308ae4b0c116101ad57806308ae4b0c1461024d578063158ef93e1461029157806318160ddd1461029957806319262d30146102a1576101ce565b80628cc262146101d3578063022ba18d1461020b578063046335d014610213575b600080fd5b6101f9600480360360208110156101e957600080fd5b50356001600160a01b03166104bc565b60408051918252519081900360200190f35b6101f961053d565b6102396004803603602081101561022957600080fd5b50356001600160a01b0316610543565b604080519115158252519081900360200190f35b6102736004803603602081101561026357600080fd5b50356001600160a01b03166105fd565b60408051938452602084019290925282820152519081900360600190f35b61023961061e565b6101f961063f565b610239600480360360208110156102b757600080fd5b50356001600160a01b0316610645565b6101f96106f7565b6102ec600480360360208110156102e557600080fd5b50356106fd565b005b6102ec6004803603604081101561030457600080fd5b5080359060200135610a17565b6101f9610ab7565b6101f9610acd565b6102ec6004803603606081101561033757600080fd5b506001600160a01b03813581169160208101359160409091013516610ae0565b61035f610c08565b604080516001600160a01b039092168252519081900360200190f35b61035f610c17565b61035f610c26565b6101f9600480360360208110156103a157600080fd5b50356001600160a01b0316610c35565b6101f9600480360360208110156103c757600080fd5b50356001600160a01b0316610c50565b6101f9610c6b565b6102ec600480360360208110156103f557600080fd5b5035610cfa565b6102ec6004803603602081101561041257600080fd5b5035610fde565b61035f611263565b6102ec6004803603602081101561043757600080fd5b50356001600160a01b0316611272565b6102ec6112f5565b6101f961156c565b6102ec6004803603606081101561046d57600080fd5b506001600160a01b0381358116916020810135821691604090910135166115ca565b610273600480360360208110156104a557600080fd5b50356117e9565b6101f9611819565b6102ec611877565b6000806104c761188a565b60400151905060006104d8846118e2565b6040908101516001600160a01b0386166000908152600760205291909120600101549091506105359061052f670de0b6b3a764000061052961051a878761193d565b6105238a610c35565b9061199f565b906119ff565b90611a66565b949350505050565b600a5481565b600654604080517f900cf0cf00000000000000000000000000000000000000000000000000000000815290516000926001600160a01b03169163900cf0cf916004808301926020929190829003018186803b1580156105a157600080fd5b505afa1580156105b5573d6000803e3d6000fd5b505050506040513d60208110156105cb57600080fd5b5051600a546001600160a01b0384166000908152600760205260409020600201546105f591611a66565b111592915050565b60076020526000908152604090208054600182015460029092015490919083565b60045474010000000000000000000000000000000000000000900460ff1681565b60015490565b600654604080517f900cf0cf00000000000000000000000000000000000000000000000000000000815290516000926001600160a01b03169163900cf0cf916004808301926020929190829003018186803b1580156106a357600080fd5b505afa1580156106b7573d6000803e3d6000fd5b505050506040513d60208110156106cd57600080fd5b50516009546001600160a01b0384166000908152600760205260409020600201546105f591611a66565b60095481565b610705611ac0565b156107415760405162461bcd60e51b81526004018080602001828103825260268152602001806120e56026913960400191505060405180910390fd5b610749611ae1565b156107855760405162461bcd60e51b81526004018080602001828103825260268152602001806120e56026913960400191505060405180910390fd5b600061079033610c35565b116107cc5760405162461bcd60e51b8152600401808060200182810382526024815260200180611fba6024913960400191505060405180910390fd5b338015610866576107db611f98565b506001600160a01b0381166000908152600760209081526040918290208251606081018452815481526001820154928101929092526002015491810191909152610824826104bc565b6020820152610831610ab7565b81526001600160a01b038216600090815260076020908152604091829020835181559083015160018201559101516002909101555b600082116108bb576040805162461bcd60e51b815260206004820152601c60248201527f426f617264726f6f6d3a2043616e6e6f74207769746864726177203000000000604482015290519081900360640190fd5b600660009054906101000a90046001600160a01b03166001600160a01b031663900cf0cf6040518163ffffffff1660e01b815260040160206040518083038186803b15801561090957600080fd5b505afa15801561091d573d6000803e3d6000fd5b505050506040513d602081101561093357600080fd5b50516009543360009081526007602052604090206002015461095491611a66565b11156109915760405162461bcd60e51b81526004018080602001828103825260238152602001806120986023913960400191505060405180910390fd5b6109996112f5565b6109a282611b02565b60408051838152905133917f7084f5476618d8e60b11ef0d7d3f06914655adb8793e28ff7f018d4c76d505d5919081900360200190a250504360009081526003602090815260408083203284529091528082208054600160ff1991821681179092553384529190922080549091169091179055565b6004546001600160a01b03163314610a605760405162461bcd60e51b81526004018080602001828103825260258152602001806120736025913960400191505060405180910390fd5b808210158015610a71575060388211155b610aac5760405162461bcd60e51b81526004018080602001828103825260238152602001806120506023913960400191505060405180910390fd5b600991909155600a55565b600854600090610ac890600161193d565b905090565b6000610ad761188a565b60400151905090565b6004546001600160a01b03163314610b295760405162461bcd60e51b81526004018080602001828103825260258152602001806120736025913960400191505060405180910390fd5b6005546001600160a01b0384811691161415610b8c576040805162461bcd60e51b815260206004820152600560248201527f6c69627261000000000000000000000000000000000000000000000000000000604482015290519081900360640190fd5b6000546001600160a01b0384811691161415610bef576040805162461bcd60e51b815260206004820152600660248201527f6c73686172650000000000000000000000000000000000000000000000000000604482015290519081900360640190fd5b610c036001600160a01b0384168284611b92565b505050565b6004546001600160a01b031681565b6000546001600160a01b031681565b6006546001600160a01b031681565b6001600160a01b031660009081526002602052604090205490565b6001600160a01b031660009081526007602052604090205490565b600654604080517f900cf0cf00000000000000000000000000000000000000000000000000000000815290516000926001600160a01b03169163900cf0cf916004808301926020929190829003018186803b158015610cc957600080fd5b505afa158015610cdd573d6000803e3d6000fd5b505050506040513d6020811015610cf357600080fd5b5051905090565b610d02611ac0565b15610d3e5760405162461bcd60e51b81526004018080602001828103825260268152602001806120e56026913960400191505060405180910390fd5b610d46611ae1565b15610d825760405162461bcd60e51b81526004018080602001828103825260268152602001806120e56026913960400191505060405180910390fd5b6004546001600160a01b03163314610dcb5760405162461bcd60e51b81526004018080602001828103825260258152602001806120736025913960400191505060405180910390fd5b60008111610e20576040805162461bcd60e51b815260206004820152601c60248201527f426f617264726f6f6d3a2043616e6e6f7420616c6c6f63617465203000000000604482015290519081900360640190fd5b6000610e2a61063f565b11610e665760405162461bcd60e51b8152600401808060200182810382526030815260200180611fde6030913960400191505060405180910390fd5b6000610e7061188a565b6040015190506000610e9f610e98610e8661063f565b61052986670de0b6b3a764000061199f565b8390611a66565b9050610ea9611f98565b5060408051606081018252438152602081018581529181018381526008805460018101825560009190915282517ff3f7a9fe364faab93b216da50a3214154f22a0a2b415b23a84c8169e8b636ee360039092029182015592517ff3f7a9fe364faab93b216da50a3214154f22a0a2b415b23a84c8169e8b636ee4840155517ff3f7a9fe364faab93b216da50a3214154f22a0a2b415b23a84c8169e8b636ee590920191909155600554610f67906001600160a01b0316333087611c12565b60408051858152905133917fac24935fd910bc682b5ccb1a07b718cadf8cf2f6d1404c4f3ddc3662dae40e29919081900360200190a250504360009081526003602090815260408083203284529091528082208054600160ff19918216811790925533845291909220805490911690911790555050565b610fe6611ac0565b156110225760405162461bcd60e51b81526004018080602001828103825260268152602001806120e56026913960400191505060405180910390fd5b61102a611ae1565b156110665760405162461bcd60e51b81526004018080602001828103825260268152602001806120e56026913960400191505060405180910390fd5b33801561110057611075611f98565b506001600160a01b03811660009081526007602090815260409182902082516060810184528154815260018201549281019290925260020154918101919091526110be826104bc565b60208201526110cb610ab7565b81526001600160a01b038216600090815260076020908152604091829020835181559083015160018201559101516002909101555b60008211611155576040805162461bcd60e51b815260206004820152601960248201527f426f617264726f6f6d3a2043616e6e6f74207374616b65203000000000000000604482015290519081900360640190fd5b61115e82611ca0565b600660009054906101000a90046001600160a01b03166001600160a01b031663900cf0cf6040518163ffffffff1660e01b815260040160206040518083038186803b1580156111ac57600080fd5b505afa1580156111c0573d6000803e3d6000fd5b505050506040513d60208110156111d657600080fd5b505133600081815260076020908152604091829020600201939093558051858152905191927f9e71bc8eea02a63969f509818f2dafb9254532904319f9dbda79b67bd34a5f3d92918290030190a250504360009081526003602090815260408083203284529091528082208054600160ff1991821681179092553384529190922080549091169091179055565b6005546001600160a01b031681565b6004546001600160a01b031633146112bb5760405162461bcd60e51b81526004018080602001828103825260258152602001806120736025913960400191505060405180910390fd5b600480547fffffffffffffffffffffffff0000000000000000000000000000000000000000166001600160a01b0392909216919091179055565b33801561138f57611304611f98565b506001600160a01b038116600090815260076020908152604091829020825160608101845281548152600182015492810192909252600201549181019190915261134d826104bc565b602082015261135a610ab7565b81526001600160a01b038216600090815260076020908152604091829020835181559083015160018201559101516002909101555b33600090815260076020526040902060010154801561156857600660009054906101000a90046001600160a01b03166001600160a01b031663900cf0cf6040518163ffffffff1660e01b815260040160206040518083038186803b1580156113f657600080fd5b505afa15801561140a573d6000803e3d6000fd5b505050506040513d602081101561142057600080fd5b5051600a543360009081526007602052604090206002015461144191611a66565b111561147e5760405162461bcd60e51b815260040180806020018281038252602181526020018061202f6021913960400191505060405180910390fd5b600660009054906101000a90046001600160a01b03166001600160a01b031663900cf0cf6040518163ffffffff1660e01b815260040160206040518083038186803b1580156114cc57600080fd5b505afa1580156114e0573d6000803e3d6000fd5b505050506040513d60208110156114f657600080fd5b50513360008181526007602052604081206002810193909355600190920191909155600554611531916001600160a01b039091169083611b92565b60408051828152905133917fe2403640ba68fed3a2f88b7557551d1993f84b99bb10ff833f0cf8db0c5e0486919081900360200190a25b5050565b600654604080517fbd20f9af00000000000000000000000000000000000000000000000000000000815290516000926001600160a01b03169163bd20f9af916004808301926020929190829003018186803b158015610cc957600080fd5b60045474010000000000000000000000000000000000000000900460ff161561163a576040805162461bcd60e51b815260206004820152601e60248201527f426f617264726f6f6d3a20616c726561647920696e697469616c697a65640000604482015290519081900360640190fd5b600580546001600160a01b038086167fffffffffffffffffffffffff000000000000000000000000000000000000000092831617909255600080548584169083161790556006805492841692909116919091179055611697611f98565b50604080516060810182524380825260006020808401828152848601838152600880546001810182559452855160039485027ff3f7a9fe364faab93b216da50a3214154f22a0a2b415b23a84c8169e8b636ee381019190915591517ff3f7a9fe364faab93b216da50a3214154f22a0a2b415b23a84c8169e8b636ee4830155517ff3f7a9fe364faab93b216da50a3214154f22a0a2b415b23a84c8169e8b636ee5909101556006600955600a91909155600480547fffffffffffffffffffffffff00000000000000000000000000000000000000007fffffffffffffffffffffff00ffffffffffffffffffffffffffffffffffffffff90911674010000000000000000000000000000000000000000171633908117909155845192835293519293927f25ff68dd81b34665b5ba7e553ee5511bf6812e12adb4a7e2c0d9e26b3099ce799281900390910190a250505050565b600881815481106117f657fe5b600091825260209091206003909102018054600182015460029092015490925083565b600654604080517fc5967c2600000000000000000000000000000000000000000000000000000000815290516000926001600160a01b03169163c5967c26916004808301926020929190829003018186803b158015610cc957600080fd5b61188861188333610c35565b6106fd565b565b611892611f98565b600861189c610ab7565b815481106118a657fe5b90600052602060002090600302016040518060600160405290816000820154815260200160018201548152602001600282015481525050905090565b6118ea611f98565b60086118f583610c50565b815481106118ff57fe5b906000526020600020906003020160405180606001604052908160008201548152602001600182015481526020016002820154815250509050919050565b600082821115611994576040805162461bcd60e51b815260206004820152601e60248201527f536166654d6174683a207375627472616374696f6e206f766572666c6f770000604482015290519081900360640190fd5b508082035b92915050565b6000826119ae57506000611999565b828202828482816119bb57fe5b04146119f85760405162461bcd60e51b815260040180806020018281038252602181526020018061200e6021913960400191505060405180910390fd5b9392505050565b6000808211611a55576040805162461bcd60e51b815260206004820152601a60248201527f536166654d6174683a206469766973696f6e206279207a65726f000000000000604482015290519081900360640190fd5b818381611a5e57fe5b049392505050565b6000828201838110156119f8576040805162461bcd60e51b815260206004820152601b60248201527f536166654d6174683a206164646974696f6e206f766572666c6f770000000000604482015290519081900360640190fd5b43600090815260036020908152604080832032845290915290205460ff1690565b43600090815260036020908152604080832033845290915290205460ff1690565b3360009081526002602052604090205481811015611b515760405162461bcd60e51b815260040180806020018281038252603681526020018061210b6036913960400191505060405180910390fd5b600154611b5e908361193d565b600155611b6b818361193d565b336000818152600260205260408120929092559054611568916001600160a01b0390911690845b604080516001600160a01b038416602482015260448082018490528251808303909101815260649091019091526020810180517bffffffffffffffffffffffffffffffffffffffffffffffffffffffff167fa9059cbb00000000000000000000000000000000000000000000000000000000179052610c03908490611cf9565b604080516001600160a01b0380861660248301528416604482015260648082018490528251808303909101815260849091019091526020810180517bffffffffffffffffffffffffffffffffffffffffffffffffffffffff167f23b872dd00000000000000000000000000000000000000000000000000000000179052611c9a908590611cf9565b50505050565b600154611cad9082611a66565b60015533600090815260026020526040902054611cca9082611a66565b336000818152600260205260408120929092559054611cf6916001600160a01b03909116903084611c12565b50565b6060611d4e826040518060400160405280602081526020017f5361666545524332303a206c6f772d6c6576656c2063616c6c206661696c6564815250856001600160a01b0316611daa9092919063ffffffff16565b805190915015610c0357808060200190516020811015611d6d57600080fd5b5051610c035760405162461bcd60e51b815260040180806020018281038252602a8152602001806120bb602a913960400191505060405180910390fd5b6060610535848460008585611dbe85611eee565b611e0f576040805162461bcd60e51b815260206004820152601d60248201527f416464726573733a2063616c6c20746f206e6f6e2d636f6e7472616374000000604482015290519081900360640190fd5b60006060866001600160a01b031685876040518082805190602001908083835b60208310611e6c57805182527fffffffffffffffffffffffffffffffffffffffffffffffffffffffffffffffe09092019160209182019101611e2f565b6001836020036101000a03801982511681845116808217855250505050505090500191505060006040518083038185875af1925050503d8060008114611ece576040519150601f19603f3d011682016040523d82523d6000602084013e611ed3565b606091505b5091509150611ee3828286611ef4565b979650505050505050565b3b151590565b60608315611f035750816119f8565b825115611f135782518084602001fd5b8160405162461bcd60e51b81526004018080602001828103825283818151815260200191508051906020019080838360005b83811015611f5d578181015183820152602001611f45565b50505050905090810190601f168015611f8a5780820380516001836020036101000a031916815260200191505b509250505060405180910390fd5b6040518060600160405280600081526020016000815260200160008152509056fe426f617264726f6f6d3a20546865206d656d62657220646f6573206e6f74206578697374426f617264726f6f6d3a2043616e6e6f7420616c6c6f63617465207768656e20746f74616c537570706c792069732030536166654d6174683a206d756c7469706c69636174696f6e206f766572666c6f77426f617264726f6f6d3a207374696c6c20696e20726577617264206c6f636b75705f77697468647261774c6f636b757045706f6368733a206f7574206f662072616e6765426f617264726f6f6d3a2063616c6c6572206973206e6f7420746865206f70657261746f72426f617264726f6f6d3a207374696c6c20696e207769746864726177206c6f636b75705361666545524332303a204552433230206f7065726174696f6e20646964206e6f742073756363656564436f6e747261637447756172643a206f6e6520626c6f636b2c206f6e652066756e6374696f6e426f617264726f6f6d3a20776974686472617720726571756573742067726561746572207468616e207374616b656420616d6f756e74a2646970667358221220576c7a7042470bae1336160fe49f28ec015f0d264217a6abedc2d29da45dc40b64736f6c634300060c0033",
  "devdoc": {
    "kind": "dev",
    "methods": {},
    "version": 1
  },
  "userdoc": {
    "kind": "user",
    "methods": {},
    "version": 1
  },
  "storageLayout": {
    "storage": [
      {
        "astId": 1767,
        "contract": "contracts/Boardroom.sol:Boardroom",
        "label": "lshare",
        "offset": 0,
        "slot": "0",
        "type": "t_contract(IERC20)1180"
      },
      {
        "astId": 1769,
        "contract": "contracts/Boardroom.sol:Boardroom",
        "label": "_totalSupply",
        "offset": 0,
        "slot": "1",
        "type": "t_uint256"
      },
      {
        "astId": 1773,
        "contract": "contracts/Boardroom.sol:Boardroom",
        "label": "_balances",
        "offset": 0,
        "slot": "2",
        "type": "t_mapping(t_address,t_uint256)"
      },
      {
        "astId": 11639,
        "contract": "contracts/Boardroom.sol:Boardroom",
        "label": "_status",
        "offset": 0,
        "slot": "3",
        "type": "t_mapping(t_uint256,t_mapping(t_address,t_bool))"
      },
      {
        "astId": 1906,
        "contract": "contracts/Boardroom.sol:Boardroom",
        "label": "operator",
        "offset": 0,
        "slot": "4",
        "type": "t_address"
      },
      {
        "astId": 1909,
        "contract": "contracts/Boardroom.sol:Boardroom",
        "label": "initialized",
        "offset": 20,
        "slot": "4",
        "type": "t_bool"
      },
      {
        "astId": 1911,
        "contract": "contracts/Boardroom.sol:Boardroom",
        "label": "libra",
        "offset": 0,
        "slot": "5",
        "type": "t_contract(IERC20)1180"
      },
      {
        "astId": 1913,
        "contract": "contracts/Boardroom.sol:Boardroom",
        "label": "treasury",
        "offset": 0,
        "slot": "6",
        "type": "t_contract(ITreasury)8790"
      },
      {
        "astId": 1917,
        "contract": "contracts/Boardroom.sol:Boardroom",
        "label": "members",
        "offset": 0,
        "slot": "7",
        "type": "t_mapping(t_address,t_struct(Memberseat)1897_storage)"
      },
      {
        "astId": 1920,
        "contract": "contracts/Boardroom.sol:Boardroom",
        "label": "boardroomHistory",
        "offset": 0,
        "slot": "8",
        "type": "t_array(t_struct(BoardroomSnapshot)1904_storage)dyn_storage"
      },
      {
        "astId": 1922,
        "contract": "contracts/Boardroom.sol:Boardroom",
        "label": "withdrawLockupEpochs",
        "offset": 0,
        "slot": "9",
        "type": "t_uint256"
      },
      {
        "astId": 1924,
        "contract": "contracts/Boardroom.sol:Boardroom",
        "label": "rewardLockupEpochs",
        "offset": 0,
        "slot": "10",
        "type": "t_uint256"
      }
    ],
    "types": {
      "t_address": {
        "encoding": "inplace",
        "label": "address",
        "numberOfBytes": "20"
      },
      "t_array(t_struct(BoardroomSnapshot)1904_storage)dyn_storage": {
        "base": "t_struct(BoardroomSnapshot)1904_storage",
        "encoding": "dynamic_array",
        "label": "struct Boardroom.BoardroomSnapshot[]",
        "numberOfBytes": "32"
      },
      "t_bool": {
        "encoding": "inplace",
        "label": "bool",
        "numberOfBytes": "1"
      },
      "t_contract(IERC20)1180": {
        "encoding": "inplace",
        "label": "contract IERC20",
        "numberOfBytes": "20"
      },
      "t_contract(ITreasury)8790": {
        "encoding": "inplace",
        "label": "contract ITreasury",
        "numberOfBytes": "20"
      },
      "t_mapping(t_address,t_bool)": {
        "encoding": "mapping",
        "key": "t_address",
        "label": "mapping(address => bool)",
        "numberOfBytes": "32",
        "value": "t_bool"
      },
      "t_mapping(t_address,t_struct(Memberseat)1897_storage)": {
        "encoding": "mapping",
        "key": "t_address",
        "label": "mapping(address => struct Boardroom.Memberseat)",
        "numberOfBytes": "32",
        "value": "t_struct(Memberseat)1897_storage"
      },
      "t_mapping(t_address,t_uint256)": {
        "encoding": "mapping",
        "key": "t_address",
        "label": "mapping(address => uint256)",
        "numberOfBytes": "32",
        "value": "t_uint256"
      },
      "t_mapping(t_uint256,t_mapping(t_address,t_bool))": {
        "encoding": "mapping",
        "key": "t_uint256",
        "label": "mapping(uint256 => mapping(address => bool))",
        "numberOfBytes": "32",
        "value": "t_mapping(t_address,t_bool)"
      },
      "t_struct(BoardroomSnapshot)1904_storage": {
        "encoding": "inplace",
        "label": "struct Boardroom.BoardroomSnapshot",
        "members": [
          {
            "astId": 1899,
            "contract": "contracts/Boardroom.sol:Boardroom",
            "label": "time",
            "offset": 0,
            "slot": "0",
            "type": "t_uint256"
          },
          {
            "astId": 1901,
            "contract": "contracts/Boardroom.sol:Boardroom",
            "label": "rewardReceived",
            "offset": 0,
            "slot": "1",
            "type": "t_uint256"
          },
          {
            "astId": 1903,
            "contract": "contracts/Boardroom.sol:Boardroom",
            "label": "rewardPerShare",
            "offset": 0,
            "slot": "2",
            "type": "t_uint256"
          }
        ],
        "numberOfBytes": "96"
      },
      "t_struct(Memberseat)1897_storage": {
        "encoding": "inplace",
        "label": "struct Boardroom.Memberseat",
        "members": [
          {
            "astId": 1892,
            "contract": "contracts/Boardroom.sol:Boardroom",
            "label": "lastSnapshotIndex",
            "offset": 0,
            "slot": "0",
            "type": "t_uint256"
          },
          {
            "astId": 1894,
            "contract": "contracts/Boardroom.sol:Boardroom",
            "label": "rewardEarned",
            "offset": 0,
            "slot": "1",
            "type": "t_uint256"
          },
          {
            "astId": 1896,
            "contract": "contracts/Boardroom.sol:Boardroom",
            "label": "epochTimerStart",
            "offset": 0,
            "slot": "2",
            "type": "t_uint256"
          }
        ],
        "numberOfBytes": "96"
      },
      "t_uint256": {
        "encoding": "inplace",
        "label": "uint256",
        "numberOfBytes": "32"
      }
    }
  }
}