{
  "address": "0x4d5Cd109Bc091fDa9c958a0d1341824597b02Cb9",
  "abi": [
    {
      "inputs": [
        {
          "internalType": "uint256",
          "name": "_startTime",
          "type": "uint256"
        },
        {
          "internalType": "address",
          "name": "_communityFund",
          "type": "address"
        },
        {
          "internalType": "address",
          "name": "_devFund",
          "type": "address"
        },
        {
          "internalType": "address",
          "name": "_treasuryFund",
          "type": "address"
        }
      ],
      "stateMutability": "nonpayable",
      "type": "constructor"
    },
    {
      "anonymous": false,
      "inputs": [
        {
          "indexed": true,
          "internalType": "address",
          "name": "owner",
          "type": "address"
        },
        {
          "indexed": true,
          "internalType": "address",
          "name": "spender",
          "type": "address"
        },
        {
          "indexed": false,
          "internalType": "uint256",
          "name": "value",
          "type": "uint256"
        }
      ],
      "name": "Approval",
      "type": "event"
    },
    {
      "anonymous": false,
      "inputs": [
        {
          "indexed": true,
          "internalType": "address",
          "name": "previousOperator",
          "type": "address"
        },
        {
          "indexed": true,
          "internalType": "address",
          "name": "newOperator",
          "type": "address"
        }
      ],
      "name": "OperatorTransferred",
      "type": "event"
    },
    {
      "anonymous": false,
      "inputs": [
        {
          "indexed": true,
          "internalType": "address",
          "name": "previousOwner",
          "type": "address"
        },
        {
          "indexed": true,
          "internalType": "address",
          "name": "newOwner",
          "type": "address"
        }
      ],
      "name": "OwnershipTransferred",
      "type": "event"
    },
    {
      "anonymous": false,
      "inputs": [
        {
          "indexed": true,
          "internalType": "address",
          "name": "from",
          "type": "address"
        },
        {
          "indexed": true,
          "internalType": "address",
          "name": "to",
          "type": "address"
        },
        {
          "indexed": false,
          "internalType": "uint256",
          "name": "value",
          "type": "uint256"
        }
      ],
      "name": "Transfer",
      "type": "event"
    },
    {
      "inputs": [],
      "name": "COMMUNITY_FUND_POOL_ALLOCATION",
      "outputs": [
        {
          "internalType": "uint256",
          "name": "",
          "type": "uint256"
        }
      ],
      "stateMutability": "view",
      "type": "function"
    },
    {
      "inputs": [],
      "name": "DEV_FUND_POOL_ALLOCATION",
      "outputs": [
        {
          "internalType": "uint256",
          "name": "",
          "type": "uint256"
        }
      ],
      "stateMutability": "view",
      "type": "function"
    },
    {
      "inputs": [],
      "name": "FARMING_POOL_REWARD_ALLOCATION",
      "outputs": [
        {
          "internalType": "uint256",
          "name": "",
          "type": "uint256"
        }
      ],
      "stateMutability": "view",
      "type": "function"
    },
    {
      "inputs": [],
      "name": "TREASURY_FUND_POOL_ALLOCATION",
      "outputs": [
        {
          "internalType": "uint256",
          "name": "",
          "type": "uint256"
        }
      ],
      "stateMutability": "view",
      "type": "function"
    },
    {
      "inputs": [],
      "name": "VESTING_DURATION",
      "outputs": [
        {
          "internalType": "uint256",
          "name": "",
          "type": "uint256"
        }
      ],
      "stateMutability": "view",
      "type": "function"
    },
    {
      "inputs": [
        {
          "internalType": "address",
          "name": "owner",
          "type": "address"
        },
        {
          "internalType": "address",
          "name": "spender",
          "type": "address"
        }
      ],
      "name": "allowance",
      "outputs": [
        {
          "internalType": "uint256",
          "name": "",
          "type": "uint256"
        }
      ],
      "stateMutability": "view",
      "type": "function"
    },
    {
      "inputs": [
        {
          "internalType": "address",
          "name": "spender",
          "type": "address"
        },
        {
          "internalType": "uint256",
          "name": "amount",
          "type": "uint256"
        }
      ],
      "name": "approve",
      "outputs": [
        {
          "internalType": "bool",
          "name": "",
          "type": "bool"
        }
      ],
      "stateMutability": "nonpayable",
      "type": "function"
    },
    {
      "inputs": [
        {
          "internalType": "address",
          "name": "account",
          "type": "address"
        }
      ],
      "name": "balanceOf",
      "outputs": [
        {
          "internalType": "uint256",
          "name": "",
          "type": "uint256"
        }
      ],
      "stateMutability": "view",
      "type": "function"
    },
    {
      "inputs": [
        {
          "internalType": "uint256",
          "name": "amount",
          "type": "uint256"
        }
      ],
      "name": "burn",
      "outputs": [],
      "stateMutability": "nonpayable",
      "type": "function"
    },
    {
      "inputs": [
        {
          "internalType": "address",
          "name": "account",
          "type": "address"
        },
        {
          "internalType": "uint256",
          "name": "amount",
          "type": "uint256"
        }
      ],
      "name": "burnFrom",
      "outputs": [],
      "stateMutability": "nonpayable",
      "type": "function"
    },
    {
      "inputs": [],
      "name": "claimRewards",
      "outputs": [],
      "stateMutability": "nonpayable",
      "type": "function"
    },
    {
      "inputs": [],
      "name": "communityFund",
      "outputs": [
        {
          "internalType": "address",
          "name": "",
          "type": "address"
        }
      ],
      "stateMutability": "view",
      "type": "function"
    },
    {
      "inputs": [],
      "name": "communityFundRewardRate",
      "outputs": [
        {
          "internalType": "uint256",
          "name": "",
          "type": "uint256"
        }
      ],
      "stateMutability": "view",
      "type": "function"
    },
    {
      "inputs": [],
      "name": "decimals",
      "outputs": [
        {
          "internalType": "uint8",
          "name": "",
          "type": "uint8"
        }
      ],
      "stateMutability": "view",
      "type": "function"
    },
    {
      "inputs": [
        {
          "internalType": "address",
          "name": "spender",
          "type": "address"
        },
        {
          "internalType": "uint256",
          "name": "subtractedValue",
          "type": "uint256"
        }
      ],
      "name": "decreaseAllowance",
      "outputs": [
        {
          "internalType": "bool",
          "name": "",
          "type": "bool"
        }
      ],
      "stateMutability": "nonpayable",
      "type": "function"
    },
    {
      "inputs": [],
      "name": "devFund",
      "outputs": [
        {
          "internalType": "address",
          "name": "",
          "type": "address"
        }
      ],
      "stateMutability": "view",
      "type": "function"
    },
    {
      "inputs": [],
      "name": "devFundRewardRate",
      "outputs": [
        {
          "internalType": "uint256",
          "name": "",
          "type": "uint256"
        }
      ],
      "stateMutability": "view",
      "type": "function"
    },
    {
      "inputs": [
        {
          "internalType": "address",
          "name": "_farmingIncentiveFund",
          "type": "address"
        }
      ],
      "name": "distributeReward",
      "outputs": [],
      "stateMutability": "nonpayable",
      "type": "function"
    },
    {
      "inputs": [],
      "name": "endTime",
      "outputs": [
        {
          "internalType": "uint256",
          "name": "",
          "type": "uint256"
        }
      ],
      "stateMutability": "view",
      "type": "function"
    },
    {
      "inputs": [
        {
          "internalType": "contract IERC20",
          "name": "_token",
          "type": "address"
        },
        {
          "internalType": "uint256",
          "name": "_amount",
          "type": "uint256"
        },
        {
          "internalType": "address",
          "name": "_to",
          "type": "address"
        }
      ],
      "name": "governanceRecoverUnsupported",
      "outputs": [],
      "stateMutability": "nonpayable",
      "type": "function"
    },
    {
      "inputs": [
        {
          "internalType": "address",
          "name": "spender",
          "type": "address"
        },
        {
          "internalType": "uint256",
          "name": "addedValue",
          "type": "uint256"
        }
      ],
      "name": "increaseAllowance",
      "outputs": [
        {
          "internalType": "bool",
          "name": "",
          "type": "bool"
        }
      ],
      "stateMutability": "nonpayable",
      "type": "function"
    },
    {
      "inputs": [],
      "name": "isOperator",
      "outputs": [
        {
          "internalType": "bool",
          "name": "",
          "type": "bool"
        }
      ],
      "stateMutability": "view",
      "type": "function"
    },
    {
      "inputs": [],
      "name": "lastClaimedTime",
      "outputs": [
        {
          "internalType": "uint256",
          "name": "",
          "type": "uint256"
        }
      ],
      "stateMutability": "view",
      "type": "function"
    },
    {
      "inputs": [],
      "name": "name",
      "outputs": [
        {
          "internalType": "string",
          "name": "",
          "type": "string"
        }
      ],
      "stateMutability": "view",
      "type": "function"
    },
    {
      "inputs": [],
      "name": "operator",
      "outputs": [
        {
          "internalType": "address",
          "name": "",
          "type": "address"
        }
      ],
      "stateMutability": "view",
      "type": "function"
    },
    {
      "inputs": [],
      "name": "owner",
      "outputs": [
        {
          "internalType": "address",
          "name": "",
          "type": "address"
        }
      ],
      "stateMutability": "view",
      "type": "function"
    },
    {
      "inputs": [],
      "name": "renounceOwnership",
      "outputs": [],
      "stateMutability": "nonpayable",
      "type": "function"
    },
    {
      "inputs": [],
      "name": "rewardPoolDistributed",
      "outputs": [
        {
          "internalType": "bool",
          "name": "",
          "type": "bool"
        }
      ],
      "stateMutability": "view",
      "type": "function"
    },
    {
      "inputs": [
        {
          "internalType": "address",
          "name": "_communityFund",
          "type": "address"
        }
      ],
      "name": "setCommunityFund",
      "outputs": [],
      "stateMutability": "nonpayable",
      "type": "function"
    },
    {
      "inputs": [
        {
          "internalType": "address",
          "name": "_devFund",
          "type": "address"
        }
      ],
      "name": "setDevFund",
      "outputs": [],
      "stateMutability": "nonpayable",
      "type": "function"
    },
    {
      "inputs": [
        {
          "internalType": "address",
          "name": "_treasuryFund",
          "type": "address"
        }
      ],
      "name": "setTreasuryFund",
      "outputs": [],
      "stateMutability": "nonpayable",
      "type": "function"
    },
    {
      "inputs": [],
      "name": "startTime",
      "outputs": [
        {
          "internalType": "uint256",
          "name": "",
          "type": "uint256"
        }
      ],
      "stateMutability": "view",
      "type": "function"
    },
    {
      "inputs": [],
      "name": "symbol",
      "outputs": [
        {
          "internalType": "string",
          "name": "",
          "type": "string"
        }
      ],
      "stateMutability": "view",
      "type": "function"
    },
    {
      "inputs": [],
      "name": "totalSupply",
      "outputs": [
        {
          "internalType": "uint256",
          "name": "",
          "type": "uint256"
        }
      ],
      "stateMutability": "view",
      "type": "function"
    },
    {
      "inputs": [
        {
          "internalType": "address",
          "name": "recipient",
          "type": "address"
        },
        {
          "internalType": "uint256",
          "name": "amount",
          "type": "uint256"
        }
      ],
      "name": "transfer",
      "outputs": [
        {
          "internalType": "bool",
          "name": "",
          "type": "bool"
        }
      ],
      "stateMutability": "nonpayable",
      "type": "function"
    },
    {
      "inputs": [
        {
          "internalType": "address",
          "name": "sender",
          "type": "address"
        },
        {
          "internalType": "address",
          "name": "recipient",
          "type": "address"
        },
        {
          "internalType": "uint256",
          "name": "amount",
          "type": "uint256"
        }
      ],
      "name": "transferFrom",
      "outputs": [
        {
          "internalType": "bool",
          "name": "",
          "type": "bool"
        }
      ],
      "stateMutability": "nonpayable",
      "type": "function"
    },
    {
      "inputs": [
        {
          "internalType": "address",
          "name": "newOperator_",
          "type": "address"
        }
      ],
      "name": "transferOperator",
      "outputs": [],
      "stateMutability": "nonpayable",
      "type": "function"
    },
    {
      "inputs": [
        {
          "internalType": "address",
          "name": "newOwner",
          "type": "address"
        }
      ],
      "name": "transferOwnership",
      "outputs": [],
      "stateMutability": "nonpayable",
      "type": "function"
    },
    {
      "inputs": [],
      "name": "treasuryFund",
      "outputs": [
        {
          "internalType": "address",
          "name": "",
          "type": "address"
        }
      ],
      "stateMutability": "view",
      "type": "function"
    },
    {
      "inputs": [],
      "name": "treasuryFundRewardRate",
      "outputs": [
        {
          "internalType": "uint256",
          "name": "",
          "type": "uint256"
        }
      ],
      "stateMutability": "view",
      "type": "function"
    },
    {
      "inputs": [],
      "name": "unclaimedCommunityFund",
      "outputs": [
        {
          "internalType": "uint256",
          "name": "_pending",
          "type": "uint256"
        }
      ],
      "stateMutability": "view",
      "type": "function"
    },
    {
      "inputs": [],
      "name": "unclaimedDevFund",
      "outputs": [
        {
          "internalType": "uint256",
          "name": "_pending",
          "type": "uint256"
        }
      ],
      "stateMutability": "view",
      "type": "function"
    },
    {
      "inputs": [],
      "name": "unclaimedTreasuryFund",
      "outputs": [
        {
          "internalType": "uint256",
          "name": "_pending",
          "type": "uint256"
        }
      ],
      "stateMutability": "view",
      "type": "function"
    }
  ],
  "transactionHash": "0xd33327e876c8d72b30884b926f4e4573b98318acb5250368d7b96f14e02d2edc",
  "args": [
    1655643600,
    "0x73d0FA805926a8A4fe2c05919E502D33bC18DDa6",
    "0x7C79e5D9fC47EfC922d44255AA7B35663e0B32ff",
    "0x41804ad689907E795E3AB0F07f7789c059C05988"
  ],
  "numDeployments": 1,
  "solcInputHash": "6588c743f6638076eeb09688cfd6a776",
  "bytecode": "0x60806040526010805460ff191690553480156200001b57600080fd5b50604051620023be380380620023be833981810160405260808110156200004157600080fd5b50805160208083015160408085015160609095015181518083018352601381527f4c696272612046696e616e636520534841524500000000000000000000000000818601908152835180850190945260068452654c534841524560d01b9584019590955280519596939593949193909291620000c1916003919062000572565b508051620000d790600490602084019062000572565b50506005805460ff19166012179055506000620000f36200038f565b60058054610100600160a81b0319166101006001600160a01b03841690810291909117909155604051919250906000907f8be0079c531659141344cd1fd0a4f28419497f9722a3daafe3b4186f6b6457e0908290a350620001536200038f565b600680546001600160a01b0319166001600160a01b0392831617908190556040519116906000907f74da04524d50c64947f5dd5381ef1a4dca5cba8ed1d816243f9e48aa0b5617ed908290a3620001b333670de0b6b3a764000062000393565b60078490556301e13380808501600855600f859055620001eb906902f6f10780d22cc0000090620004a2602090811b6200145c17901c565b6009556200021469017b7883c069166000006301e13380620004a2602090811b6200145c17901c565b600b556200023c68bdbc41e0348b3000006301e13380620004a2602090811b6200145c17901c565b600a556001600160a01b03821662000291576040805162461bcd60e51b81526020600482015260136024820152720416464726573732063616e6e6f74206265203606c1b604482015290519081900360640190fd5b600e80546001600160a01b0319166001600160a01b03848116919091179091558316620002fb576040805162461bcd60e51b81526020600482015260136024820152720416464726573732063616e6e6f74206265203606c1b604482015290519081900360640190fd5b600d80546001600160a01b0319166001600160a01b0385811691909117909155811662000365576040805162461bcd60e51b81526020600482015260136024820152720416464726573732063616e6e6f74206265203606c1b604482015290519081900360640190fd5b600c80546001600160a01b0319166001600160a01b0392909216919091179055506200060e915050565b3390565b6001600160a01b038216620003ef576040805162461bcd60e51b815260206004820152601f60248201527f45524332303a206d696e7420746f20746865207a65726f206164647265737300604482015290519081900360640190fd5b620003fd600083836200050b565b62000419816002546200051060201b620014c31790919060201c565b6002556001600160a01b038216600090815260208181526040909120546200044c918390620014c362000510821b17901c565b6001600160a01b0383166000818152602081815260408083209490945583518581529351929391927fddf252ad1be2c89b69c2b068fc378daa952ba7f163c4a11628f55a4df523b3ef9281900390910190a35050565b6000808211620004f9576040805162461bcd60e51b815260206004820152601a60248201527f536166654d6174683a206469766973696f6e206279207a65726f000000000000604482015290519081900360640190fd5b8183816200050357fe5b049392505050565b505050565b6000828201838110156200056b576040805162461bcd60e51b815260206004820152601b60248201527f536166654d6174683a206164646974696f6e206f766572666c6f770000000000604482015290519081900360640190fd5b9392505050565b828054600181600116156101000203166002900490600052602060002090601f016020900481019282601f10620005b557805160ff1916838001178555620005e5565b82800160010185558215620005e5579182015b82811115620005e5578251825591602001919060010190620005c8565b50620005f3929150620005f7565b5090565b5b80821115620005f35760008155600101620005f8565b611da0806200061e6000396000f3fe608060405234801561001057600080fd5b50600436106102e85760003560e01c806344cdc454116101915780638da5cb5b116100e3578063a9059cbb11610097578063e0c4f12d11610071578063e0c4f12d146106dd578063f2fde38b146106e5578063f746b7181461070b576102e8565b8063a9059cbb1461065d578063ae4db91914610689578063dd62ed3e146106af576102e8565b80639662676c116100c85780639662676c14610621578063a06160fd14610629578063a457c2d714610631576102e8565b80638da5cb5b1461061157806395d89b4114610619576102e8565b8063570ca7351161014557806374e7153d1161011f57806374e7153d146105d557806378e97925146105dd57806379cc6790146105e5576102e8565b8063570ca7351461059f57806370a08231146105a7578063715018a6146105cd576102e8565b80634f337dd5116101765780634f337dd51461055957806354575af414610561578063547f121314610597576102e8565b806344cdc454146105495780634cfc4d3014610551576102e8565b80632e3367ce1161024a57806337339a16116101fe57806342966c68116101d857806342966c681461051c5780634390d2a8146105395780634456eda214610541576102e8565b806337339a16146104c257806339509351146104e85780633bba8eed14610514576102e8565b80633197cbb61161022f5780633197cbb6146104aa57806334b9558e146104b2578063372500ab146104ba576102e8565b80632e3367ce14610484578063313ce5671461048c576102e8565b806318160ddd116102a157806323b872dd1161028657806323b872dd1461042057806329605e77146104565780632c07a6241461047c576102e8565b806318160ddd146104105780631de6934a14610418576102e8565b8063092193ab116102d2578063092193ab1461038e578063095ea7b3146103b657806317764782146103f6576102e8565b8062f380f4146102ed57806306fdde0314610311575b600080fd5b6102f5610731565b604080516001600160a01b039092168252519081900360200190f35b610319610740565b6040805160208082528351818301528351919283929083019185019080838360005b8381101561035357818101518382015260200161033b565b50505050905090810190601f1680156103805780820380516001836020036101000a031916815260200191505b509250505060405180910390f35b6103b4600480360360208110156103a457600080fd5b50356001600160a01b03166107f5565b005b6103e2600480360360408110156103cc57600080fd5b506001600160a01b038135169060200135610933565b604080519115158252519081900360200190f35b6103fe610951565b60408051918252519081900360200190f35b6103fe61099f565b6103fe6109a5565b6103e26004803603606081101561043657600080fd5b506001600160a01b038135811691602081013590911690604001356109ab565b6103b46004803603602081101561046c57600080fd5b50356001600160a01b0316610a32565b6103fe610aaf565b6103fe610af1565b610494610af7565b6040805160ff9092168252519081900360200190f35b6103fe610b00565b6103fe610b06565b6103b4610b0c565b6103b4600480360360208110156104d857600080fd5b50356001600160a01b0316610bd2565b6103e2600480360360408110156104fe57600080fd5b506001600160a01b038135169060200135610cb2565b6103fe610d00565b6103b46004803603602081101561053257600080fd5b5035610d0e565b6102f5610d17565b6103e2610d26565b6103fe610d4c565b6103fe610d52565b6103fe610d5a565b6103b46004803603606081101561057757600080fd5b506001600160a01b03813581169160208101359160409091013516610d68565b6103fe610e39565b6102f5610e7b565b6103fe600480360360208110156105bd57600080fd5b50356001600160a01b0316610e8a565b6103b4610ea5565b6103fe610f80565b6103fe610f8d565b6103b4600480360360408110156105fb57600080fd5b506001600160a01b038135169060200135610f93565b6102f5610fed565b610319611001565b6103e2611080565b6103fe611089565b6103e26004803603604081101561064757600080fd5b506001600160a01b038135169060200135611097565b6103e26004803603604081101561067357600080fd5b506001600160a01b0381351690602001356110ff565b6103b46004803603602081101561069f57600080fd5b50356001600160a01b0316611113565b6103fe600480360360408110156106c557600080fd5b506001600160a01b038135811691602001351661120b565b6102f5611236565b6103b4600480360360208110156106fb57600080fd5b50356001600160a01b0316611245565b6103b46004803603602081101561072157600080fd5b50356001600160a01b031661137c565b600d546001600160a01b031681565b60038054604080516020601f60027fffffffffffffffffffffffffffffffffffffffffffffffffffffffffffffffff6101006001881615020190951694909404938401819004810282018101909252828152606093909290918301828280156107ea5780601f106107bf576101008083540402835291602001916107ea565b820191906000526020600020905b8154815290600101906020018083116107cd57829003601f168201915b505050505090505b90565b6006546001600160a01b0316331461083e5760405162461bcd60e51b8152600401808060200182810382526024815260200180611cb86024913960400191505060405180910390fd5b60105460ff1615610896576040805162461bcd60e51b815260206004820152601860248201527f6f6e6c792063616e2064697374726962757465206f6e63650000000000000000604482015290519081900360640190fd5b6001600160a01b0381166108f1576040805162461bcd60e51b815260206004820152601660248201527f215f6661726d696e67496e63656e7469766546756e6400000000000000000000604482015290519081900360640190fd5b601080547fffffffffffffffffffffffffffffffffffffffffffffffffffffffffffffff00166001179055610930816909a28f5862ab11700000611524565b50565b6000610947610940611614565b8484611618565b5060015b92915050565b600854600090429081111561096557506008545b80600f54106109785760009150506107f2565b610999600a54610993600f548461170490919063ffffffff16565b90611761565b91505090565b60025490565b600a5481565b60006109b88484846117ba565b610a28846109c4611614565b610a2385604051806060016040528060288152602001611c6c602891396001600160a01b038a16600090815260016020526040812090610a02611614565b6001600160a01b031681526020810191909152604001600020549190611915565b611618565b5060019392505050565b610a3a611614565b6001600160a01b0316610a4b610fed565b6001600160a01b031614610aa6576040805162461bcd60e51b815260206004820181905260248201527f4f776e61626c653a2063616c6c6572206973206e6f7420746865206f776e6572604482015290519081900360640190fd5b610930816119ac565b6008546000904290811115610ac357506008545b80600f5410610ad65760009150506107f2565b610999600b54610993600f548461170490919063ffffffff16565b600b5481565b60055460ff1690565b60085481565b600f5481565b6000610b16610e39565b9050600081118015610b325750600d546001600160a01b031615155b15610b4d57600d54610b4d906001600160a01b031682611524565b610b55610aaf565b9050600081118015610b715750600e546001600160a01b031615155b15610b8c57600e54610b8c906001600160a01b031682611524565b610b94610951565b9050600081118015610bb05750600c546001600160a01b031615155b15610bcb57600c54610bcb906001600160a01b031682611524565b5042600f55565b6006546001600160a01b03163314610c1b5760405162461bcd60e51b8152600401808060200182810382526024815260200180611cb86024913960400191505060405180910390fd5b6001600160a01b038116610c78576040805162461bcd60e51b8152602060048083019190915260248201527f7a65726f00000000000000000000000000000000000000000000000000000000604482015290519081900360640190fd5b600d80547fffffffffffffffffffffffff0000000000000000000000000000000000000000166001600160a01b0392909216919091179055565b6000610947610cbf611614565b84610a238560016000610cd0611614565b6001600160a01b03908116825260208083019390935260409182016000908120918c1681529252902054906114c3565b6902f6f10780d22cc0000081565b61093081611a61565b600e546001600160a01b031681565b6006546000906001600160a01b0316610d3d611614565b6001600160a01b031614905090565b60095481565b6301e1338081565b69017b7883c0691660000081565b6006546001600160a01b03163314610db15760405162461bcd60e51b8152600401808060200182810382526024815260200180611cb86024913960400191505060405180910390fd5b826001600160a01b031663a9059cbb82846040518363ffffffff1660e01b815260040180836001600160a01b0316815260200182815260200192505050602060405180830381600087803b158015610e0857600080fd5b505af1158015610e1c573d6000803e3d6000fd5b505050506040513d6020811015610e3257600080fd5b5050505050565b6008546000904290811115610e4d57506008545b80600f5410610e605760009150506107f2565b610999600954610993600f548461170490919063ffffffff16565b6006546001600160a01b031690565b6001600160a01b031660009081526020819052604090205490565b610ead611614565b6001600160a01b0316610ebe610fed565b6001600160a01b031614610f19576040805162461bcd60e51b815260206004820181905260248201527f4f776e61626c653a2063616c6c6572206973206e6f7420746865206f776e6572604482015290519081900360640190fd5b60055460405160009161010090046001600160a01b0316907f8be0079c531659141344cd1fd0a4f28419497f9722a3daafe3b4186f6b6457e0908390a3600580547fffffffffffffffffffffff0000000000000000000000000000000000000000ff169055565b68bdbc41e0348b30000081565b60075481565b6000610fca82604051806060016040528060248152602001611c9460249139610fc386610fbe611614565b61120b565b9190611915565b9050610fde83610fd8611614565b83611618565b610fe88383611a6e565b505050565b60055461010090046001600160a01b031690565b60048054604080516020601f60027fffffffffffffffffffffffffffffffffffffffffffffffffffffffffffffffff6101006001881615020190951694909404938401819004810282018101909252828152606093909290918301828280156107ea5780601f106107bf576101008083540402835291602001916107ea565b60105460ff1681565b6909a28f5862ab1170000081565b60006109476110a4611614565b84610a2385604051806060016040528060258152602001611d4660259139600160006110ce611614565b6001600160a01b03908116825260208083019390935260409182016000908120918d16815292529020549190611915565b600061094761110c611614565b84846117ba565b600e546001600160a01b03163314611174576040805162461bcd60e51b8152602060048083019190915260248201527f2164657600000000000000000000000000000000000000000000000000000000604482015290519081900360640190fd5b6001600160a01b0381166111d1576040805162461bcd60e51b8152602060048083019190915260248201527f7a65726f00000000000000000000000000000000000000000000000000000000604482015290519081900360640190fd5b600e80547fffffffffffffffffffffffff0000000000000000000000000000000000000000166001600160a01b0392909216919091179055565b6001600160a01b03918216600090815260016020908152604080832093909416825291909152205490565b600c546001600160a01b031681565b61124d611614565b6001600160a01b031661125e610fed565b6001600160a01b0316146112b9576040805162461bcd60e51b815260206004820181905260248201527f4f776e61626c653a2063616c6c6572206973206e6f7420746865206f776e6572604482015290519081900360640190fd5b6001600160a01b0381166112fe5760405162461bcd60e51b8152600401808060200182810382526026815260200180611bb06026913960400191505060405180910390fd5b6005546040516001600160a01b0380841692610100900416907f8be0079c531659141344cd1fd0a4f28419497f9722a3daafe3b4186f6b6457e090600090a3600580546001600160a01b03909216610100027fffffffffffffffffffffff0000000000000000000000000000000000000000ff909216919091179055565b6006546001600160a01b031633146113c55760405162461bcd60e51b8152600401808060200182810382526024815260200180611cb86024913960400191505060405180910390fd5b6001600160a01b038116611422576040805162461bcd60e51b8152602060048083019190915260248201527f7a65726f00000000000000000000000000000000000000000000000000000000604482015290519081900360640190fd5b600c80547fffffffffffffffffffffffff0000000000000000000000000000000000000000166001600160a01b0392909216919091179055565b60008082116114b2576040805162461bcd60e51b815260206004820152601a60248201527f536166654d6174683a206469766973696f6e206279207a65726f000000000000604482015290519081900360640190fd5b8183816114bb57fe5b049392505050565b60008282018381101561151d576040805162461bcd60e51b815260206004820152601b60248201527f536166654d6174683a206164646974696f6e206f766572666c6f770000000000604482015290519081900360640190fd5b9392505050565b6001600160a01b03821661157f576040805162461bcd60e51b815260206004820152601f60248201527f45524332303a206d696e7420746f20746865207a65726f206164647265737300604482015290519081900360640190fd5b61158b60008383610fe8565b60025461159890826114c3565b6002556001600160a01b0382166000908152602081905260409020546115be90826114c3565b6001600160a01b0383166000818152602081815260408083209490945583518581529351929391927fddf252ad1be2c89b69c2b068fc378daa952ba7f163c4a11628f55a4df523b3ef9281900390910190a35050565b3390565b6001600160a01b03831661165d5760405162461bcd60e51b8152600401808060200182810382526024815260200180611d226024913960400191505060405180910390fd5b6001600160a01b0382166116a25760405162461bcd60e51b8152600401808060200182810382526022815260200180611bd66022913960400191505060405180910390fd5b6001600160a01b03808416600081815260016020908152604080832094871680845294825291829020859055815185815291517f8c5be1e5ebec7d5bd14f71427d1e84f3dd0314c0f7b2291e5b200ac8c7c3b9259281900390910190a3505050565b60008282111561175b576040805162461bcd60e51b815260206004820152601e60248201527f536166654d6174683a207375627472616374696f6e206f766572666c6f770000604482015290519081900360640190fd5b50900390565b6000826117705750600061094b565b8282028284828161177d57fe5b041461151d5760405162461bcd60e51b8152600401808060200182810382526021815260200180611c4b6021913960400191505060405180910390fd5b6001600160a01b0383166117ff5760405162461bcd60e51b8152600401808060200182810382526025815260200180611cfd6025913960400191505060405180910390fd5b6001600160a01b0382166118445760405162461bcd60e51b8152600401808060200182810382526023815260200180611b6b6023913960400191505060405180910390fd5b61184f838383610fe8565b61188c81604051806060016040528060268152602001611bf8602691396001600160a01b0386166000908152602081905260409020549190611915565b6001600160a01b0380851660009081526020819052604080822093909355908416815220546118bb90826114c3565b6001600160a01b038084166000818152602081815260409182902094909455805185815290519193928716927fddf252ad1be2c89b69c2b068fc378daa952ba7f163c4a11628f55a4df523b3ef92918290030190a3505050565b600081848411156119a45760405162461bcd60e51b81526004018080602001828103825283818151815260200191508051906020019080838360005b83811015611969578181015183820152602001611951565b50505050905090810190601f1680156119965780820380516001836020036101000a031916815260200191505b509250505060405180910390fd5b505050900390565b6001600160a01b0381166119f15760405162461bcd60e51b815260040180806020018281038252602d815260200180611c1e602d913960400191505060405180910390fd5b6040516001600160a01b038216906000907f74da04524d50c64947f5dd5381ef1a4dca5cba8ed1d816243f9e48aa0b5617ed908290a3600680547fffffffffffffffffffffffff0000000000000000000000000000000000000000166001600160a01b0392909216919091179055565b610930611a6c611614565b825b6001600160a01b038216611ab35760405162461bcd60e51b8152600401808060200182810382526021815260200180611cdc6021913960400191505060405180910390fd5b611abf82600083610fe8565b611afc81604051806060016040528060228152602001611b8e602291396001600160a01b0385166000908152602081905260409020549190611915565b6001600160a01b038316600090815260208190526040902055600254611b229082611704565b6002556040805182815290516000916001600160a01b038516917fddf252ad1be2c89b69c2b068fc378daa952ba7f163c4a11628f55a4df523b3ef9181900360200190a3505056fe45524332303a207472616e7366657220746f20746865207a65726f206164647265737345524332303a206275726e20616d6f756e7420657863656564732062616c616e63654f776e61626c653a206e6577206f776e657220697320746865207a65726f206164647265737345524332303a20617070726f766520746f20746865207a65726f206164647265737345524332303a207472616e7366657220616d6f756e7420657863656564732062616c616e63656f70657261746f723a207a65726f206164647265737320676976656e20666f72206e6577206f70657261746f72536166654d6174683a206d756c7469706c69636174696f6e206f766572666c6f7745524332303a207472616e7366657220616d6f756e74206578636565647320616c6c6f77616e636545524332303a206275726e20616d6f756e74206578636565647320616c6c6f77616e63656f70657261746f723a2063616c6c6572206973206e6f7420746865206f70657261746f7245524332303a206275726e2066726f6d20746865207a65726f206164647265737345524332303a207472616e736665722066726f6d20746865207a65726f206164647265737345524332303a20617070726f76652066726f6d20746865207a65726f206164647265737345524332303a2064656372656173656420616c6c6f77616e63652062656c6f77207a65726fa2646970667358221220fde5fe19a489c91404c39b5492b0b10966cc570e6834f69922033a566f7464ae64736f6c634300060c0033",
  "devdoc": {
    "kind": "dev",
    "methods": {
      "allowance(address,address)": {
        "details": "See {IERC20-allowance}."
      },
      "approve(address,uint256)": {
        "details": "See {IERC20-approve}. Requirements: - `spender` cannot be the zero address."
      },
      "balanceOf(address)": {
        "details": "See {IERC20-balanceOf}."
      },
      "burn(uint256)": {
        "details": "Destroys `amount` tokens from the caller. See {ERC20-_burn}."
      },
      "burnFrom(address,uint256)": {
        "details": "Destroys `amount` tokens from `account`, deducting from the caller's allowance. See {ERC20-_burn} and {ERC20-allowance}. Requirements: - the caller must have allowance for ``accounts``'s tokens of at least `amount`."
      },
      "claimRewards()": {
        "details": "Claim pending rewards to community and dev fund"
      },
      "decimals()": {
        "details": "Returns the number of decimals used to get its user representation. For example, if `decimals` equals `2`, a balance of `505` tokens should be displayed to a user as `5,05` (`505 / 10 ** 2`). Tokens usually opt for a value of 18, imitating the relationship between Ether and Wei. This is the value {ERC20} uses, unless {_setupDecimals} is called. NOTE: This information is only used for _display_ purposes: it in no way affects any of the arithmetic of the contract, including {IERC20-balanceOf} and {IERC20-transfer}."
      },
      "decreaseAllowance(address,uint256)": {
        "details": "Atomically decreases the allowance granted to `spender` by the caller. This is an alternative to {approve} that can be used as a mitigation for problems described in {IERC20-approve}. Emits an {Approval} event indicating the updated allowance. Requirements: - `spender` cannot be the zero address. - `spender` must have allowance for the caller of at least `subtractedValue`."
      },
      "increaseAllowance(address,uint256)": {
        "details": "Atomically increases the allowance granted to `spender` by the caller. This is an alternative to {approve} that can be used as a mitigation for problems described in {IERC20-approve}. Emits an {Approval} event indicating the updated allowance. Requirements: - `spender` cannot be the zero address."
      },
      "name()": {
        "details": "Returns the name of the token."
      },
      "owner()": {
        "details": "Returns the address of the current owner."
      },
      "renounceOwnership()": {
        "details": "Leaves the contract without owner. It will not be possible to call `onlyOwner` functions anymore. Can only be called by the current owner. NOTE: Renouncing ownership will leave the contract without an owner, thereby removing any functionality that is only available to the owner."
      },
      "symbol()": {
        "details": "Returns the symbol of the token, usually a shorter version of the name."
      },
      "totalSupply()": {
        "details": "See {IERC20-totalSupply}."
      },
      "transfer(address,uint256)": {
        "details": "See {IERC20-transfer}. Requirements: - `recipient` cannot be the zero address. - the caller must have a balance of at least `amount`."
      },
      "transferFrom(address,address,uint256)": {
        "details": "See {IERC20-transferFrom}. Emits an {Approval} event indicating the updated allowance. This is not required by the EIP. See the note at the beginning of {ERC20}. Requirements: - `sender` and `recipient` cannot be the zero address. - `sender` must have a balance of at least `amount`. - the caller must have allowance for ``sender``'s tokens of at least `amount`."
      },
      "transferOwnership(address)": {
        "details": "Transfers ownership of the contract to a new account (`newOwner`). Can only be called by the current owner."
      }
    },
    "version": 1
  },
  "userdoc": {
    "kind": "user",
    "methods": {
      "distributeReward(address)": {
        "notice": "distribute to reward pool (only once)"
      }
    },
    "version": 1
  },
  "storageLayout": {
    "storage": [
      {
        "astId": 557,
        "contract": "contracts/LShare.sol:LShare",
        "label": "_balances",
        "offset": 0,
        "slot": "0",
        "type": "t_mapping(t_address,t_uint256)"
      },
      {
        "astId": 563,
        "contract": "contracts/LShare.sol:LShare",
        "label": "_allowances",
        "offset": 0,
        "slot": "1",
        "type": "t_mapping(t_address,t_mapping(t_address,t_uint256))"
      },
      {
        "astId": 565,
        "contract": "contracts/LShare.sol:LShare",
        "label": "_totalSupply",
        "offset": 0,
        "slot": "2",
        "type": "t_uint256"
      },
      {
        "astId": 567,
        "contract": "contracts/LShare.sol:LShare",
        "label": "_name",
        "offset": 0,
        "slot": "3",
        "type": "t_string_storage"
      },
      {
        "astId": 569,
        "contract": "contracts/LShare.sol:LShare",
        "label": "_symbol",
        "offset": 0,
        "slot": "4",
        "type": "t_string_storage"
      },
      {
        "astId": 571,
        "contract": "contracts/LShare.sol:LShare",
        "label": "_decimals",
        "offset": 0,
        "slot": "5",
        "type": "t_uint8"
      },
      {
        "astId": 10,
        "contract": "contracts/LShare.sol:LShare",
        "label": "_owner",
        "offset": 1,
        "slot": "5",
        "type": "t_address"
      },
      {
        "astId": 11571,
        "contract": "contracts/LShare.sol:LShare",
        "label": "_operator",
        "offset": 0,
        "slot": "6",
        "type": "t_address"
      },
      {
        "astId": 2716,
        "contract": "contracts/LShare.sol:LShare",
        "label": "startTime",
        "offset": 0,
        "slot": "7",
        "type": "t_uint256"
      },
      {
        "astId": 2718,
        "contract": "contracts/LShare.sol:LShare",
        "label": "endTime",
        "offset": 0,
        "slot": "8",
        "type": "t_uint256"
      },
      {
        "astId": 2720,
        "contract": "contracts/LShare.sol:LShare",
        "label": "communityFundRewardRate",
        "offset": 0,
        "slot": "9",
        "type": "t_uint256"
      },
      {
        "astId": 2722,
        "contract": "contracts/LShare.sol:LShare",
        "label": "treasuryFundRewardRate",
        "offset": 0,
        "slot": "10",
        "type": "t_uint256"
      },
      {
        "astId": 2724,
        "contract": "contracts/LShare.sol:LShare",
        "label": "devFundRewardRate",
        "offset": 0,
        "slot": "11",
        "type": "t_uint256"
      },
      {
        "astId": 2726,
        "contract": "contracts/LShare.sol:LShare",
        "label": "treasuryFund",
        "offset": 0,
        "slot": "12",
        "type": "t_address"
      },
      {
        "astId": 2728,
        "contract": "contracts/LShare.sol:LShare",
        "label": "communityFund",
        "offset": 0,
        "slot": "13",
        "type": "t_address"
      },
      {
        "astId": 2730,
        "contract": "contracts/LShare.sol:LShare",
        "label": "devFund",
        "offset": 0,
        "slot": "14",
        "type": "t_address"
      },
      {
        "astId": 2732,
        "contract": "contracts/LShare.sol:LShare",
        "label": "lastClaimedTime",
        "offset": 0,
        "slot": "15",
        "type": "t_uint256"
      },
      {
        "astId": 2735,
        "contract": "contracts/LShare.sol:LShare",
        "label": "rewardPoolDistributed",
        "offset": 0,
        "slot": "16",
        "type": "t_bool"
      }
    ],
    "types": {
      "t_address": {
        "encoding": "inplace",
        "label": "address",
        "numberOfBytes": "20"
      },
      "t_bool": {
        "encoding": "inplace",
        "label": "bool",
        "numberOfBytes": "1"
      },
      "t_mapping(t_address,t_mapping(t_address,t_uint256))": {
        "encoding": "mapping",
        "key": "t_address",
        "label": "mapping(address => mapping(address => uint256))",
        "numberOfBytes": "32",
        "value": "t_mapping(t_address,t_uint256)"
      },
      "t_mapping(t_address,t_uint256)": {
        "encoding": "mapping",
        "key": "t_address",
        "label": "mapping(address => uint256)",
        "numberOfBytes": "32",
        "value": "t_uint256"
      },
      "t_string_storage": {
        "encoding": "bytes",
        "label": "string",
        "numberOfBytes": "32"
      },
      "t_uint256": {
        "encoding": "inplace",
        "label": "uint256",
        "numberOfBytes": "32"
      },
      "t_uint8": {
        "encoding": "inplace",
        "label": "uint8",
        "numberOfBytes": "1"
      }
    }
  }
}