{
  "address": "0xfFcd3ea30323455790EC2Ae93201d45e7db29eb9",
  "abi": [
    {
      "inputs": [
        {
          "internalType": "address",
          "name": "_lshare",
          "type": "address"
        },
        {
          "internalType": "uint256",
          "name": "_poolStartTime",
          "type": "uint256"
        }
      ],
      "stateMutability": "nonpayable",
      "type": "constructor"
    },
    {
      "anonymous": false,
      "inputs": [
        {
          "indexed": true,
          "internalType": "address",
          "name": "user",
          "type": "address"
        },
        {
          "indexed": true,
          "internalType": "uint256",
          "name": "pid",
          "type": "uint256"
        },
        {
          "indexed": false,
          "internalType": "uint256",
          "name": "amount",
          "type": "uint256"
        }
      ],
      "name": "Deposit",
      "type": "event"
    },
    {
      "anonymous": false,
      "inputs": [
        {
          "indexed": true,
          "internalType": "address",
          "name": "user",
          "type": "address"
        },
        {
          "indexed": true,
          "internalType": "uint256",
          "name": "pid",
          "type": "uint256"
        },
        {
          "indexed": false,
          "internalType": "uint256",
          "name": "amount",
          "type": "uint256"
        }
      ],
      "name": "EmergencyWithdraw",
      "type": "event"
    },
    {
      "anonymous": false,
      "inputs": [
        {
          "indexed": true,
          "internalType": "address",
          "name": "user",
          "type": "address"
        },
        {
          "indexed": false,
          "internalType": "uint256",
          "name": "amount",
          "type": "uint256"
        }
      ],
      "name": "RewardPaid",
      "type": "event"
    },
    {
      "anonymous": false,
      "inputs": [
        {
          "indexed": true,
          "internalType": "address",
          "name": "user",
          "type": "address"
        },
        {
          "indexed": true,
          "internalType": "uint256",
          "name": "pid",
          "type": "uint256"
        },
        {
          "indexed": false,
          "internalType": "uint256",
          "name": "amount",
          "type": "uint256"
        }
      ],
      "name": "Withdraw",
      "type": "event"
    },
    {
      "inputs": [],
      "name": "TOTAL_REWARDS",
      "outputs": [
        {
          "internalType": "uint256",
          "name": "",
          "type": "uint256"
        }
      ],
      "stateMutability": "view",
      "type": "function"
    },
    {
      "inputs": [
        {
          "internalType": "uint256",
          "name": "_allocPoint",
          "type": "uint256"
        },
        {
          "internalType": "contract IERC20",
          "name": "_token",
          "type": "address"
        },
        {
          "internalType": "bool",
          "name": "_withUpdate",
          "type": "bool"
        },
        {
          "internalType": "uint256",
          "name": "_lastRewardTime",
          "type": "uint256"
        }
      ],
      "name": "add",
      "outputs": [],
      "stateMutability": "nonpayable",
      "type": "function"
    },
    {
      "inputs": [
        {
          "internalType": "uint256",
          "name": "_pid",
          "type": "uint256"
        },
        {
          "internalType": "uint256",
          "name": "_amount",
          "type": "uint256"
        }
      ],
      "name": "deposit",
      "outputs": [],
      "stateMutability": "nonpayable",
      "type": "function"
    },
    {
      "inputs": [
        {
          "internalType": "uint256",
          "name": "_pid",
          "type": "uint256"
        }
      ],
      "name": "emergencyWithdraw",
      "outputs": [],
      "stateMutability": "nonpayable",
      "type": "function"
    },
    {
      "inputs": [
        {
          "internalType": "uint256",
          "name": "_fromTime",
          "type": "uint256"
        },
        {
          "internalType": "uint256",
          "name": "_toTime",
          "type": "uint256"
        }
      ],
      "name": "getGeneratedReward",
      "outputs": [
        {
          "internalType": "uint256",
          "name": "",
          "type": "uint256"
        }
      ],
      "stateMutability": "view",
      "type": "function"
    },
    {
      "inputs": [
        {
          "internalType": "contract IERC20",
          "name": "_token",
          "type": "address"
        },
        {
          "internalType": "uint256",
          "name": "amount",
          "type": "uint256"
        },
        {
          "internalType": "address",
          "name": "to",
          "type": "address"
        }
      ],
      "name": "governanceRecoverUnsupported",
      "outputs": [],
      "stateMutability": "nonpayable",
      "type": "function"
    },
    {
      "inputs": [],
      "name": "lSharePerSecond",
      "outputs": [
        {
          "internalType": "uint256",
          "name": "",
          "type": "uint256"
        }
      ],
      "stateMutability": "view",
      "type": "function"
    },
    {
      "inputs": [],
      "name": "lshare",
      "outputs": [
        {
          "internalType": "contract IERC20",
          "name": "",
          "type": "address"
        }
      ],
      "stateMutability": "view",
      "type": "function"
    },
    {
      "inputs": [],
      "name": "massUpdatePools",
      "outputs": [],
      "stateMutability": "nonpayable",
      "type": "function"
    },
    {
      "inputs": [],
      "name": "operator",
      "outputs": [
        {
          "internalType": "address",
          "name": "",
          "type": "address"
        }
      ],
      "stateMutability": "view",
      "type": "function"
    },
    {
      "inputs": [
        {
          "internalType": "uint256",
          "name": "_pid",
          "type": "uint256"
        },
        {
          "internalType": "address",
          "name": "_user",
          "type": "address"
        }
      ],
      "name": "pendingShare",
      "outputs": [
        {
          "internalType": "uint256",
          "name": "",
          "type": "uint256"
        }
      ],
      "stateMutability": "view",
      "type": "function"
    },
    {
      "inputs": [],
      "name": "poolEndTime",
      "outputs": [
        {
          "internalType": "uint256",
          "name": "",
          "type": "uint256"
        }
      ],
      "stateMutability": "view",
      "type": "function"
    },
    {
      "inputs": [
        {
          "internalType": "uint256",
          "name": "",
          "type": "uint256"
        }
      ],
      "name": "poolInfo",
      "outputs": [
        {
          "internalType": "contract IERC20",
          "name": "token",
          "type": "address"
        },
        {
          "internalType": "uint256",
          "name": "allocPoint",
          "type": "uint256"
        },
        {
          "internalType": "uint256",
          "name": "lastRewardTime",
          "type": "uint256"
        },
        {
          "internalType": "uint256",
          "name": "accLSharePerShare",
          "type": "uint256"
        },
        {
          "internalType": "bool",
          "name": "isStarted",
          "type": "bool"
        }
      ],
      "stateMutability": "view",
      "type": "function"
    },
    {
      "inputs": [],
      "name": "poolStartTime",
      "outputs": [
        {
          "internalType": "uint256",
          "name": "",
          "type": "uint256"
        }
      ],
      "stateMutability": "view",
      "type": "function"
    },
    {
      "inputs": [],
      "name": "runningTime",
      "outputs": [
        {
          "internalType": "uint256",
          "name": "",
          "type": "uint256"
        }
      ],
      "stateMutability": "view",
      "type": "function"
    },
    {
      "inputs": [
        {
          "internalType": "uint256",
          "name": "_pid",
          "type": "uint256"
        },
        {
          "internalType": "uint256",
          "name": "_allocPoint",
          "type": "uint256"
        }
      ],
      "name": "set",
      "outputs": [],
      "stateMutability": "nonpayable",
      "type": "function"
    },
    {
      "inputs": [
        {
          "internalType": "address",
          "name": "_operator",
          "type": "address"
        }
      ],
      "name": "setOperator",
      "outputs": [],
      "stateMutability": "nonpayable",
      "type": "function"
    },
    {
      "inputs": [],
      "name": "totalAllocPoint",
      "outputs": [
        {
          "internalType": "uint256",
          "name": "",
          "type": "uint256"
        }
      ],
      "stateMutability": "view",
      "type": "function"
    },
    {
      "inputs": [
        {
          "internalType": "uint256",
          "name": "_pid",
          "type": "uint256"
        }
      ],
      "name": "updatePool",
      "outputs": [],
      "stateMutability": "nonpayable",
      "type": "function"
    },
    {
      "inputs": [
        {
          "internalType": "uint256",
          "name": "",
          "type": "uint256"
        },
        {
          "internalType": "address",
          "name": "",
          "type": "address"
        }
      ],
      "name": "userInfo",
      "outputs": [
        {
          "internalType": "uint256",
          "name": "amount",
          "type": "uint256"
        },
        {
          "internalType": "uint256",
          "name": "rewardDebt",
          "type": "uint256"
        }
      ],
      "stateMutability": "view",
      "type": "function"
    },
    {
      "inputs": [
        {
          "internalType": "uint256",
          "name": "_pid",
          "type": "uint256"
        },
        {
          "internalType": "uint256",
          "name": "_amount",
          "type": "uint256"
        }
      ],
      "name": "withdraw",
      "outputs": [],
      "stateMutability": "nonpayable",
      "type": "function"
    }
  ],
  "transactionHash": "0xc2f5fd582549b3cc25e2a505b4efefd702ad23535c07600d1a9a7313934c4f5f",
  "args": [
    "0x246cd2e709b5F7313e1228e19e010EACD90fCf31",
    1654999200
  ],
  "numDeployments": 1,
  "solcInputHash": "78cc77687b1707c0d293282b6e2fe0dd",
  "bytecode": "0x6080604052600060045566050e7986dcc4006007556301e7cb0060085534801561002857600080fd5b506040516119423803806119428339818101604052604081101561004b57600080fd5b508051602090910151428111610091576040805162461bcd60e51b815260206004808301919091526024820152636c61746560e01b604482015290519081900360640190fd5b6001600160a01b038216156100bc57600180546001600160a01b0319166001600160a01b0384161790555b60058190556008540160065550600080546001600160a01b03191633179055611858806100ea6000396000f3fe608060405234801561001057600080fd5b50600436106101775760003560e01c8063570ca735116100d857806393f1a40b1161008c578063b3ab15fb11610066578063b3ab15fb146103a0578063cf4b55cb146103c6578063e2bbb158146103f257610177565b806393f1a40b14610319578063943f013d1461035e57806396805e541461036657610177565b80635f96dc11116100bd5780635f96dc1114610301578063630b5ba1146103095780636e271dd51461031157610177565b8063570ca735146102d55780635b023168146102f957610177565b8063231f0c6a1161012f57806351eb05a61161011457806351eb05a6146102655780635312ea8e1461028257806354575af41461029f57610177565b8063231f0c6a1461021f578063441a3e701461024257610177565b806317caf6f11161016057806317caf6f1146101ea5780631880e7e4146101f25780631ab06ee5146101fa57610177565b806309cf60911461017c5780631526fe2714610196575b600080fd5b610184610415565b60408051918252519081900360200190f35b6101b3600480360360208110156101ac57600080fd5b5035610423565b604080516001600160a01b039096168652602086019490945284840192909252606084015215156080830152519081900360a00190f35b61018461046e565b610184610474565b61021d6004803603604081101561021057600080fd5b508035906020013561047a565b005b6101846004803603604081101561023557600080fd5b5080359060200135610528565b61021d6004803603604081101561025857600080fd5b50803590602001356105ed565b61021d6004803603602081101561027b57600080fd5b50356107b5565b61021d6004803603602081101561029857600080fd5b5035610913565b61021d600480360360608110156102b557600080fd5b506001600160a01b038135811691602081013591604090910135166109af565b6102dd610b21565b604080516001600160a01b039092168252519081900360200190f35b6102dd610b30565b610184610b3f565b61021d610b45565b610184610b68565b6103456004803603604081101561032f57600080fd5b50803590602001356001600160a01b0316610b6e565b6040805192835260208301919091528051918290030190f35b610184610b92565b61021d6004803603608081101561037c57600080fd5b508035906001600160a01b0360208201351690604081013515159060600135610b98565b61021d600480360360208110156103b657600080fd5b50356001600160a01b0316610da2565b610184600480360360408110156103dc57600080fd5b50803590602001356001600160a01b0316610e1a565b61021d6004803603604081101561040857600080fd5b5080359060200135610f76565b6909a28f5862ab1170000081565b6002818154811061043057fe5b6000918252602090912060059091020180546001820154600283015460038401546004909401546001600160a01b0390931694509092909160ff1685565b60045481565b60075481565b6000546001600160a01b031633146104c35760405162461bcd60e51b815260040180806020018281038252602c815260200180611786602c913960400191505060405180910390fd5b6104cb610b45565b6000600283815481106104da57fe5b60009182526020909120600590910201600481015490915060ff16156105215761051d8261051783600101546004546110e690919063ffffffff16565b90611143565b6004555b6001015550565b6000818310610539575060006105e7565b60065482106105a1576006548310610553575060006105e7565b60055483116105865761057f6007546105796005546006546110e690919063ffffffff16565b906111a4565b90506105e7565b61057f600754610579856006546110e690919063ffffffff16565b60055482116105b2575060006105e7565b60055483116105d65761057f600754610579600554856110e690919063ffffffff16565b60075461057f9061057984866110e6565b92915050565b600033905060006002848154811061060157fe5b600091825260208083208784526003825260408085206001600160a01b03881686529092529220805460059092029092019250841115610688576040805162461bcd60e51b815260206004820152601260248201527f77697468647261773a206e6f7420676f6f640000000000000000000000000000604482015290519081900360640190fd5b610691856107b5565b60006106ce82600101546106c8670de0b6b3a76400006106c2876003015487600001546111a490919063ffffffff16565b906111fd565b906110e6565b90508015610720576106e08482611264565b6040805182815290516001600160a01b038616917fe2403640ba68fed3a2f88b7557551d1993f84b99bb10ff833f0cf8db0c5e0486919081900360200190a25b841561074a57815461073290866110e6565b8255825461074a906001600160a01b0316858761131a565b6003830154825461076891670de0b6b3a7640000916106c2916111a4565b600183015560408051868152905187916001600160a01b038716917ff279e6a1f5e320cca91135676d9cb6e44ca8a08c0b88342bcdb1144f6511b5689181900360200190a3505050505050565b6000600282815481106107c457fe5b90600052602060002090600502019050806002015442116107e55750610910565b8054604080516370a0823160e01b815230600482015290516000926001600160a01b0316916370a08231916024808301926020929190829003018186803b15801561082f57600080fd5b505afa158015610843573d6000803e3d6000fd5b505050506040513d602081101561085957600080fd5b505190508061086f575042600290910155610910565b600482015460ff166108a0576004808301805460ff19166001908117909155830154905461089c91611143565b6004555b600454156109075760006108b8836002015442610528565b905060006108d96004546106c28660010154856111a490919063ffffffff16565b90506108ff6108f4846106c284670de0b6b3a76400006111a4565b600386015490611143565b600385015550505b50426002909101555b50565b60006002828154811061092257fe5b600091825260208083208584526003825260408085203380875293528420805485825560018201959095556005909302018054909450919291610972916001600160a01b0391909116908361131a565b604080518281529051859133917fbb757047c2b5f3974fe26b7c10f732e7bce710b0952a71082702781e62ae05959181900360200190a350505050565b6000546001600160a01b031633146109f85760405162461bcd60e51b815260040180806020018281038252602c815260200180611786602c913960400191505060405180910390fd5b6006546276a70001421015610b08576001546001600160a01b0384811691161415610a6a576040805162461bcd60e51b815260206004820152600660248201527f6c73686172650000000000000000000000000000000000000000000000000000604482015290519081900360640190fd5b60025460005b81811015610b0557600060028281548110610a8757fe5b6000918252602090912060059091020180549091506001600160a01b0387811691161415610afc576040805162461bcd60e51b815260206004820152600a60248201527f706f6f6c2e746f6b656e00000000000000000000000000000000000000000000604482015290519081900360640190fd5b50600101610a70565b50505b610b1c6001600160a01b038416828461131a565b505050565b6000546001600160a01b031681565b6001546001600160a01b031681565b60055481565b60025460005b81811015610b6457610b5c816107b5565b600101610b4b565b5050565b60065481565b60036020908152600092835260408084209091529082529020805460019091015482565b60085481565b6000546001600160a01b03163314610be15760405162461bcd60e51b815260040180806020018281038252602c815260200180611786602c913960400191505060405180910390fd5b610bea8361139a565b8115610bf857610bf8610b45565b600554421015610c245780610c105750600554610c1f565b600554811015610c1f57506005545b610c38565b801580610c3057504281105b15610c385750425b600060055482111580610c4b5750428211155b6040805160a0810182526001600160a01b03878116825260208201898152928201868152600060608401818152861580156080870190815260028054600181018255945295517f405787fa12a823e0f2b7631cc41b3ba8828b3321ca811111fa75cd3aa3bb5ace6005909402938401805473ffffffffffffffffffffffffffffffffffffffff1916919096161790945594517f405787fa12a823e0f2b7631cc41b3ba8828b3321ca811111fa75cd3aa3bb5acf82015590517f405787fa12a823e0f2b7631cc41b3ba8828b3321ca811111fa75cd3aa3bb5ad082015592517f405787fa12a823e0f2b7631cc41b3ba8828b3321ca811111fa75cd3aa3bb5ad184015590517f405787fa12a823e0f2b7631cc41b3ba8828b3321ca811111fa75cd3aa3bb5ad2909201805460ff191692151592909217909155909150610d9b57600454610d979086611143565b6004555b5050505050565b6000546001600160a01b03163314610deb5760405162461bcd60e51b815260040180806020018281038252602c815260200180611786602c913960400191505060405180910390fd5b6000805473ffffffffffffffffffffffffffffffffffffffff19166001600160a01b0392909216919091179055565b60008060028481548110610e2a57fe5b60009182526020808320878452600380835260408086206001600160a01b03808b168852908552818720600590960290930191820154825482516370a0823160e01b815230600482015292519398509596909590949316926370a0823192602480840193829003018186803b158015610ea257600080fd5b505afa158015610eb6573d6000803e3d6000fd5b505050506040513d6020811015610ecc57600080fd5b5051600285015490915042118015610ee357508015155b15610f40576000610ef8856002015442610528565b90506000610f196004546106c28860010154856111a490919063ffffffff16565b9050610f3b610f34846106c284670de0b6b3a76400006111a4565b8590611143565b935050505b610f6b83600101546106c8670de0b6b3a76400006106c28688600001546111a490919063ffffffff16565b979650505050505050565b6000339050600060028481548110610f8a57fe5b600091825260208083208784526003825260408085206001600160a01b0388168652909252922060059091029091019150610fc4856107b5565b805415611050576000610ffc82600101546106c8670de0b6b3a76400006106c2876003015487600001546111a490919063ffffffff16565b9050801561104e5761100e8482611264565b6040805182815290516001600160a01b038616917fe2403640ba68fed3a2f88b7557551d1993f84b99bb10ff833f0cf8db0c5e0486919081900360200190a25b505b831561107c57815461106d906001600160a01b0316843087611434565b80546110799085611143565b81555b6003820154815461109a91670de0b6b3a7640000916106c2916111a4565b600182015560408051858152905186916001600160a01b038616917f90890809c654f11d6e72a28fa60149770a0d11ec6c92319d6ceb2bb0a4ea1a159181900360200190a35050505050565b60008282111561113d576040805162461bcd60e51b815260206004820152601e60248201527f536166654d6174683a207375627472616374696f6e206f766572666c6f770000604482015290519081900360640190fd5b50900390565b60008282018381101561119d576040805162461bcd60e51b815260206004820152601b60248201527f536166654d6174683a206164646974696f6e206f766572666c6f770000000000604482015290519081900360640190fd5b9392505050565b6000826111b3575060006105e7565b828202828482816111c057fe5b041461119d5760405162461bcd60e51b81526004018080602001828103825260218152602001806117d86021913960400191505060405180910390fd5b6000808211611253576040805162461bcd60e51b815260206004820152601a60248201527f536166654d6174683a206469766973696f6e206279207a65726f000000000000604482015290519081900360640190fd5b81838161125c57fe5b049392505050565b600154604080516370a0823160e01b815230600482015290516000926001600160a01b0316916370a08231916024808301926020929190829003018186803b1580156112af57600080fd5b505afa1580156112c3573d6000803e3d6000fd5b505050506040513d60208110156112d957600080fd5b505190508015610b1c578082111561130757600154611302906001600160a01b0316848361131a565b610b1c565b600154610b1c906001600160a01b031684845b604080516001600160a01b038416602482015260448082018490528251808303909101815260649091019091526020810180517bffffffffffffffffffffffffffffffffffffffffffffffffffffffff167fa9059cbb00000000000000000000000000000000000000000000000000000000179052610b1c9084906114c2565b60025460005b81811015610b1c57826001600160a01b0316600282815481106113bf57fe5b60009182526020909120600590910201546001600160a01b0316141561142c576040805162461bcd60e51b815260206004820181905260248201527f4c5368617265526577617264506f6f6c3a206578697374696e6720706f6f6c3f604482015290519081900360640190fd5b6001016113a0565b604080516001600160a01b0380861660248301528416604482015260648082018490528251808303909101815260849091019091526020810180517bffffffffffffffffffffffffffffffffffffffffffffffffffffffff167f23b872dd000000000000000000000000000000000000000000000000000000001790526114bc9085906114c2565b50505050565b6060611517826040518060400160405280602081526020017f5361666545524332303a206c6f772d6c6576656c2063616c6c206661696c6564815250856001600160a01b03166115739092919063ffffffff16565b805190915015610b1c5780806020019051602081101561153657600080fd5b5051610b1c5760405162461bcd60e51b815260040180806020018281038252602a8152602001806117f9602a913960400191505060405180910390fd5b6060611582848460008561158a565b949350505050565b6060824710156115cb5760405162461bcd60e51b81526004018080602001828103825260268152602001806117b26026913960400191505060405180910390fd5b6115d4856116db565b611625576040805162461bcd60e51b815260206004820152601d60248201527f416464726573733a2063616c6c20746f206e6f6e2d636f6e7472616374000000604482015290519081900360640190fd5b60006060866001600160a01b031685876040518082805190602001908083835b602083106116645780518252601f199092019160209182019101611645565b6001836020036101000a03801982511681845116808217855250505050505090500191505060006040518083038185875af1925050503d80600081146116c6576040519150601f19603f3d011682016040523d82523d6000602084013e6116cb565b606091505b5091509150610f6b8282866116e1565b3b151590565b606083156116f057508161119d565b8251156117005782518084602001fd5b8160405162461bcd60e51b81526004018080602001828103825283818151815260200191508051906020019080838360005b8381101561174a578181015183820152602001611732565b50505050905090810190601f1680156117775780820380516001836020036101000a031916815260200191505b509250505060405180910390fdfe4c5368617265526577617264506f6f6c3a2063616c6c6572206973206e6f7420746865206f70657261746f72416464726573733a20696e73756666696369656e742062616c616e636520666f722063616c6c536166654d6174683a206d756c7469706c69636174696f6e206f766572666c6f775361666545524332303a204552433230206f7065726174696f6e20646964206e6f742073756363656564a2646970667358221220d978651a922eb1b4122f8d5c7c62bd82dec17dd04c3a401a5bdfe0c2fa78b59864736f6c634300060c0033"
}