{
  "address": "0x622756AFEEf018Cc97A5AA1d4d43A1fD86B3C0cf",
  "abi": [
    {
      "anonymous": false,
      "inputs": [
        {
          "indexed": false,
          "internalType": "uint256",
          "name": "timestamp",
          "type": "uint256"
        },
        {
          "indexed": false,
          "internalType": "uint256",
          "name": "seigniorage",
          "type": "uint256"
        }
      ],
      "name": "BoardroomFunded",
      "type": "event"
    },
    {
      "anonymous": false,
      "inputs": [
        {
          "indexed": true,
          "internalType": "address",
          "name": "from",
          "type": "address"
        },
        {
          "indexed": false,
          "internalType": "uint256",
          "name": "libraAmount",
          "type": "uint256"
        },
        {
          "indexed": false,
          "internalType": "uint256",
          "name": "bondAmount",
          "type": "uint256"
        }
      ],
      "name": "BoughtBonds",
      "type": "event"
    },
    {
      "anonymous": false,
      "inputs": [
        {
          "indexed": true,
          "internalType": "address",
          "name": "from",
          "type": "address"
        },
        {
          "indexed": false,
          "internalType": "uint256",
          "name": "bondAmount",
          "type": "uint256"
        }
      ],
      "name": "BurnedBonds",
      "type": "event"
    },
    {
      "anonymous": false,
      "inputs": [
        {
          "indexed": false,
          "internalType": "uint256",
          "name": "timestamp",
          "type": "uint256"
        },
        {
          "indexed": false,
          "internalType": "uint256",
          "name": "seigniorage",
          "type": "uint256"
        }
      ],
      "name": "DaoFundFunded",
      "type": "event"
    },
    {
      "anonymous": false,
      "inputs": [
        {
          "indexed": false,
          "internalType": "uint256",
          "name": "timestamp",
          "type": "uint256"
        },
        {
          "indexed": false,
          "internalType": "uint256",
          "name": "seigniorage",
          "type": "uint256"
        }
      ],
      "name": "DevFundFunded",
      "type": "event"
    },
    {
      "anonymous": false,
      "inputs": [
        {
          "indexed": true,
          "internalType": "address",
          "name": "executor",
          "type": "address"
        },
        {
          "indexed": false,
          "internalType": "uint256",
          "name": "at",
          "type": "uint256"
        }
      ],
      "name": "Initialized",
      "type": "event"
    },
    {
      "anonymous": false,
      "inputs": [
        {
          "indexed": false,
          "internalType": "uint256",
          "name": "timestamp",
          "type": "uint256"
        },
        {
          "indexed": false,
          "internalType": "uint256",
          "name": "seigniorage",
          "type": "uint256"
        }
      ],
      "name": "InsuranceFundFunded",
      "type": "event"
    },
    {
      "anonymous": false,
      "inputs": [
        {
          "indexed": true,
          "internalType": "address",
          "name": "from",
          "type": "address"
        },
        {
          "indexed": false,
          "internalType": "uint256",
          "name": "libraAmount",
          "type": "uint256"
        },
        {
          "indexed": false,
          "internalType": "uint256",
          "name": "bondAmount",
          "type": "uint256"
        }
      ],
      "name": "RedeemedBonds",
      "type": "event"
    },
    {
      "anonymous": false,
      "inputs": [
        {
          "indexed": false,
          "internalType": "uint256",
          "name": "timestamp",
          "type": "uint256"
        },
        {
          "indexed": false,
          "internalType": "uint256",
          "name": "seigniorage",
          "type": "uint256"
        }
      ],
      "name": "TreasuryFunded",
      "type": "event"
    },
    {
      "inputs": [],
      "name": "PERIOD",
      "outputs": [
        {
          "internalType": "uint256",
          "name": "",
          "type": "uint256"
        }
      ],
      "stateMutability": "view",
      "type": "function"
    },
    {
      "inputs": [],
      "name": "allocateSeigniorage",
      "outputs": [],
      "stateMutability": "nonpayable",
      "type": "function"
    },
    {
      "inputs": [],
      "name": "boardroom",
      "outputs": [
        {
          "internalType": "address",
          "name": "",
          "type": "address"
        }
      ],
      "stateMutability": "view",
      "type": "function"
    },
    {
      "inputs": [
        {
          "internalType": "uint256",
          "name": "amount",
          "type": "uint256"
        }
      ],
      "name": "boardroomAllocateSeigniorage",
      "outputs": [],
      "stateMutability": "nonpayable",
      "type": "function"
    },
    {
      "inputs": [
        {
          "internalType": "address",
          "name": "_token",
          "type": "address"
        },
        {
          "internalType": "uint256",
          "name": "_amount",
          "type": "uint256"
        },
        {
          "internalType": "address",
          "name": "_to",
          "type": "address"
        }
      ],
      "name": "boardroomGovernanceRecoverUnsupported",
      "outputs": [],
      "stateMutability": "nonpayable",
      "type": "function"
    },
    {
      "inputs": [
        {
          "internalType": "uint256",
          "name": "_withdrawLockupEpochs",
          "type": "uint256"
        },
        {
          "internalType": "uint256",
          "name": "_rewardLockupEpochs",
          "type": "uint256"
        }
      ],
      "name": "boardroomSetLockUp",
      "outputs": [],
      "stateMutability": "nonpayable",
      "type": "function"
    },
    {
      "inputs": [
        {
          "internalType": "address",
          "name": "_operator",
          "type": "address"
        }
      ],
      "name": "boardroomSetOperator",
      "outputs": [],
      "stateMutability": "nonpayable",
      "type": "function"
    },
    {
      "inputs": [],
      "name": "bondDepletionFloorPercent",
      "outputs": [
        {
          "internalType": "uint256",
          "name": "",
          "type": "uint256"
        }
      ],
      "stateMutability": "view",
      "type": "function"
    },
    {
      "inputs": [],
      "name": "bondSupplyExpansionPercent",
      "outputs": [
        {
          "internalType": "uint256",
          "name": "",
          "type": "uint256"
        }
      ],
      "stateMutability": "view",
      "type": "function"
    },
    {
      "inputs": [],
      "name": "bondTreasury",
      "outputs": [
        {
          "internalType": "address",
          "name": "",
          "type": "address"
        }
      ],
      "stateMutability": "view",
      "type": "function"
    },
    {
      "inputs": [],
      "name": "bootstrapEpochs",
      "outputs": [
        {
          "internalType": "uint256",
          "name": "",
          "type": "uint256"
        }
      ],
      "stateMutability": "view",
      "type": "function"
    },
    {
      "inputs": [],
      "name": "bootstrapSupplyExpansionPercent",
      "outputs": [
        {
          "internalType": "uint256",
          "name": "",
          "type": "uint256"
        }
      ],
      "stateMutability": "view",
      "type": "function"
    },
    {
      "inputs": [
        {
          "internalType": "uint256",
          "name": "_libraAmount",
          "type": "uint256"
        },
        {
          "internalType": "uint256",
          "name": "targetPrice",
          "type": "uint256"
        }
      ],
      "name": "buyBonds",
      "outputs": [],
      "stateMutability": "nonpayable",
      "type": "function"
    },
    {
      "inputs": [],
      "name": "daoFund",
      "outputs": [
        {
          "internalType": "address",
          "name": "",
          "type": "address"
        }
      ],
      "stateMutability": "view",
      "type": "function"
    },
    {
      "inputs": [],
      "name": "daoFundSharedPercent",
      "outputs": [
        {
          "internalType": "uint256",
          "name": "",
          "type": "uint256"
        }
      ],
      "stateMutability": "view",
      "type": "function"
    },
    {
      "inputs": [],
      "name": "devFund",
      "outputs": [
        {
          "internalType": "address",
          "name": "",
          "type": "address"
        }
      ],
      "stateMutability": "view",
      "type": "function"
    },
    {
      "inputs": [],
      "name": "devFundSharedPercent",
      "outputs": [
        {
          "internalType": "uint256",
          "name": "",
          "type": "uint256"
        }
      ],
      "stateMutability": "view",
      "type": "function"
    },
    {
      "inputs": [],
      "name": "discountPercent",
      "outputs": [
        {
          "internalType": "uint256",
          "name": "",
          "type": "uint256"
        }
      ],
      "stateMutability": "view",
      "type": "function"
    },
    {
      "inputs": [],
      "name": "epoch",
      "outputs": [
        {
          "internalType": "uint256",
          "name": "",
          "type": "uint256"
        }
      ],
      "stateMutability": "view",
      "type": "function"
    },
    {
      "inputs": [],
      "name": "epochSupplyContractionLeft",
      "outputs": [
        {
          "internalType": "uint256",
          "name": "",
          "type": "uint256"
        }
      ],
      "stateMutability": "view",
      "type": "function"
    },
    {
      "inputs": [
        {
          "internalType": "uint256",
          "name": "",
          "type": "uint256"
        }
      ],
      "name": "excludedFromTotalSupply",
      "outputs": [
        {
          "internalType": "address",
          "name": "",
          "type": "address"
        }
      ],
      "stateMutability": "view",
      "type": "function"
    },
    {
      "inputs": [],
      "name": "getBondDiscountRate",
      "outputs": [
        {
          "internalType": "uint256",
          "name": "_rate",
          "type": "uint256"
        }
      ],
      "stateMutability": "view",
      "type": "function"
    },
    {
      "inputs": [],
      "name": "getBondPremiumRate",
      "outputs": [
        {
          "internalType": "uint256",
          "name": "_rate",
          "type": "uint256"
        }
      ],
      "stateMutability": "view",
      "type": "function"
    },
    {
      "inputs": [],
      "name": "getBurnableLibraLeft",
      "outputs": [
        {
          "internalType": "uint256",
          "name": "_burnableLibraLeft",
          "type": "uint256"
        }
      ],
      "stateMutability": "view",
      "type": "function"
    },
    {
      "inputs": [],
      "name": "getLibraCirculatingSupply",
      "outputs": [
        {
          "internalType": "uint256",
          "name": "",
          "type": "uint256"
        }
      ],
      "stateMutability": "view",
      "type": "function"
    },
    {
      "inputs": [],
      "name": "getLibraPrice",
      "outputs": [
        {
          "internalType": "uint256",
          "name": "libraPrice",
          "type": "uint256"
        }
      ],
      "stateMutability": "view",
      "type": "function"
    },
    {
      "inputs": [],
      "name": "getLibraUpdatedPrice",
      "outputs": [
        {
          "internalType": "uint256",
          "name": "_libraPrice",
          "type": "uint256"
        }
      ],
      "stateMutability": "view",
      "type": "function"
    },
    {
      "inputs": [],
      "name": "getRedeemableBonds",
      "outputs": [
        {
          "internalType": "uint256",
          "name": "_redeemableBonds",
          "type": "uint256"
        }
      ],
      "stateMutability": "view",
      "type": "function"
    },
    {
      "inputs": [],
      "name": "getReserve",
      "outputs": [
        {
          "internalType": "uint256",
          "name": "",
          "type": "uint256"
        }
      ],
      "stateMutability": "view",
      "type": "function"
    },
    {
      "inputs": [
        {
          "internalType": "contract IERC20",
          "name": "_token",
          "type": "address"
        },
        {
          "internalType": "uint256",
          "name": "_amount",
          "type": "uint256"
        },
        {
          "internalType": "address",
          "name": "_to",
          "type": "address"
        }
      ],
      "name": "governanceRecoverUnsupported",
      "outputs": [],
      "stateMutability": "nonpayable",
      "type": "function"
    },
    {
      "inputs": [
        {
          "internalType": "address",
          "name": "_libra",
          "type": "address"
        },
        {
          "internalType": "address",
          "name": "_lbond",
          "type": "address"
        },
        {
          "internalType": "address",
          "name": "_lshare",
          "type": "address"
        },
        {
          "internalType": "address",
          "name": "_libraOracle",
          "type": "address"
        },
        {
          "internalType": "address",
          "name": "_boardroom",
          "type": "address"
        },
        {
          "internalType": "address",
          "name": "_genesisPool",
          "type": "address"
        },
        {
          "internalType": "address",
          "name": "_bondTreasury",
          "type": "address"
        },
        {
          "internalType": "uint256",
          "name": "_startTime",
          "type": "uint256"
        }
      ],
      "name": "initialize",
      "outputs": [],
      "stateMutability": "nonpayable",
      "type": "function"
    },
    {
      "inputs": [],
      "name": "initialized",
      "outputs": [
        {
          "internalType": "bool",
          "name": "",
          "type": "bool"
        }
      ],
      "stateMutability": "view",
      "type": "function"
    },
    {
      "inputs": [],
      "name": "insuranceFund",
      "outputs": [
        {
          "internalType": "address",
          "name": "",
          "type": "address"
        }
      ],
      "stateMutability": "view",
      "type": "function"
    },
    {
      "inputs": [],
      "name": "insuranceFundSharedPercent",
      "outputs": [
        {
          "internalType": "uint256",
          "name": "",
          "type": "uint256"
        }
      ],
      "stateMutability": "view",
      "type": "function"
    },
    {
      "inputs": [],
      "name": "isInitialized",
      "outputs": [
        {
          "internalType": "bool",
          "name": "",
          "type": "bool"
        }
      ],
      "stateMutability": "view",
      "type": "function"
    },
    {
      "inputs": [],
      "name": "lbond",
      "outputs": [
        {
          "internalType": "address",
          "name": "",
          "type": "address"
        }
      ],
      "stateMutability": "view",
      "type": "function"
    },
    {
      "inputs": [],
      "name": "libra",
      "outputs": [
        {
          "internalType": "address",
          "name": "",
          "type": "address"
        }
      ],
      "stateMutability": "view",
      "type": "function"
    },
    {
      "inputs": [],
      "name": "libraOracle",
      "outputs": [
        {
          "internalType": "address",
          "name": "",
          "type": "address"
        }
      ],
      "stateMutability": "view",
      "type": "function"
    },
    {
      "inputs": [],
      "name": "libraPriceCeiling",
      "outputs": [
        {
          "internalType": "uint256",
          "name": "",
          "type": "uint256"
        }
      ],
      "stateMutability": "view",
      "type": "function"
    },
    {
      "inputs": [],
      "name": "libraPriceOne",
      "outputs": [
        {
          "internalType": "uint256",
          "name": "",
          "type": "uint256"
        }
      ],
      "stateMutability": "view",
      "type": "function"
    },
    {
      "inputs": [],
      "name": "lshare",
      "outputs": [
        {
          "internalType": "address",
          "name": "",
          "type": "address"
        }
      ],
      "stateMutability": "view",
      "type": "function"
    },
    {
      "inputs": [],
      "name": "maxDebtRatioPercent",
      "outputs": [
        {
          "internalType": "uint256",
          "name": "",
          "type": "uint256"
        }
      ],
      "stateMutability": "view",
      "type": "function"
    },
    {
      "inputs": [],
      "name": "maxDiscountRate",
      "outputs": [
        {
          "internalType": "uint256",
          "name": "",
          "type": "uint256"
        }
      ],
      "stateMutability": "view",
      "type": "function"
    },
    {
      "inputs": [
        {
          "internalType": "uint256",
          "name": "",
          "type": "uint256"
        }
      ],
      "name": "maxExpansionTiers",
      "outputs": [
        {
          "internalType": "uint256",
          "name": "",
          "type": "uint256"
        }
      ],
      "stateMutability": "view",
      "type": "function"
    },
    {
      "inputs": [],
      "name": "maxPremiumRate",
      "outputs": [
        {
          "internalType": "uint256",
          "name": "",
          "type": "uint256"
        }
      ],
      "stateMutability": "view",
      "type": "function"
    },
    {
      "inputs": [],
      "name": "maxSupplyContractionPercent",
      "outputs": [
        {
          "internalType": "uint256",
          "name": "",
          "type": "uint256"
        }
      ],
      "stateMutability": "view",
      "type": "function"
    },
    {
      "inputs": [],
      "name": "maxSupplyExpansionPercent",
      "outputs": [
        {
          "internalType": "uint256",
          "name": "",
          "type": "uint256"
        }
      ],
      "stateMutability": "view",
      "type": "function"
    },
    {
      "inputs": [],
      "name": "mintingFactorForPayingDebt",
      "outputs": [
        {
          "internalType": "uint256",
          "name": "",
          "type": "uint256"
        }
      ],
      "stateMutability": "view",
      "type": "function"
    },
    {
      "inputs": [],
      "name": "nextEpochPoint",
      "outputs": [
        {
          "internalType": "uint256",
          "name": "",
          "type": "uint256"
        }
      ],
      "stateMutability": "view",
      "type": "function"
    },
    {
      "inputs": [],
      "name": "operator",
      "outputs": [
        {
          "internalType": "address",
          "name": "",
          "type": "address"
        }
      ],
      "stateMutability": "view",
      "type": "function"
    },
    {
      "inputs": [],
      "name": "premiumPercent",
      "outputs": [
        {
          "internalType": "uint256",
          "name": "",
          "type": "uint256"
        }
      ],
      "stateMutability": "view",
      "type": "function"
    },
    {
      "inputs": [],
      "name": "premiumThreshold",
      "outputs": [
        {
          "internalType": "uint256",
          "name": "",
          "type": "uint256"
        }
      ],
      "stateMutability": "view",
      "type": "function"
    },
    {
      "inputs": [],
      "name": "previousEpochLibraPrice",
      "outputs": [
        {
          "internalType": "uint256",
          "name": "",
          "type": "uint256"
        }
      ],
      "stateMutability": "view",
      "type": "function"
    },
    {
      "inputs": [
        {
          "internalType": "uint256",
          "name": "_bondAmount",
          "type": "uint256"
        },
        {
          "internalType": "uint256",
          "name": "targetPrice",
          "type": "uint256"
        }
      ],
      "name": "redeemBonds",
      "outputs": [],
      "stateMutability": "nonpayable",
      "type": "function"
    },
    {
      "inputs": [],
      "name": "seigniorageExpansionFloorPercent",
      "outputs": [
        {
          "internalType": "uint256",
          "name": "",
          "type": "uint256"
        }
      ],
      "stateMutability": "view",
      "type": "function"
    },
    {
      "inputs": [],
      "name": "seigniorageSaved",
      "outputs": [
        {
          "internalType": "uint256",
          "name": "",
          "type": "uint256"
        }
      ],
      "stateMutability": "view",
      "type": "function"
    },
    {
      "inputs": [
        {
          "internalType": "address",
          "name": "_boardroom",
          "type": "address"
        }
      ],
      "name": "setBoardroom",
      "outputs": [],
      "stateMutability": "nonpayable",
      "type": "function"
    },
    {
      "inputs": [
        {
          "internalType": "uint256",
          "name": "_bondDepletionFloorPercent",
          "type": "uint256"
        }
      ],
      "name": "setBondDepletionFloorPercent",
      "outputs": [],
      "stateMutability": "nonpayable",
      "type": "function"
    },
    {
      "inputs": [
        {
          "internalType": "uint256",
          "name": "_bondSupplyExpansionPercent",
          "type": "uint256"
        }
      ],
      "name": "setBondSupplyExpansionPercent",
      "outputs": [],
      "stateMutability": "nonpayable",
      "type": "function"
    },
    {
      "inputs": [
        {
          "internalType": "address",
          "name": "_bondTreasury",
          "type": "address"
        }
      ],
      "name": "setBondTreasury",
      "outputs": [],
      "stateMutability": "nonpayable",
      "type": "function"
    },
    {
      "inputs": [
        {
          "internalType": "uint256",
          "name": "_bootstrapEpochs",
          "type": "uint256"
        },
        {
          "internalType": "uint256",
          "name": "_bootstrapSupplyExpansionPercent",
          "type": "uint256"
        }
      ],
      "name": "setBootstrap",
      "outputs": [],
      "stateMutability": "nonpayable",
      "type": "function"
    },
    {
      "inputs": [
        {
          "internalType": "uint256",
          "name": "_discountPercent",
          "type": "uint256"
        }
      ],
      "name": "setDiscountPercent",
      "outputs": [],
      "stateMutability": "nonpayable",
      "type": "function"
    },
    {
      "inputs": [
        {
          "internalType": "address",
          "name": "_daoFund",
          "type": "address"
        },
        {
          "internalType": "uint256",
          "name": "_daoFundSharedPercent",
          "type": "uint256"
        },
        {
          "internalType": "address",
          "name": "_devFund",
          "type": "address"
        },
        {
          "internalType": "uint256",
          "name": "_devFundSharedPercent",
          "type": "uint256"
        },
        {
          "internalType": "address",
          "name": "_insuranceFund",
          "type": "address"
        },
        {
          "internalType": "uint256",
          "name": "_insuranceFundSharedPercent",
          "type": "uint256"
        }
      ],
      "name": "setExtraFunds",
      "outputs": [],
      "stateMutability": "nonpayable",
      "type": "function"
    },
    {
      "inputs": [
        {
          "internalType": "address",
          "name": "_libraOracle",
          "type": "address"
        }
      ],
      "name": "setLibraOracle",
      "outputs": [],
      "stateMutability": "nonpayable",
      "type": "function"
    },
    {
      "inputs": [
        {
          "internalType": "uint256",
          "name": "_libraPriceCeiling",
          "type": "uint256"
        }
      ],
      "name": "setLibraPriceCeiling",
      "outputs": [],
      "stateMutability": "nonpayable",
      "type": "function"
    },
    {
      "inputs": [
        {
          "internalType": "uint256",
          "name": "_maxDebtRatioPercent",
          "type": "uint256"
        }
      ],
      "name": "setMaxDebtRatioPercent",
      "outputs": [],
      "stateMutability": "nonpayable",
      "type": "function"
    },
    {
      "inputs": [
        {
          "internalType": "uint256",
          "name": "_maxDiscountRate",
          "type": "uint256"
        }
      ],
      "name": "setMaxDiscountRate",
      "outputs": [],
      "stateMutability": "nonpayable",
      "type": "function"
    },
    {
      "inputs": [
        {
          "internalType": "uint8",
          "name": "_index",
          "type": "uint8"
        },
        {
          "internalType": "uint256",
          "name": "_value",
          "type": "uint256"
        }
      ],
      "name": "setMaxExpansionTiersEntry",
      "outputs": [
        {
          "internalType": "bool",
          "name": "",
          "type": "bool"
        }
      ],
      "stateMutability": "nonpayable",
      "type": "function"
    },
    {
      "inputs": [
        {
          "internalType": "uint256",
          "name": "_maxPremiumRate",
          "type": "uint256"
        }
      ],
      "name": "setMaxPremiumRate",
      "outputs": [],
      "stateMutability": "nonpayable",
      "type": "function"
    },
    {
      "inputs": [
        {
          "internalType": "uint256",
          "name": "_maxSupplyContractionPercent",
          "type": "uint256"
        }
      ],
      "name": "setMaxSupplyContractionPercent",
      "outputs": [],
      "stateMutability": "nonpayable",
      "type": "function"
    },
    {
      "inputs": [
        {
          "internalType": "uint256",
          "name": "_maxSupplyExpansionPercent",
          "type": "uint256"
        }
      ],
      "name": "setMaxSupplyExpansionPercents",
      "outputs": [],
      "stateMutability": "nonpayable",
      "type": "function"
    },
    {
      "inputs": [
        {
          "internalType": "uint256",
          "name": "_mintingFactorForPayingDebt",
          "type": "uint256"
        }
      ],
      "name": "setMintingFactorForPayingDebt",
      "outputs": [],
      "stateMutability": "nonpayable",
      "type": "function"
    },
    {
      "inputs": [
        {
          "internalType": "address",
          "name": "_operator",
          "type": "address"
        }
      ],
      "name": "setOperator",
      "outputs": [],
      "stateMutability": "nonpayable",
      "type": "function"
    },
    {
      "inputs": [
        {
          "internalType": "uint256",
          "name": "_premiumPercent",
          "type": "uint256"
        }
      ],
      "name": "setPremiumPercent",
      "outputs": [],
      "stateMutability": "nonpayable",
      "type": "function"
    },
    {
      "inputs": [
        {
          "internalType": "uint256",
          "name": "_premiumThreshold",
          "type": "uint256"
        }
      ],
      "name": "setPremiumThreshold",
      "outputs": [],
      "stateMutability": "nonpayable",
      "type": "function"
    },
    {
      "inputs": [
        {
          "internalType": "uint8",
          "name": "_index",
          "type": "uint8"
        },
        {
          "internalType": "uint256",
          "name": "_value",
          "type": "uint256"
        }
      ],
      "name": "setSupplyTiersEntry",
      "outputs": [
        {
          "internalType": "bool",
          "name": "",
          "type": "bool"
        }
      ],
      "stateMutability": "nonpayable",
      "type": "function"
    },
    {
      "inputs": [],
      "name": "startTime",
      "outputs": [
        {
          "internalType": "uint256",
          "name": "",
          "type": "uint256"
        }
      ],
      "stateMutability": "view",
      "type": "function"
    },
    {
      "inputs": [
        {
          "internalType": "uint256",
          "name": "",
          "type": "uint256"
        }
      ],
      "name": "supplyTiers",
      "outputs": [
        {
          "internalType": "uint256",
          "name": "",
          "type": "uint256"
        }
      ],
      "stateMutability": "view",
      "type": "function"
    }
  ],
  "transactionHash": "0x8c58da1b21cac2f2b86135b25c9e96eea192bee4c95f11354fe85a98bf8592d0",
  "args": [],
  "numDeployments": 1,
  "solcInputHash": "5ff0caab2602e3e824413af3eaaa01be",
  "bytecode": "0x60806040526001805460ff60a01b191690556000600381905560045534801561002757600080fd5b50614b4f806100376000396000f3fe608060405234801561001057600080fd5b506004361061046a5760003560e01c8063860c31771161024c578063b40d736511610146578063d98f2495116100c3578063f245245a11610087578063f245245a14610a35578063f8cd4d7214610a52578063f921eb3314610a75578063fcb6f00814610a92578063fec3a60114610a9a5761046a565b8063d98f249514610a0d578063da3ed41914610a15578063dfe2f9ee14610a1d578063e90b245414610a25578063f14698de14610a2d5761046a565b8063c5967c261161010a578063c5967c26146109b2578063c8412d02146109ba578063c8f987f3146109c2578063cecce38e146109ca578063d4b14944146109e75761046a565b8063b40d73651461098a578063b4d1d79514610992578063b79023031461099a578063b8a878f9146109a2578063bd20f9af146109aa5761046a565b806399820025116101d4578063a3ec30fe11610198578063a3ec30fe146108da578063aed3ba6b14610910578063b06ce14a14610918578063b3ab15fb1461093e578063b3ffc777146109645761046a565b806399820025146108735780639ab4f775146108905780639f7be32514610898578063a0487eea146108a0578063a204452b146108bd5761046a565b80638d934f741161021b5780638d934f74146107fd578063900cf0cf1461080557806391bbfed51461080d578063940e60641461083057806398b762a1146108565761046a565b8063860c317714610773578063874106cc1461077b57806388301911146107835780638c664db6146107e05761046a565b80634013a08e11610368578063591663e1116102e55780635e02c51e116102a95780635e02c51e1461073657806372c054f91461073e57806378e979251461074657806381d11eaf1461074e57806382cad838146107565761046a565b8063591663e1146106f957806359bf5d39146107165780635a0fc79c1461071e5780635b023168146107265780635b7561791461072e5761046a565b806354575af41161032c57806354575af41461066a57806354f04a11146106a057806355ebdeef146106c3578063570ca735146106cb57806358a69833146106d35761046a565b80634013a08e146105fc57806340af7ba51461060457806342679903146106215780634390d2a814610629578063499f3f191461064d5761046a565b8063154ec2db116103f657806322f832cd116103ba57806322f832cd146105d457806329ef1919146105dc5780632e9c7b65146105e4578063349aa30a146105ec578063392e53cd146105f45761046a565b8063154ec2db14610543578063158ef93e1461056057806316f5ff171461057c578063196dd862146105845780631b0fb35f1461058c5761046a565b80630b5bcec71161043d5780630b5bcec7146104eb5780630cf60175146105085780630db7eb0b146105105780630f25cde514610518578063118ebbf9146105205761046a565b806301a937831461046f57806303be7e761461048e57806304e5c7b1146104a85780630a79c951146104c5575b600080fd5b61048c6004803603602081101561048557600080fd5b5035610aa2565b005b610496610b53565b60408051918252519081900360200190f35b61048c600480360360208110156104be57600080fd5b5035610b59565b61048c600480360360208110156104db57600080fd5b50356001600160a01b0316610c28565b61048c6004803603602081101561050157600080fd5b5035610c93565b610496610d2f565b610496610de1565b610496610e83565b61048c6004803603604081101561053657600080fd5b5080359060200135610e89565b61048c6004803603602081101561055957600080fd5b50356114e6565b61056861158b565b604080519115158252519081900360200190f35b61049661159b565b610496611676565b61048c600480360360c08110156105a257600080fd5b506001600160a01b03813581169160208101359160408201358116916060810135916080820135169060a001356117be565b6104966119f4565b6104966119fa565b610496611a00565b610496611a06565b610568611a0c565b610496611a1c565b61048c6004803603602081101561061a57600080fd5b5035611a22565b610496611ac7565b610631611acd565b604080516001600160a01b039092168252519081900360200190f35b61048c6004803603602081101561066357600080fd5b5035611adc565b61048c6004803603606081101561068057600080fd5b506001600160a01b03813581169160208101359160409091013516611b79565b61048c600480360360408110156106b657600080fd5b5080359060200135611cbd565b6104966123fc565b610631612402565b61048c600480360360208110156106e957600080fd5b50356001600160a01b0316612411565b61048c6004803603602081101561070f57600080fd5b503561247c565b61049661251e565b610496612524565b61063161252a565b61048c612539565b610631612c0e565b610496612c1d565b610496612cd5565b610496612cdb565b6106316004803603602081101561076c57600080fd5b5035612ce1565b610496612d08565b610496612d0e565b61048c600480360361010081101561079a57600080fd5b506001600160a01b038135811691602081013582169160408201358116916060810135821691608082013581169160a081013582169160c0820135169060e00135612d14565b61048c600480360360208110156107f657600080fd5b503561307a565b61063161311c565b61049661312b565b61048c6004803603604081101561082357600080fd5b5080359060200135613131565b6105686004803603604081101561084657600080fd5b5060ff8135169060200135613229565b61048c6004803603602081101561086c57600080fd5b5035613345565b6104966004803603602081101561088957600080fd5b5035613393565b6106316133b1565b6106316133c0565b610496600480360360208110156108b657600080fd5b50356133cf565b61048c600480360360208110156108d357600080fd5b50356133dc565b61048c600480360360608110156108f057600080fd5b506001600160a01b0381358116916020810135916040909101351661342a565b6106316134ed565b61048c6004803603602081101561092e57600080fd5b50356001600160a01b03166134fc565b61048c6004803603602081101561095457600080fd5b50356001600160a01b0316613593565b61048c6004803603602081101561097a57600080fd5b50356001600160a01b03166135fe565b610496613669565b610496613770565b610631613776565b610496613785565b61049661378b565b6104966137ed565b610496613817565b61049661381d565b61048c600480360360208110156109e057600080fd5b5035613823565b610568600480360360408110156109fd57600080fd5b5060ff81351690602001356138c4565b6104966139be565b6104966139c4565b6104966139ca565b6104966139d0565b6104966139d6565b61048c60048036036020811015610a4b57600080fd5b50356139dc565b61048c60048036036040811015610a6857600080fd5b5080359060200135613a2a565b61048c60048036036020811015610a8b57600080fd5b5035613ae3565b610496613b9d565b610631613ba3565b6001546001600160a01b03163314610aeb5760405162461bcd60e51b8152600401808060200182810382526024815260200180614a186024913960400191505060405180910390fd5b600954604080516397ffe1d760e01b81526004810184905290516001600160a01b03909216916397ffe1d79160248082019260009290919082900301818387803b158015610b3857600080fd5b505af1158015610b4c573d6000803e3d6000fd5b5050505050565b60235481565b6001546001600160a01b03163314610ba25760405162461bcd60e51b8152600401808060200182810382526024815260200180614a186024913960400191505060405180910390fd5b600d54811015610be35760405162461bcd60e51b815260040180806020018281038252602b815260200180614880602b913960400191505060405180910390fd5b6096811115610c235760405162461bcd60e51b81526004018080602001828103825260248152602001806148ab6024913960400191505060405180910390fd5b601d55565b6001546001600160a01b03163314610c715760405162461bcd60e51b8152600401808060200182810382526024815260200180614a186024913960400191505060405180910390fd5b600a80546001600160a01b0319166001600160a01b0392909216919091179055565b6001546001600160a01b03163314610cdc5760405162461bcd60e51b8152600401808060200182810382526024815260200180614a186024913960400191505060405180910390fd5b600a8110158015610cef57506103e88111155b610d2a5760405162461bcd60e51b81526004018080602001828103825260288152602001806149c76028913960400191505060405180910390fd5b601155565b600080610d3a61378b565b9050600c548111610ddd57601c54610d5657600c549150610ddd565b6000610d7f82610d79670de0b6b3a7640000600c54613bb290919063ffffffff16565b90613c12565b90506000610daa612710610d79601c54610da4600c5487613c7990919063ffffffff16565b90613bb2565b600c54909150610dba9082613cd6565b93506000601a54118015610dcf5750601a5484115b15610dda57601a5493505b50505b5090565b600080610dec61378b565b9050600d54811115610ddd576000610e166064610d79601d54600c54613bb290919063ffffffff16565b9050808210610e78576000610e42612710610d79601e54610da4600c5488613c7990919063ffffffff16565b600c54909150610e529082613cd6565b93506000601b54118015610e675750601b5484115b15610e7257601b5493505b50610e7e565b600c5492505b505090565b600c5481565b610e91613d30565b15610ecd5760405162461bcd60e51b8152600401808060200182810382526026815260200180614a666026913960400191505060405180910390fd5b610ed5613d4f565b15610f115760405162461bcd60e51b8152600401808060200182810382526026815260200180614a666026913960400191505060405180910390fd5b600254421015610f64576040805162461bcd60e51b8152602060048201526019602482015278151c99585cdd5c9e4e881b9bdd081cdd185c9d1959081e595d603a1b604482015290519081900360640190fd5b6006546040805163570ca73560e01b8152905130926001600160a01b03169163570ca735916004808301926020929190829003018186803b158015610fa857600080fd5b505afa158015610fbc573d6000803e3d6000fd5b505050506040513d6020811015610fd257600080fd5b50516001600160a01b031614801561106057506007546040805163570ca73560e01b8152905130926001600160a01b03169163570ca735916004808301926020929190829003018186803b15801561102957600080fd5b505afa15801561103d573d6000803e3d6000fd5b505050506040513d602081101561105357600080fd5b50516001600160a01b0316145b80156110e257506008546040805163570ca73560e01b8152905130926001600160a01b03169163570ca735916004808301926020929190829003018186803b1580156110ab57600080fd5b505afa1580156110bf573d6000803e3d6000fd5b505050506040513d60208110156110d557600080fd5b50516001600160a01b0316145b801561116457506009546040805163570ca73560e01b8152905130926001600160a01b03169163570ca735916004808301926020929190829003018186803b15801561112d57600080fd5b505afa158015611141573d6000803e3d6000fd5b505050506040513d602081101561115757600080fd5b50516001600160a01b0316145b6111b5576040805162461bcd60e51b815260206004820152601e60248201527f54726561737572793a206e656564206d6f7265207065726d697373696f6e0000604482015290519081900360640190fd5b600082116111f45760405162461bcd60e51b815260040180806020018281038252602e81526020018061481b602e913960400191505060405180910390fd5b60006111fe61378b565b9050818114611254576040805162461bcd60e51b815260206004820152601b60248201527f54726561737572793a204c49425241207072696365206d6f7665640000000000604482015290519081900360640190fd5b600d5481116112945760405162461bcd60e51b815260040180806020018281038252603381526020018061491a6033913960400191505060405180910390fd5b600061129e610de1565b9050600081116112f5576040805162461bcd60e51b815260206004820152601b60248201527f54726561737572793a20696e76616c696420626f6e6420726174650000000000604482015290519081900360640190fd5b600061130d670de0b6b3a7640000610d798785613bb2565b600654604080516370a0823160e01b8152306004820152905192935083926001600160a01b03909216916370a0823191602480820192602092909190829003018186803b15801561135d57600080fd5b505afa158015611371573d6000803e3d6000fd5b505050506040513d602081101561138757600080fd5b505110156113c65760405162461bcd60e51b81526004018080602001828103825260258152602001806148f56025913960400191505060405180910390fd5b6113de6113d5600e5483613d6e565b600e5490613c79565b600e556007546040805163079cc67960e41b81523360048201526024810188905290516001600160a01b03909216916379cc67909160448082019260009290919082900301818387803b15801561143457600080fd5b505af1158015611448573d6000803e3d6000fd5b505060065461146492506001600160a01b031690503383613d84565b61146c613dd6565b6040805182815260208101879052815133927f51e0d16595cabc591e64da08e45bb223577e5b9a39cd947b4ddc3472b2dd8878928290030190a25050436000908152602081815260408083203284529091528082208054600160ff1991821681179092553384529190922080549091169091179055505050565b6001546001600160a01b0316331461152f5760405162461bcd60e51b8152600401808060200182810382526024815260200180614a186024913960400191505060405180910390fd5b614e20811115611586576040805162461bcd60e51b815260206004820152601d60248201527f5f646973636f756e7450657263656e74206973206f7665722032303025000000604482015290519081900360640190fd5b601c55565b600154600160a01b900460ff1681565b600b5460065460408051630d01142560e31b81526001600160a01b039283166004820152670de0b6b3a7640000602482015290516000939290921691636808a12891604480820192602092909190829003018186803b1580156115fd57600080fd5b505afa92505050801561162257506040513d602081101561161d57600080fd5b505160015b61165d5760405162461bcd60e51b81526004018080602001828103825260378152602001806148496037913960400191505060405180910390fd5b71ffffffffffffffffffffffffffffffffffff16905090565b600654604080516318160ddd60e01b815290516000926001600160a01b031691839183916318160ddd916004808301926020929190829003018186803b1580156116bf57600080fd5b505afa1580156116d3573d6000803e3d6000fd5b505050506040513d60208110156116e957600080fd5b505190506000805b60055460ff821610156117ab576117a1846001600160a01b03166370a0823160058460ff168154811061172057fe5b60009182526020918290200154604080516001600160e01b031960e086901b1681526001600160a01b0390921660048301525160248083019392829003018186803b15801561176e57600080fd5b505afa158015611782573d6000803e3d6000fd5b505050506040513d602081101561179857600080fd5b50518390613cd6565b91506001016116f1565b506117b68282613c79565b935050505090565b6001546001600160a01b031633146118075760405162461bcd60e51b8152600401808060200182810382526024815260200180614a186024913960400191505060405180910390fd5b6001600160a01b03861661184b576040805162461bcd60e51b815260206004808301919091526024820152637a65726f60e01b604482015290519081900360640190fd5b610bb8851115611891576040805162461bcd60e51b815260206004820152600c60248201526b6f7574206f662072616e676560a01b604482015290519081900360640190fd5b6001600160a01b0384166118d5576040805162461bcd60e51b815260206004808301919091526024820152637a65726f60e01b604482015290519081900360640190fd5b6103e883111561191b576040805162461bcd60e51b815260206004820152600c60248201526b6f7574206f662072616e676560a01b604482015290519081900360640190fd5b6001600160a01b03821661195f576040805162461bcd60e51b815260206004808301919091526024820152637a65726f60e01b604482015290519081900360640190fd5b6103e88111156119a5576040805162461bcd60e51b815260206004820152600c60248201526b6f7574206f662072616e676560a01b604482015290519081900360640190fd5b602080546001600160a01b03199081166001600160a01b039889161790915560219590955560228054861694871694909417909355602391909155602480549093169316929092179055602555565b60135481565b601c5481565b601b5481565b60165481565b600154600160a01b900460ff1690565b601f5481565b6001546001600160a01b03163314611a6b5760405162461bcd60e51b8152600401808060200182810382526024815260200180614a186024913960400191505060405180910390fd5b614e20811115611ac2576040805162461bcd60e51b815260206004820152601c60248201527f5f7072656d69756d50657263656e74206973206f766572203230302500000000604482015290519081900360640190fd5b601e55565b60195481565b6022546001600160a01b031681565b6001546001600160a01b03163314611b255760405162461bcd60e51b8152600401808060200182810382526024815260200180614a186024913960400191505060405180910390fd5b6127108110158015611b395750614e208111155b611b745760405162461bcd60e51b815260040180806020018281038252602981526020018061499e6029913960400191505060405180910390fd5b601f55565b6001546001600160a01b03163314611bc25760405162461bcd60e51b8152600401808060200182810382526024815260200180614a186024913960400191505060405180910390fd5b6006546001600160a01b0384811691161415611c0d576040805162461bcd60e51b81526020600482015260056024820152646c6962726160d81b604482015290519081900360640190fd5b6007546001600160a01b0384811691161415611c59576040805162461bcd60e51b81526020600480830191909152602482015263189bdb9960e21b604482015290519081900360640190fd5b6008546001600160a01b0384811691161415611ca4576040805162461bcd60e51b8152602060048201526005602482015264736861726560d81b604482015290519081900360640190fd5b611cb86001600160a01b0384168284613d84565b505050565b611cc5613d30565b15611d015760405162461bcd60e51b8152600401808060200182810382526026815260200180614a666026913960400191505060405180910390fd5b611d09613d4f565b15611d455760405162461bcd60e51b8152600401808060200182810382526026815260200180614a666026913960400191505060405180910390fd5b600254421015611d98576040805162461bcd60e51b8152602060048201526019602482015278151c99585cdd5c9e4e881b9bdd081cdd185c9d1959081e595d603a1b604482015290519081900360640190fd5b6006546040805163570ca73560e01b8152905130926001600160a01b03169163570ca735916004808301926020929190829003018186803b158015611ddc57600080fd5b505afa158015611df0573d6000803e3d6000fd5b505050506040513d6020811015611e0657600080fd5b50516001600160a01b0316148015611e9457506007546040805163570ca73560e01b8152905130926001600160a01b03169163570ca735916004808301926020929190829003018186803b158015611e5d57600080fd5b505afa158015611e71573d6000803e3d6000fd5b505050506040513d6020811015611e8757600080fd5b50516001600160a01b0316145b8015611f1657506008546040805163570ca73560e01b8152905130926001600160a01b03169163570ca735916004808301926020929190829003018186803b158015611edf57600080fd5b505afa158015611ef3573d6000803e3d6000fd5b505050506040513d6020811015611f0957600080fd5b50516001600160a01b0316145b8015611f9857506009546040805163570ca73560e01b8152905130926001600160a01b03169163570ca735916004808301926020929190829003018186803b158015611f6157600080fd5b505afa158015611f75573d6000803e3d6000fd5b505050506040513d6020811015611f8b57600080fd5b50516001600160a01b0316145b611fe9576040805162461bcd60e51b815260206004820152601e60248201527f54726561737572793a206e656564206d6f7265207065726d697373696f6e0000604482015290519081900360640190fd5b600082116120285760405162461bcd60e51b815260040180806020018281038252603081526020018061496e6030913960400191505060405180910390fd5b600061203261378b565b9050818114612088576040805162461bcd60e51b815260206004820152601b60248201527f54726561737572793a204c49425241207072696365206d6f7665640000000000604482015290519081900360640190fd5b600c5481106120c85760405162461bcd60e51b815260040180806020018281038252603381526020018061491a6033913960400191505060405180910390fd5b6004548311156121095760405162461bcd60e51b815260040180806020018281038252602a815260200180614ac2602a913960400191505060405180910390fd5b6000612113610d2f565b90506000811161216a576040805162461bcd60e51b815260206004820152601b60248201527f54726561737572793a20696e76616c696420626f6e6420726174650000000000604482015290519081900360640190fd5b6000612182670de0b6b3a7640000610d798785613bb2565b9050600061218e611676565b9050600061221683600760009054906101000a90046001600160a01b03166001600160a01b03166318160ddd6040518163ffffffff1660e01b815260040160206040518083038186803b1580156121e457600080fd5b505afa1580156121f8573d6000803e3d6000fd5b505050506040513d602081101561220e57600080fd5b505190613cd6565b9050612233612710610d7960155485613bb290919063ffffffff16565b81111561227d576040805162461bcd60e51b81526020600482015260136024820152726f766572206d6178206465627420726174696f60681b604482015290519081900360640190fd5b6006546040805163079cc67960e41b8152336004820152602481018a905290516001600160a01b03909216916379cc67909160448082019260009290919082900301818387803b1580156122d057600080fd5b505af11580156122e4573d6000803e3d6000fd5b5050600754604080516340c10f1960e01b81523360048201526024810188905290516001600160a01b0390921693506340c10f1992506044808201926020929091908290030181600087803b15801561233c57600080fd5b505af1158015612350573d6000803e3d6000fd5b505050506040513d602081101561236657600080fd5b50506004546123759088613c79565b600455612380613dd6565b6040805188815260208101859052815133927f73017f1b70789e2e66759eeb3c7ec11f59e6eedb55d921cfaec5410dd42a4799928290030190a25050436000908152602081815260408083203284529091528082208054600160ff19918216811790925533845291909220805490911690911790555050505050565b60215481565b6001546001600160a01b031681565b6001546001600160a01b0316331461245a5760405162461bcd60e51b8152600401808060200182810382526024815260200180614a186024913960400191505060405180910390fd5b600b80546001600160a01b0319166001600160a01b0392909216919091179055565b6001546001600160a01b031633146124c55760405162461bcd60e51b8152600401808060200182810382526024815260200180614a186024913960400191505060405180910390fd5b6103e881101580156124d957506127108111155b612519576040805162461bcd60e51b815260206004820152600c60248201526b6f7574206f662072616e676560a01b604482015290519081900360640190fd5b601555565b600e5490565b600e5481565b6008546001600160a01b031681565b612541613d30565b1561257d5760405162461bcd60e51b8152600401808060200182810382526026815260200180614a666026913960400191505060405180910390fd5b612585613d4f565b156125c15760405162461bcd60e51b8152600401808060200182810382526026815260200180614a666026913960400191505060405180910390fd5b600254421015612614576040805162461bcd60e51b8152602060048201526019602482015278151c99585cdd5c9e4e881b9bdd081cdd185c9d1959081e595d603a1b604482015290519081900360640190fd5b61261c6137ed565b421015612670576040805162461bcd60e51b815260206004820152601860248201527f54726561737572793a206e6f74206f70656e6564207965740000000000000000604482015290519081900360640190fd5b6006546040805163570ca73560e01b8152905130926001600160a01b03169163570ca735916004808301926020929190829003018186803b1580156126b457600080fd5b505afa1580156126c8573d6000803e3d6000fd5b505050506040513d60208110156126de57600080fd5b50516001600160a01b031614801561276c57506007546040805163570ca73560e01b8152905130926001600160a01b03169163570ca735916004808301926020929190829003018186803b15801561273557600080fd5b505afa158015612749573d6000803e3d6000fd5b505050506040513d602081101561275f57600080fd5b50516001600160a01b0316145b80156127ee57506008546040805163570ca73560e01b8152905130926001600160a01b03169163570ca735916004808301926020929190829003018186803b1580156127b757600080fd5b505afa1580156127cb573d6000803e3d6000fd5b505050506040513d60208110156127e157600080fd5b50516001600160a01b0316145b801561287057506009546040805163570ca73560e01b8152905130926001600160a01b03169163570ca735916004808301926020929190829003018186803b15801561283957600080fd5b505afa15801561284d573d6000803e3d6000fd5b505050506040513d602081101561286357600080fd5b50516001600160a01b0316145b6128c1576040805162461bcd60e51b815260206004820152601e60248201527f54726561737572793a206e656564206d6f7265207065726d697373696f6e0000604482015290519081900360640190fd5b6128c9613dd6565b6128d161378b565b601955600e546000906128ec906128e6611676565b90613c79565b905061291161290c612710610d7960165485613bb290919063ffffffff16565b613e3a565b60175460035410156129455761294061293b612710610d7960185485613bb290919063ffffffff16565b613ff0565b612b92565b600d546019541115612b9257600754604080516318160ddd60e01b815290516000926001600160a01b0316916318160ddd916004808301926020929190829003018186803b15801561299657600080fd5b505afa1580156129aa573d6000803e3d6000fd5b505050506040513d60208110156129c057600080fd5b5051600c546019549192506000916129d791613c79565b905060008060006129f1655af3107a4000610da488614330565b9050808411156129ff578093505b612a1a612710610d7960125488613bb290919063ffffffff16565b600e5410612a3f57612a38670de0b6b3a7640000610d798887613bb2565b9150612aab565b6000612a57670de0b6b3a7640000610d798988613bb2565b9050612a74612710610d7960135484613bb290919063ffffffff16565b9250612a808184613c79565b601f5490945015612aa957612aa6612710610d79601f5487613bb290919063ffffffff16565b93505b505b8115612aba57612aba82613ff0565b8215612b8c57600e54612acd9084613cd6565b600e55600654604080516340c10f1960e01b81523060048201526024810186905290516001600160a01b03909216916340c10f19916044808201926020929091908290030181600087803b158015612b2457600080fd5b505af1158015612b38573d6000803e3d6000fd5b505050506040513d6020811015612b4e57600080fd5b5050604080514281526020810185905281517ff705142bf09f04297640495ddf7c59b7fd6f51894c5aea9602d631cf05f0efc2929181900390910190a15b50505050505b50600354612ba1906001613cd6565b600355600d54612baf61378b565b11612bcd57612bc8612710610d79601454610da4611676565b612bd0565b60005b600455436000908152602081815260408083203284529091528082208054600160ff1991821681179092553384529190922080549091169091179055565b6009546001600160a01b031681565b600080612c2861378b565b9050600d54811115610ddd57600654604080516370a0823160e01b815230600482015290516000926001600160a01b0316916370a08231916024808301926020929190829003018186803b158015612c7f57600080fd5b505afa158015612c93573d6000803e3d6000fd5b505050506040513d6020811015612ca957600080fd5b505190506000612cb7610de1565b90508015610dda576117b681610d7984670de0b6b3a7640000613bb2565b60025481565b60125481565b60058181548110612cee57fe5b6000918252602090912001546001600160a01b0316905081565b60255481565b60185481565b600154600160a01b900460ff1615612d73576040805162461bcd60e51b815260206004820152601d60248201527f54726561737572793a20616c726561647920696e697469616c697a6564000000604482015290519081900360640190fd5b600680546001600160a01b03199081166001600160a01b038b8116919091179092556007805482168a8416179055600880548216898416179055600b80548216888416179055600980548216878416179055600a80549091169184169190911790556002819055670de0b6b3a7640000600c819055612dfa90606490610d79906065613bb2565b600d55600580546001818101835560008381527f036b6384b5eca791c62761152d0c79bb0604c104a5fb6f4eb0703f3154bb3db092830180546001600160a01b03808a166001600160a01b0319928316179092558554938401909555919092018054918616919093161790915560408051610120810182529182526969e10de76676d0800000602083015269d3c21bcecceda1000000908201526a013da329b633647180000060608201526a01a784379d99db4200000060808201526a0422ca8b0a00a42500000060a08201526a084595161401484a00000060c08201526a108b2a2c2802909400000060e08201526a295be96e64066972000000610100820152612f0990600f90600961476e565b5060408051610120810182526101c28152610190602082015261015e9181019190915261012c606082015260fa608082015260c860a0820152609660c0820152607d60e08201526064610100820152612f669060109060096147c4565b50610190601155612710601255610dac601381905561012c6014556015556101f46016819055606e601d55611b58601e55600c601755601855600654604080516370a0823160e01b815230600482015290516001600160a01b03909216916370a0823191602480820192602092909190829003018186803b158015612fea57600080fd5b505afa158015612ffe573d6000803e3d6000fd5b505050506040513d602081101561301457600080fd5b5051600e55600180546001600160a01b031960ff60a01b19909116600160a01b1716339081179091556040805143815290517f25ff68dd81b34665b5ba7e553ee5511bf6812e12adb4a7e2c0d9e26b3099ce799181900360200190a25050505050505050565b6001546001600160a01b031633146130c35760405162461bcd60e51b8152600401808060200182810382526024815260200180614a186024913960400191505060405180910390fd5b6101f481101580156130d757506127108111155b613117576040805162461bcd60e51b815260206004820152600c60248201526b6f7574206f662072616e676560a01b604482015290519081900360640190fd5b601255565b6020546001600160a01b031681565b60035481565b6001546001600160a01b0316331461317a5760405162461bcd60e51b8152600401808060200182810382526024815260200180614a186024913960400191505060405180910390fd5b60788211156131d0576040805162461bcd60e51b815260206004820152601e60248201527f5f626f6f74737472617045706f6368733a206f7574206f662072616e67650000604482015290519081900360640190fd5b606481101580156131e357506103e88111155b61321e5760405162461bcd60e51b815260040180806020018281038252602e815260200180614aec602e913960400191505060405180910390fd5b601791909155601855565b6001546000906001600160a01b031633146132755760405162461bcd60e51b8152600401808060200182810382526024815260200180614a186024913960400191505060405180910390fd5b60098360ff16106132b75760405162461bcd60e51b81526004018080602001828103825260298152602001806149ef6029913960400191505060405180910390fd5b60ff8316156132e957600f6001840360ff16815481106132d357fe5b906000526020600020015482116132e957600080fd5b60088360ff16101561331e57600f8360010160ff168154811061330857fe5b9060005260206000200154821061331e57600080fd5b81600f8460ff168154811061332f57fe5b6000918252602090912001555060015b92915050565b6001546001600160a01b0316331461338e5760405162461bcd60e51b8152600401808060200182810382526024815260200180614a186024913960400191505060405180910390fd5b601a55565b600f81815481106133a057fe5b600091825260209091200154905081565b600a546001600160a01b031681565b600b546001600160a01b031681565b601081815481106133a057fe5b6001546001600160a01b031633146134255760405162461bcd60e51b8152600401808060200182810382526024815260200180614a186024913960400191505060405180910390fd5b601b55565b6001546001600160a01b031633146134735760405162461bcd60e51b8152600401808060200182810382526024815260200180614a186024913960400191505060405180910390fd5b60095460408051631515d6bd60e21b81526001600160a01b038681166004830152602482018690528481166044830152915191909216916354575af491606480830192600092919082900301818387803b1580156134d057600080fd5b505af11580156134e4573d6000803e3d6000fd5b50505050505050565b6006546001600160a01b031681565b6001546001600160a01b031633146135455760405162461bcd60e51b8152600401808060200182810382526024815260200180614a186024913960400191505060405180910390fd5b6009546040805163b3ab15fb60e01b81526001600160a01b0384811660048301529151919092169163b3ab15fb91602480830192600092919082900301818387803b158015610b3857600080fd5b6001546001600160a01b031633146135dc5760405162461bcd60e51b8152600401808060200182810382526024815260200180614a186024913960400191505060405180910390fd5b600180546001600160a01b0319166001600160a01b0392909216919091179055565b6001546001600160a01b031633146136475760405162461bcd60e51b8152600401808060200182810382526024815260200180614a186024913960400191505060405180910390fd5b600980546001600160a01b0319166001600160a01b0392909216919091179055565b60008061367461378b565b9050600c548111610ddd576000613689611676565b905060006136a8612710610d7960155485613bb290919063ffffffff16565b90506000600760009054906101000a90046001600160a01b03166001600160a01b03166318160ddd6040518163ffffffff1660e01b815260040160206040518083038186803b1580156136fa57600080fd5b505afa15801561370e573d6000803e3d6000fd5b505050506040513d602081101561372457600080fd5b505190508082111561376957600061373c8383613c79565b90506000613756670de0b6b3a7640000610d798489613bb2565b905061376460045482613d6e565b965050505b5050505090565b61546081565b6024546001600160a01b031681565b601a5481565b600b5460065460408051633ddac95360e01b81526001600160a01b039283166004820152670de0b6b3a7640000602482015290516000939290921691633ddac95391604480820192602092909190829003018186803b1580156115fd57600080fd5b6000613812613809615460600354613bb290919063ffffffff16565b60025490613cd6565b905090565b601e5481565b601d5481565b6001546001600160a01b0316331461386c5760405162461bcd60e51b8152600401808060200182810382526024815260200180614a186024913960400191505060405180910390fd5b6064811015801561387f57506105dc8111155b6138bf576040805162461bcd60e51b815260206004820152600c60248201526b6f7574206f662072616e676560a01b604482015290519081900360640190fd5b601455565b6001546000906001600160a01b031633146139105760405162461bcd60e51b8152600401808060200182810382526024815260200180614a186024913960400191505060405180910390fd5b60098360ff16106139525760405162461bcd60e51b81526004018080602001828103825260298152602001806149ef6029913960400191505060405180910390fd5b600a821015801561396557506103e88211155b6139ad576040805162461bcd60e51b81526020600482015260146024820152735f76616c75653a206f7574206f662072616e676560601b604482015290519081900360640190fd5b8160108460ff168154811061332f57fe5b60115481565b60155481565b600d5481565b60145481565b60175481565b6001546001600160a01b03163314613a255760405162461bcd60e51b8152600401808060200182810382526024815260200180614a186024913960400191505060405180910390fd5b601655565b6001546001600160a01b03163314613a735760405162461bcd60e51b8152600401808060200182810382526024815260200180614a186024913960400191505060405180910390fd5b60095460408051632ffaaa0960e01b8152600481018590526024810184905290516001600160a01b0390921691632ffaaa099160448082019260009290919082900301818387803b158015613ac757600080fd5b505af1158015613adb573d6000803e3d6000fd5b505050505050565b6001546001600160a01b03163314613b2c5760405162461bcd60e51b8152600401808060200182810382526024815260200180614a186024913960400191505060405180910390fd5b600c548110158015613b585750613b546064610d796078600c54613bb290919063ffffffff16565b8111155b613b98576040805162461bcd60e51b815260206004820152600c60248201526b6f7574206f662072616e676560a01b604482015290519081900360640190fd5b600d55565b60045481565b6007546001600160a01b031681565b600082613bc15750600061333f565b82820282848281613bce57fe5b0414613c0b5760405162461bcd60e51b815260040180806020018281038252602181526020018061494d6021913960400191505060405180910390fd5b9392505050565b6000808211613c68576040805162461bcd60e51b815260206004820152601a60248201527f536166654d6174683a206469766973696f6e206279207a65726f000000000000604482015290519081900360640190fd5b818381613c7157fe5b049392505050565b600082821115613cd0576040805162461bcd60e51b815260206004820152601e60248201527f536166654d6174683a207375627472616374696f6e206f766572666c6f770000604482015290519081900360640190fd5b50900390565b600082820183811015613c0b576040805162461bcd60e51b815260206004820152601b60248201527f536166654d6174683a206164646974696f6e206f766572666c6f770000000000604482015290519081900360640190fd5b4360009081526020818152604080832032845290915290205460ff1690565b4360009081526020818152604080832033845290915290205460ff1690565b6000818310613d7d5781613c0b565b5090919050565b604080516001600160a01b038416602482015260448082018490528251808303909101815260649091019091526020810180516001600160e01b031663a9059cbb60e01b179052611cb890849061438d565b600b60009054906101000a90046001600160a01b03166001600160a01b031663a2e620456040518163ffffffff1660e01b8152600401600060405180830381600087803b158015613e2657600080fd5b505af1925050508015613e37575060015b50565b600654600a54604080516370a0823160e01b81526001600160a01b039283166004820152905160009392909216916370a0823191602480820192602092909190829003018186803b158015613e8e57600080fd5b505afa158015613ea2573d6000803e3d6000fd5b505050506040513d6020811015613eb857600080fd5b5051600a54604080516306672f1560e21b815290519293506000926001600160a01b039092169163199cbc5491600480820192602092909190829003018186803b158015613f0557600080fd5b505afa158015613f19573d6000803e3d6000fd5b505050506040513d6020811015613f2f57600080fd5b50519050818110613f41575050613e37565b6000613f4d8383613c79565b905080841115613fea57600654600a546001600160a01b03918216916340c10f199116613f7a8785613c79565b6040518363ffffffff1660e01b815260040180836001600160a01b0316815260200182815260200192505050602060405180830381600087803b158015613fc057600080fd5b505af1158015613fd4573d6000803e3d6000fd5b505050506040513d6020811015613adb57600080fd5b50505050565b600654604080516340c10f1960e01b81523060048201526024810184905290516001600160a01b03909216916340c10f19916044808201926020929091908290030181600087803b15801561404457600080fd5b505af1158015614058573d6000803e3d6000fd5b505050506040513d602081101561406e57600080fd5b50506021546000901561415657614096612710610d7960215485613bb290919063ffffffff16565b600654602080546040805163a9059cbb60e01b81526001600160a01b03928316600482015260248101869052905194955092169263a9059cbb9260448082019392918290030181600087803b1580156140ee57600080fd5b505af1158015614102573d6000803e3d6000fd5b505050506040513d602081101561411857600080fd5b5050604080514281526020810183905281517fcb3f34aaa3445b461e6da5492dc89e5c257a59fa598131f3b6bbc97a3638e409929181900390910190a15b6023546000901561423f5761417c612710610d7960235486613bb290919063ffffffff16565b6006546022546040805163a9059cbb60e01b81526001600160a01b03928316600482015260248101859052905193945091169163a9059cbb916044808201926020929091908290030181600087803b1580156141d757600080fd5b505af11580156141eb573d6000803e3d6000fd5b505050506040513d602081101561420157600080fd5b5050604080514281526020810183905281517fdc8b715b18523e58b7fd0da53259dfa91efd91df4a854d94b136e3333a3b9395929181900390910190a15b61424d816128e68585613c79565b60095460065491945061426e916001600160a01b039081169116600061443e565b60095460065461428b916001600160a01b0391821691168561443e565b600954604080516397ffe1d760e01b81526004810186905290516001600160a01b03909216916397ffe1d79160248082019260009290919082900301818387803b1580156142d857600080fd5b505af11580156142ec573d6000803e3d6000fd5b5050604080514281526020810187905281517f03ca7276ab7799bf73fb79d27ff0610cd7049574f2508ef8445162833d439aea9450908190039091019150a1505050565b600060085b600f8160ff168154811061434557fe5b9060005260206000200154831061437a5760108160ff168154811061436657fe5b600091825260209091200154601155614383565b60001901614335565b5050601154919050565b60606143e2826040518060400160405280602081526020017f5361666545524332303a206c6f772d6c6576656c2063616c6c206661696c6564815250856001600160a01b03166145519092919063ffffffff16565b805190915015611cb85780806020019051602081101561440157600080fd5b5051611cb85760405162461bcd60e51b815260040180806020018281038252602a815260200180614a3c602a913960400191505060405180910390fd5b8015806144c4575060408051636eb1769f60e11b81523060048201526001600160a01b03848116602483015291519185169163dd62ed3e91604480820192602092909190829003018186803b15801561449657600080fd5b505afa1580156144aa573d6000803e3d6000fd5b505050506040513d60208110156144c057600080fd5b5051155b6144ff5760405162461bcd60e51b8152600401808060200182810382526036815260200180614a8c6036913960400191505060405180910390fd5b604080516001600160a01b038416602482015260448082018490528251808303909101815260649091019091526020810180516001600160e01b031663095ea7b360e01b179052611cb890849061438d565b60606145608484600085614568565b949350505050565b6060824710156145a95760405162461bcd60e51b81526004018080602001828103825260268152602001806148cf6026913960400191505060405180910390fd5b6145b2856146c4565b614603576040805162461bcd60e51b815260206004820152601d60248201527f416464726573733a2063616c6c20746f206e6f6e2d636f6e7472616374000000604482015290519081900360640190fd5b60006060866001600160a01b031685876040518082805190602001908083835b602083106146425780518252601f199092019160209182019101614623565b6001836020036101000a03801982511681845116808217855250505050505090500191505060006040518083038185875af1925050503d80600081146146a4576040519150601f19603f3d011682016040523d82523d6000602084013e6146a9565b606091505b50915091506146b98282866146ca565b979650505050505050565b3b151590565b606083156146d9575081613c0b565b8251156146e95782518084602001fd5b8160405162461bcd60e51b81526004018080602001828103825283818151815260200191508051906020019080838360005b8381101561473357818101518382015260200161471b565b50505050905090810190601f1680156147605780820380516001836020036101000a031916815260200191505b509250505060405180910390fd5b8280548282559060005260206000209081019282156147b8579160200282015b828111156147b857825182906affffffffffffffffffffff1690559160200191906001019061478e565b50610ddd929150614805565b8280548282559060005260206000209081019282156147b8579160200282015b828111156147b8578251829061ffff169055916020019190600101906147e4565b5b80821115610ddd576000815560010161480656fe54726561737572793a2063616e6e6f742072656465656d20626f6e64732077697468207a65726f20616d6f756e7454726561737572793a206661696c656420746f20636f6e73756c74204c494252412070726963652066726f6d20746865206f7261636c655f7072656d69756d5468726573686f6c642065786365656473206c6962726150726963654365696c696e675f7072656d69756d5468726573686f6c6420697320686967686572207468616e20312e35416464726573733a20696e73756666696369656e742062616c616e636520666f722063616c6c54726561737572793a20747265617375727920686173206e6f206d6f72652062756467657454726561737572793a206c696272615072696365206e6f7420656c696769626c6520666f7220626f6e64207075726368617365536166654d6174683a206d756c7469706c69636174696f6e206f766572666c6f7754726561737572793a2063616e6e6f7420707572636861736520626f6e64732077697468207a65726f20616d6f756e745f6d696e74696e67466163746f72466f72506179696e67446562743a206f7574206f662072616e67655f6d6178537570706c79457870616e73696f6e50657263656e743a206f7574206f662072616e6765496e6465782068617320746f206265206c6f776572207468616e20636f756e74206f6620746965727354726561737572793a2063616c6c6572206973206e6f7420746865206f70657261746f725361666545524332303a204552433230206f7065726174696f6e20646964206e6f742073756363656564436f6e747261637447756172643a206f6e6520626c6f636b2c206f6e652066756e6374696f6e5361666545524332303a20617070726f76652066726f6d206e6f6e2d7a65726f20746f206e6f6e2d7a65726f20616c6c6f77616e636554726561737572793a206e6f7420656e6f75676820626f6e64206c65667420746f2070757263686173655f626f6f747374726170537570706c79457870616e73696f6e50657263656e743a206f7574206f662072616e6765a26469706673582212200b8cd1a1d6cfc6e1f2376d081c32532d1f0b3f2042250f2c933ef878708852a764736f6c634300060c0033",
  "devdoc": {
    "kind": "dev",
    "methods": {},
    "version": 1
  },
  "userdoc": {
    "kind": "user",
    "methods": {},
    "version": 1
  },
  "storageLayout": {
    "storage": [
      {
        "astId": 12760,
        "contract": "contracts/Treasury.sol:Treasury",
        "label": "_status",
        "offset": 0,
        "slot": "0",
        "type": "t_mapping(t_uint256,t_mapping(t_address,t_bool))"
      },
      {
        "astId": 4349,
        "contract": "contracts/Treasury.sol:Treasury",
        "label": "operator",
        "offset": 0,
        "slot": "1",
        "type": "t_address"
      },
      {
        "astId": 4352,
        "contract": "contracts/Treasury.sol:Treasury",
        "label": "initialized",
        "offset": 20,
        "slot": "1",
        "type": "t_bool"
      },
      {
        "astId": 4354,
        "contract": "contracts/Treasury.sol:Treasury",
        "label": "startTime",
        "offset": 0,
        "slot": "2",
        "type": "t_uint256"
      },
      {
        "astId": 4357,
        "contract": "contracts/Treasury.sol:Treasury",
        "label": "epoch",
        "offset": 0,
        "slot": "3",
        "type": "t_uint256"
      },
      {
        "astId": 4360,
        "contract": "contracts/Treasury.sol:Treasury",
        "label": "epochSupplyContractionLeft",
        "offset": 0,
        "slot": "4",
        "type": "t_uint256"
      },
      {
        "astId": 4363,
        "contract": "contracts/Treasury.sol:Treasury",
        "label": "excludedFromTotalSupply",
        "offset": 0,
        "slot": "5",
        "type": "t_array(t_address)dyn_storage"
      },
      {
        "astId": 4365,
        "contract": "contracts/Treasury.sol:Treasury",
        "label": "libra",
        "offset": 0,
        "slot": "6",
        "type": "t_address"
      },
      {
        "astId": 4367,
        "contract": "contracts/Treasury.sol:Treasury",
        "label": "lbond",
        "offset": 0,
        "slot": "7",
        "type": "t_address"
      },
      {
        "astId": 4369,
        "contract": "contracts/Treasury.sol:Treasury",
        "label": "lshare",
        "offset": 0,
        "slot": "8",
        "type": "t_address"
      },
      {
        "astId": 4371,
        "contract": "contracts/Treasury.sol:Treasury",
        "label": "boardroom",
        "offset": 0,
        "slot": "9",
        "type": "t_address"
      },
      {
        "astId": 4373,
        "contract": "contracts/Treasury.sol:Treasury",
        "label": "bondTreasury",
        "offset": 0,
        "slot": "10",
        "type": "t_address"
      },
      {
        "astId": 4375,
        "contract": "contracts/Treasury.sol:Treasury",
        "label": "libraOracle",
        "offset": 0,
        "slot": "11",
        "type": "t_address"
      },
      {
        "astId": 4377,
        "contract": "contracts/Treasury.sol:Treasury",
        "label": "libraPriceOne",
        "offset": 0,
        "slot": "12",
        "type": "t_uint256"
      },
      {
        "astId": 4379,
        "contract": "contracts/Treasury.sol:Treasury",
        "label": "libraPriceCeiling",
        "offset": 0,
        "slot": "13",
        "type": "t_uint256"
      },
      {
        "astId": 4381,
        "contract": "contracts/Treasury.sol:Treasury",
        "label": "seigniorageSaved",
        "offset": 0,
        "slot": "14",
        "type": "t_uint256"
      },
      {
        "astId": 4384,
        "contract": "contracts/Treasury.sol:Treasury",
        "label": "supplyTiers",
        "offset": 0,
        "slot": "15",
        "type": "t_array(t_uint256)dyn_storage"
      },
      {
        "astId": 4387,
        "contract": "contracts/Treasury.sol:Treasury",
        "label": "maxExpansionTiers",
        "offset": 0,
        "slot": "16",
        "type": "t_array(t_uint256)dyn_storage"
      },
      {
        "astId": 4389,
        "contract": "contracts/Treasury.sol:Treasury",
        "label": "maxSupplyExpansionPercent",
        "offset": 0,
        "slot": "17",
        "type": "t_uint256"
      },
      {
        "astId": 4391,
        "contract": "contracts/Treasury.sol:Treasury",
        "label": "bondDepletionFloorPercent",
        "offset": 0,
        "slot": "18",
        "type": "t_uint256"
      },
      {
        "astId": 4393,
        "contract": "contracts/Treasury.sol:Treasury",
        "label": "seigniorageExpansionFloorPercent",
        "offset": 0,
        "slot": "19",
        "type": "t_uint256"
      },
      {
        "astId": 4395,
        "contract": "contracts/Treasury.sol:Treasury",
        "label": "maxSupplyContractionPercent",
        "offset": 0,
        "slot": "20",
        "type": "t_uint256"
      },
      {
        "astId": 4397,
        "contract": "contracts/Treasury.sol:Treasury",
        "label": "maxDebtRatioPercent",
        "offset": 0,
        "slot": "21",
        "type": "t_uint256"
      },
      {
        "astId": 4399,
        "contract": "contracts/Treasury.sol:Treasury",
        "label": "bondSupplyExpansionPercent",
        "offset": 0,
        "slot": "22",
        "type": "t_uint256"
      },
      {
        "astId": 4401,
        "contract": "contracts/Treasury.sol:Treasury",
        "label": "bootstrapEpochs",
        "offset": 0,
        "slot": "23",
        "type": "t_uint256"
      },
      {
        "astId": 4403,
        "contract": "contracts/Treasury.sol:Treasury",
        "label": "bootstrapSupplyExpansionPercent",
        "offset": 0,
        "slot": "24",
        "type": "t_uint256"
      },
      {
        "astId": 4405,
        "contract": "contracts/Treasury.sol:Treasury",
        "label": "previousEpochLibraPrice",
        "offset": 0,
        "slot": "25",
        "type": "t_uint256"
      },
      {
        "astId": 4407,
        "contract": "contracts/Treasury.sol:Treasury",
        "label": "maxDiscountRate",
        "offset": 0,
        "slot": "26",
        "type": "t_uint256"
      },
      {
        "astId": 4409,
        "contract": "contracts/Treasury.sol:Treasury",
        "label": "maxPremiumRate",
        "offset": 0,
        "slot": "27",
        "type": "t_uint256"
      },
      {
        "astId": 4411,
        "contract": "contracts/Treasury.sol:Treasury",
        "label": "discountPercent",
        "offset": 0,
        "slot": "28",
        "type": "t_uint256"
      },
      {
        "astId": 4413,
        "contract": "contracts/Treasury.sol:Treasury",
        "label": "premiumThreshold",
        "offset": 0,
        "slot": "29",
        "type": "t_uint256"
      },
      {
        "astId": 4415,
        "contract": "contracts/Treasury.sol:Treasury",
        "label": "premiumPercent",
        "offset": 0,
        "slot": "30",
        "type": "t_uint256"
      },
      {
        "astId": 4417,
        "contract": "contracts/Treasury.sol:Treasury",
        "label": "mintingFactorForPayingDebt",
        "offset": 0,
        "slot": "31",
        "type": "t_uint256"
      },
      {
        "astId": 4419,
        "contract": "contracts/Treasury.sol:Treasury",
        "label": "daoFund",
        "offset": 0,
        "slot": "32",
        "type": "t_address"
      },
      {
        "astId": 4421,
        "contract": "contracts/Treasury.sol:Treasury",
        "label": "daoFundSharedPercent",
        "offset": 0,
        "slot": "33",
        "type": "t_uint256"
      },
      {
        "astId": 4423,
        "contract": "contracts/Treasury.sol:Treasury",
        "label": "devFund",
        "offset": 0,
        "slot": "34",
        "type": "t_address"
      },
      {
        "astId": 4425,
        "contract": "contracts/Treasury.sol:Treasury",
        "label": "devFundSharedPercent",
        "offset": 0,
        "slot": "35",
        "type": "t_uint256"
      },
      {
        "astId": 4427,
        "contract": "contracts/Treasury.sol:Treasury",
        "label": "insuranceFund",
        "offset": 0,
        "slot": "36",
        "type": "t_address"
      },
      {
        "astId": 4429,
        "contract": "contracts/Treasury.sol:Treasury",
        "label": "insuranceFundSharedPercent",
        "offset": 0,
        "slot": "37",
        "type": "t_uint256"
      }
    ],
    "types": {
      "t_address": {
        "encoding": "inplace",
        "label": "address",
        "numberOfBytes": "20"
      },
      "t_array(t_address)dyn_storage": {
        "base": "t_address",
        "encoding": "dynamic_array",
        "label": "address[]",
        "numberOfBytes": "32"
      },
      "t_array(t_uint256)dyn_storage": {
        "base": "t_uint256",
        "encoding": "dynamic_array",
        "label": "uint256[]",
        "numberOfBytes": "32"
      },
      "t_bool": {
        "encoding": "inplace",
        "label": "bool",
        "numberOfBytes": "1"
      },
      "t_mapping(t_address,t_bool)": {
        "encoding": "mapping",
        "key": "t_address",
        "label": "mapping(address => bool)",
        "numberOfBytes": "32",
        "value": "t_bool"
      },
      "t_mapping(t_uint256,t_mapping(t_address,t_bool))": {
        "encoding": "mapping",
        "key": "t_uint256",
        "label": "mapping(uint256 => mapping(address => bool))",
        "numberOfBytes": "32",
        "value": "t_mapping(t_address,t_bool)"
      },
      "t_uint256": {
        "encoding": "inplace",
        "label": "uint256",
        "numberOfBytes": "32"
      }
    }
  }
}