{
  "_format": "hh-sol-artifact-1",
  "contractName": "LibraRewardPool",
  "sourceName": "contracts/distribution/LibraRewardPool.sol",
  "abi": [
    {
      "inputs": [
        {
          "internalType": "address",
          "name": "_libra",
          "type": "address"
        },
        {
          "internalType": "uint256",
          "name": "_poolStartTime",
          "type": "uint256"
        }
      ],
      "stateMutability": "nonpayable",
      "type": "constructor"
    },
    {
      "anonymous": false,
      "inputs": [
        {
          "indexed": true,
          "internalType": "address",
          "name": "user",
          "type": "address"
        },
        {
          "indexed": true,
          "internalType": "uint256",
          "name": "pid",
          "type": "uint256"
        },
        {
          "indexed": false,
          "internalType": "uint256",
          "name": "amount",
          "type": "uint256"
        }
      ],
      "name": "Deposit",
      "type": "event"
    },
    {
      "anonymous": false,
      "inputs": [
        {
          "indexed": true,
          "internalType": "address",
          "name": "user",
          "type": "address"
        },
        {
          "indexed": true,
          "internalType": "uint256",
          "name": "pid",
          "type": "uint256"
        },
        {
          "indexed": false,
          "internalType": "uint256",
          "name": "amount",
          "type": "uint256"
        }
      ],
      "name": "EmergencyWithdraw",
      "type": "event"
    },
    {
      "anonymous": false,
      "inputs": [
        {
          "indexed": true,
          "internalType": "address",
          "name": "user",
          "type": "address"
        },
        {
          "indexed": false,
          "internalType": "uint256",
          "name": "amount",
          "type": "uint256"
        }
      ],
      "name": "RewardPaid",
      "type": "event"
    },
    {
      "anonymous": false,
      "inputs": [
        {
          "indexed": true,
          "internalType": "address",
          "name": "user",
          "type": "address"
        },
        {
          "indexed": true,
          "internalType": "uint256",
          "name": "pid",
          "type": "uint256"
        },
        {
          "indexed": false,
          "internalType": "uint256",
          "name": "amount",
          "type": "uint256"
        }
      ],
      "name": "Withdraw",
      "type": "event"
    },
    {
      "inputs": [
        {
          "internalType": "uint256",
          "name": "_allocPoint",
          "type": "uint256"
        },
        {
          "internalType": "contract IERC20",
          "name": "_token",
          "type": "address"
        },
        {
          "internalType": "bool",
          "name": "_withUpdate",
          "type": "bool"
        },
        {
          "internalType": "uint256",
          "name": "_lastRewardTime",
          "type": "uint256"
        }
      ],
      "name": "add",
      "outputs": [],
      "stateMutability": "nonpayable",
      "type": "function"
    },
    {
      "inputs": [
        {
          "internalType": "uint256",
          "name": "_pid",
          "type": "uint256"
        },
        {
          "internalType": "uint256",
          "name": "_amount",
          "type": "uint256"
        }
      ],
      "name": "deposit",
      "outputs": [],
      "stateMutability": "nonpayable",
      "type": "function"
    },
    {
      "inputs": [
        {
          "internalType": "uint256",
          "name": "_pid",
          "type": "uint256"
        }
      ],
      "name": "emergencyWithdraw",
      "outputs": [],
      "stateMutability": "nonpayable",
      "type": "function"
    },
    {
      "inputs": [
        {
          "internalType": "uint256",
          "name": "",
          "type": "uint256"
        }
      ],
      "name": "epochEndTimes",
      "outputs": [
        {
          "internalType": "uint256",
          "name": "",
          "type": "uint256"
        }
      ],
      "stateMutability": "view",
      "type": "function"
    },
    {
      "inputs": [
        {
          "internalType": "uint256",
          "name": "",
          "type": "uint256"
        }
      ],
      "name": "epochLibraPerSecond",
      "outputs": [
        {
          "internalType": "uint256",
          "name": "",
          "type": "uint256"
        }
      ],
      "stateMutability": "view",
      "type": "function"
    },
    {
      "inputs": [
        {
          "internalType": "uint256",
          "name": "",
          "type": "uint256"
        }
      ],
      "name": "epochTotalRewards",
      "outputs": [
        {
          "internalType": "uint256",
          "name": "",
          "type": "uint256"
        }
      ],
      "stateMutability": "view",
      "type": "function"
    },
    {
      "inputs": [
        {
          "internalType": "uint256",
          "name": "_fromTime",
          "type": "uint256"
        },
        {
          "internalType": "uint256",
          "name": "_toTime",
          "type": "uint256"
        }
      ],
      "name": "getGeneratedReward",
      "outputs": [
        {
          "internalType": "uint256",
          "name": "",
          "type": "uint256"
        }
      ],
      "stateMutability": "view",
      "type": "function"
    },
    {
      "inputs": [
        {
          "internalType": "contract IERC20",
          "name": "_token",
          "type": "address"
        },
        {
          "internalType": "uint256",
          "name": "amount",
          "type": "uint256"
        },
        {
          "internalType": "address",
          "name": "to",
          "type": "address"
        }
      ],
      "name": "governanceRecoverUnsupported",
      "outputs": [],
      "stateMutability": "nonpayable",
      "type": "function"
    },
    {
      "inputs": [],
      "name": "libra",
      "outputs": [
        {
          "internalType": "contract IERC20",
          "name": "",
          "type": "address"
        }
      ],
      "stateMutability": "view",
      "type": "function"
    },
    {
      "inputs": [],
      "name": "massUpdatePools",
      "outputs": [],
      "stateMutability": "nonpayable",
      "type": "function"
    },
    {
      "inputs": [],
      "name": "operator",
      "outputs": [
        {
          "internalType": "address",
          "name": "",
          "type": "address"
        }
      ],
      "stateMutability": "view",
      "type": "function"
    },
    {
      "inputs": [
        {
          "internalType": "uint256",
          "name": "_pid",
          "type": "uint256"
        },
        {
          "internalType": "address",
          "name": "_user",
          "type": "address"
        }
      ],
      "name": "pendingLIBRA",
      "outputs": [
        {
          "internalType": "uint256",
          "name": "",
          "type": "uint256"
        }
      ],
      "stateMutability": "view",
      "type": "function"
    },
    {
      "inputs": [
        {
          "internalType": "uint256",
          "name": "",
          "type": "uint256"
        }
      ],
      "name": "poolInfo",
      "outputs": [
        {
          "internalType": "contract IERC20",
          "name": "token",
          "type": "address"
        },
        {
          "internalType": "uint256",
          "name": "allocPoint",
          "type": "uint256"
        },
        {
          "internalType": "uint256",
          "name": "lastRewardTime",
          "type": "uint256"
        },
        {
          "internalType": "uint256",
          "name": "accLibraPerShare",
          "type": "uint256"
        },
        {
          "internalType": "bool",
          "name": "isStarted",
          "type": "bool"
        }
      ],
      "stateMutability": "view",
      "type": "function"
    },
    {
      "inputs": [],
      "name": "poolStartTime",
      "outputs": [
        {
          "internalType": "uint256",
          "name": "",
          "type": "uint256"
        }
      ],
      "stateMutability": "view",
      "type": "function"
    },
    {
      "inputs": [
        {
          "internalType": "uint256",
          "name": "_pid",
          "type": "uint256"
        },
        {
          "internalType": "uint256",
          "name": "_allocPoint",
          "type": "uint256"
        }
      ],
      "name": "set",
      "outputs": [],
      "stateMutability": "nonpayable",
      "type": "function"
    },
    {
      "inputs": [
        {
          "internalType": "address",
          "name": "_operator",
          "type": "address"
        }
      ],
      "name": "setOperator",
      "outputs": [],
      "stateMutability": "nonpayable",
      "type": "function"
    },
    {
      "inputs": [],
      "name": "totalAllocPoint",
      "outputs": [
        {
          "internalType": "uint256",
          "name": "",
          "type": "uint256"
        }
      ],
      "stateMutability": "view",
      "type": "function"
    },
    {
      "inputs": [
        {
          "internalType": "uint256",
          "name": "_pid",
          "type": "uint256"
        }
      ],
      "name": "updatePool",
      "outputs": [],
      "stateMutability": "nonpayable",
      "type": "function"
    },
    {
      "inputs": [
        {
          "internalType": "uint256",
          "name": "",
          "type": "uint256"
        },
        {
          "internalType": "address",
          "name": "",
          "type": "address"
        }
      ],
      "name": "userInfo",
      "outputs": [
        {
          "internalType": "uint256",
          "name": "amount",
          "type": "uint256"
        },
        {
          "internalType": "uint256",
          "name": "rewardDebt",
          "type": "uint256"
        }
      ],
      "stateMutability": "view",
      "type": "function"
    },
    {
      "inputs": [
        {
          "internalType": "uint256",
          "name": "_pid",
          "type": "uint256"
        },
        {
          "internalType": "uint256",
          "name": "_amount",
          "type": "uint256"
        }
      ],
      "name": "withdraw",
      "outputs": [],
      "stateMutability": "nonpayable",
      "type": "function"
    }
  ],
  "bytecode": "0x600060045560c06040526910f0cf064dd5920000006080908152690cb49b44ba602d80000060a05262000037906006906002620001d2565b503480156200004557600080fd5b5060405162001ce238038062001ce2833981810160405260408110156200006b57600080fd5b508051602090910151428111620000b2576040805162461bcd60e51b815260206004808301919091526024820152636c61746560e01b604482015290519081900360640190fd5b6001600160a01b03821615620000de57600180546001600160a01b0319166001600160a01b0384161790555b600581905562054600808201600755620bdd808201600855600680546200012a9291906000906200010b57fe5b90600052602060002001546200016960201b620012eb1790919060201c565b600a55600680546200014791620697809160019081106200010b57fe5b600b5550506000600c81905580546001600160a01b0319163317905562000244565b6000808211620001c0576040805162461bcd60e51b815260206004820152601a60248201527f536166654d6174683a206469766973696f6e206279207a65726f000000000000604482015290519081900360640190fd5b818381620001ca57fe5b049392505050565b8280548282559060005260206000209081019282156200021b579160200282015b828111156200021b57825182906001600160501b0316905591602001919060010190620001f3565b50620002299291506200022d565b5090565b5b808211156200022957600081556001016200022e565b611a8e80620002546000396000f3fe608060405234801561001057600080fd5b506004361061016c5760003560e01c8063570ca735116100cd5780639a25cefc11610081578063b3ab15fb11610066578063b3ab15fb146103db578063b89e73c114610401578063e2bbb1581461041e5761016c565b80639a25cefc146103b6578063aed3ba6b146103d35761016c565b8063630b5ba1116100b2578063630b5ba11461032f57806393f1a40b1461033757806396805e541461037c5761016c565b8063570ca735146103035780635f96dc11146103275761016c565b80632e8c98121161012457806351eb05a61161010957806351eb05a6146102935780635312ea8e146102b057806354575af4146102cd5761016c565b80632e8c981214610244578063441a3e70146102705761016c565b80631ab06ee5116101555780631ab06ee5146101df578063231f0c6a146102045780632326f746146102275761016c565b80631526fe271461017157806317caf6f1146101c5575b600080fd5b61018e6004803603602081101561018757600080fd5b5035610441565b604080516001600160a01b039096168652602086019490945284840192909252606084015215156080830152519081900360a00190f35b6101cd61048c565b60408051918252519081900360200190f35b610202600480360360408110156101f557600080fd5b5080359060200135610492565b005b6101cd6004803603604081101561021a57600080fd5b5080359060200135610540565b6101cd6004803603602081101561023d57600080fd5b503561073b565b6101cd6004803603604081101561025a57600080fd5b50803590602001356001600160a01b031661074f565b6102026004803603604081101561028657600080fd5b50803590602001356108d0565b610202600480360360208110156102a957600080fd5b5035610a8c565b610202600480360360208110156102c657600080fd5b5035610c21565b610202600480360360608110156102e357600080fd5b506001600160a01b03813581169160208101359160409091013516610cbd565b61030b610e2f565b604080516001600160a01b039092168252519081900360200190f35b6101cd610e3e565b610202610e44565b6103636004803603604081101561034d57600080fd5b50803590602001356001600160a01b0316610e67565b6040805192835260208301919091528051918290030190f35b6102026004803603608081101561039257600080fd5b508035906001600160a01b0360208201351690604081013515159060600135610e8b565b6101cd600480360360208110156103cc57600080fd5b50356110be565b61030b6110dc565b610202600480360360208110156103f157600080fd5b50356001600160a01b03166110eb565b6101cd6004803603602081101561041757600080fd5b503561116e565b6102026004803603604081101561043457600080fd5b508035906020013561117b565b6002818154811061044e57fe5b6000918252602090912060059091020180546001820154600283015460038401546004909401546001600160a01b0390931694509092909160ff1685565b60045481565b6000546001600160a01b031633146104db5760405162461bcd60e51b815260040180806020018281038252602b815260200180611a04602b913960400191505060405180910390fd5b6104e3610e44565b6000600283815481106104f257fe5b60009182526020909120600590910201600481015490915060ff1615610539576105358261052f836001015460045461135290919063ffffffff16565b906113af565b6004555b6001015550565b600060025b60018160ff16106107205760076001820360ff166003811061056357fe5b015483106106f95760076001820360ff166003811061057e57fe5b015484106105b3576105ab600a8260ff166003811061059957fe5b01546105a58587611352565b90611409565b915050610735565b60006105e9600a8360ff16600381106105c857fe5b01546105a560076001860360ff16600381106105e057fe5b01548790611352565b90508160ff16600114156106255761061c610615600a60005b01546105a588600760005b015490611352565b82906113af565b92505050610735565b6001820391505b60018260ff16106106ea5760076001830360ff166003811061064a57fe5b0154851061067e5761061c610615600a8460ff166003811061066857fe5b01546105a58860078760ff166003811061060d57fe5b6106be610615600a8460ff166003811061069457fe5b01546105a560076001870360ff16600381106106ac57fe5b015460078760ff166003811061060d57fe5b7fffffffffffffffffffffffffffffffffffffffffffffffffffffffffffffffff90920191905061062c565b61061c610615600a6000610602565b7fffffffffffffffffffffffffffffffffffffffffffffffffffffffffffffffff01610545565b50600a54610732906105a58486611352565b90505b92915050565b600a816003811061074857fe5b0154905081565b6000806002848154811061075f57fe5b60009182526020808320878452600380835260408086206001600160a01b03808b168852908552818720600590960290930191820154825482517f70a0823100000000000000000000000000000000000000000000000000000000815230600482015292519398509596909590949316926370a0823192602480840193829003018186803b1580156107f057600080fd5b505afa158015610804573d6000803e3d6000fd5b505050506040513d602081101561081a57600080fd5b505160028501549091504211801561083157508015155b15610894576000610846856002015442610540565b9050600061086d60045461086788600101548561140990919063ffffffff16565b906112eb565b905061088f6108888461086784670de0b6b3a7640000611409565b85906113af565b935050505b6108c583600101546108bf670de0b6b3a764000061086786886000015461140990919063ffffffff16565b90611352565b979650505050505050565b60003390506000600284815481106108e457fe5b600091825260208083208784526003825260408085206001600160a01b0388168652909252922080546005909202909201925084111561096b576040805162461bcd60e51b815260206004820152601260248201527f77697468647261773a206e6f7420676f6f640000000000000000000000000000604482015290519081900360640190fd5b61097485610a8c565b60006109a582600101546108bf670de0b6b3a76400006108678760030154876000015461140990919063ffffffff16565b905080156109f7576109b78482611462565b6040805182815290516001600160a01b038616917fe2403640ba68fed3a2f88b7557551d1993f84b99bb10ff833f0cf8db0c5e0486919081900360200190a25b8415610a21578154610a099086611352565b82558254610a21906001600160a01b03168587611531565b60038301548254610a3f91670de0b6b3a76400009161086791611409565b600183015560408051868152905187916001600160a01b038716917ff279e6a1f5e320cca91135676d9cb6e44ca8a08c0b88342bcdb1144f6511b5689181900360200190a3505050505050565b600060028281548110610a9b57fe5b9060005260206000209060050201905080600201544211610abc5750610c1e565b8054604080517f70a0823100000000000000000000000000000000000000000000000000000000815230600482015290516000926001600160a01b0316916370a08231916024808301926020929190829003018186803b158015610b1f57600080fd5b505afa158015610b33573d6000803e3d6000fd5b505050506040513d6020811015610b4957600080fd5b5051905080610b5f575042600290910155610c1e565b600482015460ff16610bae57600480830180547fffffffffffffffffffffffffffffffffffffffffffffffffffffffffffffff001660019081179091558301549054610baa916113af565b6004555b60045415610c15576000610bc6836002015442610540565b90506000610be760045461086786600101548561140990919063ffffffff16565b9050610c0d610c028461086784670de0b6b3a7640000611409565b6003860154906113af565b600385015550505b50426002909101555b50565b600060028281548110610c3057fe5b600091825260208083208584526003825260408085203380875293528420805485825560018201959095556005909302018054909450919291610c80916001600160a01b03919091169083611531565b604080518281529051859133917fbb757047c2b5f3974fe26b7c10f732e7bce710b0952a71082702781e62ae05959181900360200190a350505050565b6000546001600160a01b03163314610d065760405162461bcd60e51b815260040180806020018281038252602b815260200180611a04602b913960400191505060405180910390fd5b60085462278d0001421015610e16576001546001600160a01b0384811691161415610d78576040805162461bcd60e51b815260206004820152600660248201527f216c696272610000000000000000000000000000000000000000000000000000604482015290519081900360640190fd5b60025460005b81811015610e1357600060028281548110610d9557fe5b6000918252602090912060059091020180549091506001600160a01b0387811691161415610e0a576040805162461bcd60e51b815260206004820152600b60248201527f21706f6f6c2e746f6b656e000000000000000000000000000000000000000000604482015290519081900360640190fd5b50600101610d7e565b50505b610e2a6001600160a01b0384168284611531565b505050565b6000546001600160a01b031681565b60055481565b60025460005b81811015610e6357610e5b81610a8c565b600101610e4a565b5050565b60036020908152600092835260408084209091529082529020805460019091015482565b6000546001600160a01b03163314610ed45760405162461bcd60e51b815260040180806020018281038252602b815260200180611a04602b913960400191505060405180910390fd5b610edd836115b1565b8115610eeb57610eeb610e44565b600554421015610f175780610f035750600554610f12565b600554811015610f1257506005545b610f2b565b801580610f2357504281105b15610f2b5750425b600060055482111580610f3e5750428211155b6040805160a0810182526001600160a01b03878116825260208201898152928201868152600060608401818152861580156080870190815260028054600181018255945295517f405787fa12a823e0f2b7631cc41b3ba8828b3321ca811111fa75cd3aa3bb5ace600590940293840180547fffffffffffffffffffffffff000000000000000000000000000000000000000016919096161790945594517f405787fa12a823e0f2b7631cc41b3ba8828b3321ca811111fa75cd3aa3bb5acf82015590517f405787fa12a823e0f2b7631cc41b3ba8828b3321ca811111fa75cd3aa3bb5ad082015592517f405787fa12a823e0f2b7631cc41b3ba8828b3321ca811111fa75cd3aa3bb5ad184015590517f405787fa12a823e0f2b7631cc41b3ba8828b3321ca811111fa75cd3aa3bb5ad290920180547fffffffffffffffffffffffffffffffffffffffffffffffffffffffffffffff0016921515929092179091559091506110b7576004546110b390866113af565b6004555b5050505050565b600681815481106110cb57fe5b600091825260209091200154905081565b6001546001600160a01b031681565b6000546001600160a01b031633146111345760405162461bcd60e51b815260040180806020018281038252602b815260200180611a04602b913960400191505060405180910390fd5b600080547fffffffffffffffffffffffff0000000000000000000000000000000000000000166001600160a01b0392909216919091179055565b6007816003811061074857fe5b600033905060006002848154811061118f57fe5b600091825260208083208784526003825260408085206001600160a01b03881686529092529220600590910290910191506111c985610a8c565b80541561125557600061120182600101546108bf670de0b6b3a76400006108678760030154876000015461140990919063ffffffff16565b90508015611253576112138482611462565b6040805182815290516001600160a01b038616917fe2403640ba68fed3a2f88b7557551d1993f84b99bb10ff833f0cf8db0c5e0486919081900360200190a25b505b8315611281578154611272906001600160a01b031684308761164b565b805461127e90856113af565b81555b6003820154815461129f91670de0b6b3a76400009161086791611409565b600182015560408051858152905186916001600160a01b038616917f90890809c654f11d6e72a28fa60149770a0d11ec6c92319d6ceb2bb0a4ea1a159181900360200190a35050505050565b6000808211611341576040805162461bcd60e51b815260206004820152601a60248201527f536166654d6174683a206469766973696f6e206279207a65726f000000000000604482015290519081900360640190fd5b81838161134a57fe5b049392505050565b6000828211156113a9576040805162461bcd60e51b815260206004820152601e60248201527f536166654d6174683a207375627472616374696f6e206f766572666c6f770000604482015290519081900360640190fd5b50900390565b600082820183811015610732576040805162461bcd60e51b815260206004820152601b60248201527f536166654d6174683a206164646974696f6e206f766572666c6f770000000000604482015290519081900360640190fd5b60008261141857506000610735565b8282028284828161142557fe5b04146107325760405162461bcd60e51b81526004018080602001828103825260218152602001806119e36021913960400191505060405180910390fd5b600154604080517f70a0823100000000000000000000000000000000000000000000000000000000815230600482015290516000926001600160a01b0316916370a08231916024808301926020929190829003018186803b1580156114c657600080fd5b505afa1580156114da573d6000803e3d6000fd5b505050506040513d60208110156114f057600080fd5b505190508015610e2a578082111561151e57600154611519906001600160a01b03168483611531565b610e2a565b600154610e2a906001600160a01b031684845b604080516001600160a01b038416602482015260448082018490528251808303909101815260649091019091526020810180517bffffffffffffffffffffffffffffffffffffffffffffffffffffffff167fa9059cbb00000000000000000000000000000000000000000000000000000000179052610e2a9084906116d9565b60025460005b81811015610e2a57826001600160a01b0316600282815481106115d657fe5b60009182526020909120600590910201546001600160a01b03161415611643576040805162461bcd60e51b815260206004820152601f60248201527f4c69627261526577617264506f6f6c3a206578697374696e6720706f6f6c3f00604482015290519081900360640190fd5b6001016115b7565b604080516001600160a01b0380861660248301528416604482015260648082018490528251808303909101815260849091019091526020810180517bffffffffffffffffffffffffffffffffffffffffffffffffffffffff167f23b872dd000000000000000000000000000000000000000000000000000000001790526116d39085906116d9565b50505050565b606061172e826040518060400160405280602081526020017f5361666545524332303a206c6f772d6c6576656c2063616c6c206661696c6564815250856001600160a01b031661178a9092919063ffffffff16565b805190915015610e2a5780806020019051602081101561174d57600080fd5b5051610e2a5760405162461bcd60e51b815260040180806020018281038252602a815260200180611a2f602a913960400191505060405180910390fd5b606061179984846000856117a3565b90505b9392505050565b6060824710156117e45760405162461bcd60e51b81526004018080602001828103825260268152602001806119bd6026913960400191505060405180910390fd5b6117ed85611912565b61183e576040805162461bcd60e51b815260206004820152601d60248201527f416464726573733a2063616c6c20746f206e6f6e2d636f6e7472616374000000604482015290519081900360640190fd5b60006060866001600160a01b031685876040518082805190602001908083835b6020831061189b57805182527fffffffffffffffffffffffffffffffffffffffffffffffffffffffffffffffe0909201916020918201910161185e565b6001836020036101000a03801982511681845116808217855250505050505090500191505060006040518083038185875af1925050503d80600081146118fd576040519150601f19603f3d011682016040523d82523d6000602084013e611902565b606091505b50915091506108c5828286611918565b3b151590565b6060831561192757508161179c565b8251156119375782518084602001fd5b8160405162461bcd60e51b81526004018080602001828103825283818151815260200191508051906020019080838360005b83811015611981578181015183820152602001611969565b50505050905090810190601f1680156119ae5780820380516001836020036101000a031916815260200191505b509250505060405180910390fdfe416464726573733a20696e73756666696369656e742062616c616e636520666f722063616c6c536166654d6174683a206d756c7469706c69636174696f6e206f766572666c6f774c69627261526577617264506f6f6c3a2063616c6c6572206973206e6f7420746865206f70657261746f725361666545524332303a204552433230206f7065726174696f6e20646964206e6f742073756363656564a2646970667358221220b798862bcd0f29452e02416abc6bf9a65a482220443f4ecf1ed09431f2bf3d1264736f6c634300060c0033",
  "linkReferences": {},
  "deployedLinkReferences": {}
}