{
  "_format": "hh-sol-artifact-1",
  "contractName": "LShareRewardPool",
  "sourceName": "contracts/distribution/LShareRewardPool.sol",
  "abi": [
    {
      "inputs": [
        {
          "internalType": "address",
          "name": "_lshare",
          "type": "address"
        },
        {
          "internalType": "uint256",
          "name": "_poolStartTime",
          "type": "uint256"
        }
      ],
      "stateMutability": "nonpayable",
      "type": "constructor"
    },
    {
      "anonymous": false,
      "inputs": [
        {
          "indexed": true,
          "internalType": "address",
          "name": "user",
          "type": "address"
        },
        {
          "indexed": true,
          "internalType": "uint256",
          "name": "pid",
          "type": "uint256"
        },
        {
          "indexed": false,
          "internalType": "uint256",
          "name": "amount",
          "type": "uint256"
        }
      ],
      "name": "Deposit",
      "type": "event"
    },
    {
      "anonymous": false,
      "inputs": [
        {
          "indexed": true,
          "internalType": "address",
          "name": "user",
          "type": "address"
        },
        {
          "indexed": true,
          "internalType": "uint256",
          "name": "pid",
          "type": "uint256"
        },
        {
          "indexed": false,
          "internalType": "uint256",
          "name": "amount",
          "type": "uint256"
        }
      ],
      "name": "EmergencyWithdraw",
      "type": "event"
    },
    {
      "anonymous": false,
      "inputs": [
        {
          "indexed": true,
          "internalType": "address",
          "name": "user",
          "type": "address"
        },
        {
          "indexed": false,
          "internalType": "uint256",
          "name": "amount",
          "type": "uint256"
        }
      ],
      "name": "RewardPaid",
      "type": "event"
    },
    {
      "anonymous": false,
      "inputs": [
        {
          "indexed": true,
          "internalType": "address",
          "name": "user",
          "type": "address"
        },
        {
          "indexed": true,
          "internalType": "uint256",
          "name": "pid",
          "type": "uint256"
        },
        {
          "indexed": false,
          "internalType": "uint256",
          "name": "amount",
          "type": "uint256"
        }
      ],
      "name": "Withdraw",
      "type": "event"
    },
    {
      "inputs": [],
      "name": "TOTAL_REWARDS",
      "outputs": [
        {
          "internalType": "uint256",
          "name": "",
          "type": "uint256"
        }
      ],
      "stateMutability": "view",
      "type": "function"
    },
    {
      "inputs": [
        {
          "internalType": "uint256",
          "name": "_allocPoint",
          "type": "uint256"
        },
        {
          "internalType": "contract IERC20",
          "name": "_token",
          "type": "address"
        },
        {
          "internalType": "bool",
          "name": "_withUpdate",
          "type": "bool"
        },
        {
          "internalType": "uint256",
          "name": "_lastRewardTime",
          "type": "uint256"
        }
      ],
      "name": "add",
      "outputs": [],
      "stateMutability": "nonpayable",
      "type": "function"
    },
    {
      "inputs": [
        {
          "internalType": "uint256",
          "name": "_pid",
          "type": "uint256"
        },
        {
          "internalType": "uint256",
          "name": "_amount",
          "type": "uint256"
        }
      ],
      "name": "deposit",
      "outputs": [],
      "stateMutability": "nonpayable",
      "type": "function"
    },
    {
      "inputs": [
        {
          "internalType": "uint256",
          "name": "_pid",
          "type": "uint256"
        }
      ],
      "name": "emergencyWithdraw",
      "outputs": [],
      "stateMutability": "nonpayable",
      "type": "function"
    },
    {
      "inputs": [
        {
          "internalType": "uint256",
          "name": "_fromTime",
          "type": "uint256"
        },
        {
          "internalType": "uint256",
          "name": "_toTime",
          "type": "uint256"
        }
      ],
      "name": "getGeneratedReward",
      "outputs": [
        {
          "internalType": "uint256",
          "name": "",
          "type": "uint256"
        }
      ],
      "stateMutability": "view",
      "type": "function"
    },
    {
      "inputs": [
        {
          "internalType": "contract IERC20",
          "name": "_token",
          "type": "address"
        },
        {
          "internalType": "uint256",
          "name": "amount",
          "type": "uint256"
        },
        {
          "internalType": "address",
          "name": "to",
          "type": "address"
        }
      ],
      "name": "governanceRecoverUnsupported",
      "outputs": [],
      "stateMutability": "nonpayable",
      "type": "function"
    },
    {
      "inputs": [],
      "name": "lSharePerSecond",
      "outputs": [
        {
          "internalType": "uint256",
          "name": "",
          "type": "uint256"
        }
      ],
      "stateMutability": "view",
      "type": "function"
    },
    {
      "inputs": [],
      "name": "lshare",
      "outputs": [
        {
          "internalType": "contract IERC20",
          "name": "",
          "type": "address"
        }
      ],
      "stateMutability": "view",
      "type": "function"
    },
    {
      "inputs": [],
      "name": "massUpdatePools",
      "outputs": [],
      "stateMutability": "nonpayable",
      "type": "function"
    },
    {
      "inputs": [],
      "name": "operator",
      "outputs": [
        {
          "internalType": "address",
          "name": "",
          "type": "address"
        }
      ],
      "stateMutability": "view",
      "type": "function"
    },
    {
      "inputs": [
        {
          "internalType": "uint256",
          "name": "_pid",
          "type": "uint256"
        },
        {
          "internalType": "address",
          "name": "_user",
          "type": "address"
        }
      ],
      "name": "pendingShare",
      "outputs": [
        {
          "internalType": "uint256",
          "name": "",
          "type": "uint256"
        }
      ],
      "stateMutability": "view",
      "type": "function"
    },
    {
      "inputs": [],
      "name": "poolEndTime",
      "outputs": [
        {
          "internalType": "uint256",
          "name": "",
          "type": "uint256"
        }
      ],
      "stateMutability": "view",
      "type": "function"
    },
    {
      "inputs": [
        {
          "internalType": "uint256",
          "name": "",
          "type": "uint256"
        }
      ],
      "name": "poolInfo",
      "outputs": [
        {
          "internalType": "contract IERC20",
          "name": "token",
          "type": "address"
        },
        {
          "internalType": "uint256",
          "name": "allocPoint",
          "type": "uint256"
        },
        {
          "internalType": "uint256",
          "name": "lastRewardTime",
          "type": "uint256"
        },
        {
          "internalType": "uint256",
          "name": "accLSharePerShare",
          "type": "uint256"
        },
        {
          "internalType": "bool",
          "name": "isStarted",
          "type": "bool"
        }
      ],
      "stateMutability": "view",
      "type": "function"
    },
    {
      "inputs": [],
      "name": "poolStartTime",
      "outputs": [
        {
          "internalType": "uint256",
          "name": "",
          "type": "uint256"
        }
      ],
      "stateMutability": "view",
      "type": "function"
    },
    {
      "inputs": [],
      "name": "runningTime",
      "outputs": [
        {
          "internalType": "uint256",
          "name": "",
          "type": "uint256"
        }
      ],
      "stateMutability": "view",
      "type": "function"
    },
    {
      "inputs": [
        {
          "internalType": "uint256",
          "name": "_pid",
          "type": "uint256"
        },
        {
          "internalType": "uint256",
          "name": "_allocPoint",
          "type": "uint256"
        }
      ],
      "name": "set",
      "outputs": [],
      "stateMutability": "nonpayable",
      "type": "function"
    },
    {
      "inputs": [
        {
          "internalType": "address",
          "name": "_operator",
          "type": "address"
        }
      ],
      "name": "setOperator",
      "outputs": [],
      "stateMutability": "nonpayable",
      "type": "function"
    },
    {
      "inputs": [],
      "name": "totalAllocPoint",
      "outputs": [
        {
          "internalType": "uint256",
          "name": "",
          "type": "uint256"
        }
      ],
      "stateMutability": "view",
      "type": "function"
    },
    {
      "inputs": [
        {
          "internalType": "uint256",
          "name": "_pid",
          "type": "uint256"
        }
      ],
      "name": "updatePool",
      "outputs": [],
      "stateMutability": "nonpayable",
      "type": "function"
    },
    {
      "inputs": [
        {
          "internalType": "uint256",
          "name": "",
          "type": "uint256"
        },
        {
          "internalType": "address",
          "name": "",
          "type": "address"
        }
      ],
      "name": "userInfo",
      "outputs": [
        {
          "internalType": "uint256",
          "name": "amount",
          "type": "uint256"
        },
        {
          "internalType": "uint256",
          "name": "rewardDebt",
          "type": "uint256"
        }
      ],
      "stateMutability": "view",
      "type": "function"
    },
    {
      "inputs": [
        {
          "internalType": "uint256",
          "name": "_pid",
          "type": "uint256"
        },
        {
          "internalType": "uint256",
          "name": "_amount",
          "type": "uint256"
        }
      ],
      "name": "withdraw",
      "outputs": [],
      "stateMutability": "nonpayable",
      "type": "function"
    }
  ],
  "bytecode": "0x608060405260006004556606ab00d9a3bc006007556301e7cb0060085534801561002857600080fd5b506040516119fd3803806119fd8339818101604052604081101561004b57600080fd5b508051602090910151428111610091576040805162461bcd60e51b815260206004808301919091526024820152636c61746560e01b604482015290519081900360640190fd5b6001600160a01b038216156100bc57600180546001600160a01b0319166001600160a01b0384161790555b60058190556008540160065550600080546001600160a01b03191633179055611913806100ea6000396000f3fe608060405234801561001057600080fd5b50600436106101775760003560e01c8063570ca735116100d857806393f1a40b1161008c578063b3ab15fb11610066578063b3ab15fb146103a0578063cf4b55cb146103c6578063e2bbb158146103f257610177565b806393f1a40b14610319578063943f013d1461035e57806396805e541461036657610177565b80635f96dc11116100bd5780635f96dc1114610301578063630b5ba1146103095780636e271dd51461031157610177565b8063570ca735146102d55780635b023168146102f957610177565b8063231f0c6a1161012f57806351eb05a61161011457806351eb05a6146102655780635312ea8e1461028257806354575af41461029f57610177565b8063231f0c6a1461021f578063441a3e701461024257610177565b806317caf6f11161016057806317caf6f1146101ea5780631880e7e4146101f25780631ab06ee5146101fa57610177565b806309cf60911461017c5780631526fe2714610196575b600080fd5b610184610415565b60408051918252519081900360200190f35b6101b3600480360360208110156101ac57600080fd5b5035610423565b604080516001600160a01b039096168652602086019490945284840192909252606084015215156080830152519081900360a00190f35b61018461046e565b610184610474565b61021d6004803603604081101561021057600080fd5b508035906020013561047a565b005b6101846004803603604081101561023557600080fd5b5080359060200135610528565b61021d6004803603604081101561025857600080fd5b50803590602001356105ed565b61021d6004803603602081101561027b57600080fd5b50356107b5565b61021d6004803603602081101561029857600080fd5b503561094a565b61021d600480360360608110156102b557600080fd5b506001600160a01b038135811691602081013591604090910135166109e6565b6102dd610b58565b604080516001600160a01b039092168252519081900360200190f35b6102dd610b67565b610184610b76565b61021d610b7c565b610184610b9f565b6103456004803603604081101561032f57600080fd5b50803590602001356001600160a01b0316610ba5565b6040805192835260208301919091528051918290030190f35b610184610bc9565b61021d6004803603608081101561037c57600080fd5b508035906001600160a01b0360208201351690604081013515159060600135610bcf565b61021d600480360360208110156103b657600080fd5b50356001600160a01b0316610e02565b610184600480360360408110156103dc57600080fd5b50803590602001356001600160a01b0316610e85565b61021d6004803603604081101561040857600080fd5b5080359060200135610ffa565b690cb49b44ba602d80000081565b6002818154811061043057fe5b6000918252602090912060059091020180546001820154600283015460038401546004909401546001600160a01b0390931694509092909160ff1685565b60045481565b60075481565b6000546001600160a01b031633146104c35760405162461bcd60e51b815260040180806020018281038252602c815260200180611841602c913960400191505060405180910390fd5b6104cb610b7c565b6000600283815481106104da57fe5b60009182526020909120600590910201600481015490915060ff16156105215761051d82610517836001015460045461116a90919063ffffffff16565b906111c7565b6004555b6001015550565b6000818310610539575060006105e7565b60065482106105a1576006548310610553575060006105e7565b60055483116105865761057f60075461057960055460065461116a90919063ffffffff16565b90611228565b90506105e7565b61057f6007546105798560065461116a90919063ffffffff16565b60055482116105b2575060006105e7565b60055483116105d65761057f6007546105796005548561116a90919063ffffffff16565b60075461057f90610579848661116a565b92915050565b600033905060006002848154811061060157fe5b600091825260208083208784526003825260408085206001600160a01b03881686529092529220805460059092029092019250841115610688576040805162461bcd60e51b815260206004820152601260248201527f77697468647261773a206e6f7420676f6f640000000000000000000000000000604482015290519081900360640190fd5b610691856107b5565b60006106ce82600101546106c8670de0b6b3a76400006106c28760030154876000015461122890919063ffffffff16565b90611281565b9061116a565b90508015610720576106e084826112e8565b6040805182815290516001600160a01b038616917fe2403640ba68fed3a2f88b7557551d1993f84b99bb10ff833f0cf8db0c5e0486919081900360200190a25b841561074a578154610732908661116a565b8255825461074a906001600160a01b031685876113b7565b6003830154825461076891670de0b6b3a7640000916106c291611228565b600183015560408051868152905187916001600160a01b038716917ff279e6a1f5e320cca91135676d9cb6e44ca8a08c0b88342bcdb1144f6511b5689181900360200190a3505050505050565b6000600282815481106107c457fe5b90600052602060002090600502019050806002015442116107e55750610947565b8054604080517f70a0823100000000000000000000000000000000000000000000000000000000815230600482015290516000926001600160a01b0316916370a08231916024808301926020929190829003018186803b15801561084857600080fd5b505afa15801561085c573d6000803e3d6000fd5b505050506040513d602081101561087257600080fd5b5051905080610888575042600290910155610947565b600482015460ff166108d757600480830180547fffffffffffffffffffffffffffffffffffffffffffffffffffffffffffffff0016600190811790915583015490546108d3916111c7565b6004555b6004541561093e5760006108ef836002015442610528565b905060006109106004546106c286600101548561122890919063ffffffff16565b905061093661092b846106c284670de0b6b3a7640000611228565b6003860154906111c7565b600385015550505b50426002909101555b50565b60006002828154811061095957fe5b6000918252602080832085845260038252604080852033808752935284208054858255600182019590955560059093020180549094509192916109a9916001600160a01b039190911690836113b7565b604080518281529051859133917fbb757047c2b5f3974fe26b7c10f732e7bce710b0952a71082702781e62ae05959181900360200190a350505050565b6000546001600160a01b03163314610a2f5760405162461bcd60e51b815260040180806020018281038252602c815260200180611841602c913960400191505060405180910390fd5b6006546276a70001421015610b3f576001546001600160a01b0384811691161415610aa1576040805162461bcd60e51b815260206004820152600660248201527f6c73686172650000000000000000000000000000000000000000000000000000604482015290519081900360640190fd5b60025460005b81811015610b3c57600060028281548110610abe57fe5b6000918252602090912060059091020180549091506001600160a01b0387811691161415610b33576040805162461bcd60e51b815260206004820152600a60248201527f706f6f6c2e746f6b656e00000000000000000000000000000000000000000000604482015290519081900360640190fd5b50600101610aa7565b50505b610b536001600160a01b03841682846113b7565b505050565b6000546001600160a01b031681565b6001546001600160a01b031681565b60055481565b60025460005b81811015610b9b57610b93816107b5565b600101610b82565b5050565b60065481565b60036020908152600092835260408084209091529082529020805460019091015482565b60085481565b6000546001600160a01b03163314610c185760405162461bcd60e51b815260040180806020018281038252602c815260200180611841602c913960400191505060405180910390fd5b610c2183611437565b8115610c2f57610c2f610b7c565b600554421015610c5b5780610c475750600554610c56565b600554811015610c5657506005545b610c6f565b801580610c6757504281105b15610c6f5750425b600060055482111580610c825750428211155b6040805160a0810182526001600160a01b03878116825260208201898152928201868152600060608401818152861580156080870190815260028054600181018255945295517f405787fa12a823e0f2b7631cc41b3ba8828b3321ca811111fa75cd3aa3bb5ace600590940293840180547fffffffffffffffffffffffff000000000000000000000000000000000000000016919096161790945594517f405787fa12a823e0f2b7631cc41b3ba8828b3321ca811111fa75cd3aa3bb5acf82015590517f405787fa12a823e0f2b7631cc41b3ba8828b3321ca811111fa75cd3aa3bb5ad082015592517f405787fa12a823e0f2b7631cc41b3ba8828b3321ca811111fa75cd3aa3bb5ad184015590517f405787fa12a823e0f2b7631cc41b3ba8828b3321ca811111fa75cd3aa3bb5ad290920180547fffffffffffffffffffffffffffffffffffffffffffffffffffffffffffffff001692151592909217909155909150610dfb57600454610df790866111c7565b6004555b5050505050565b6000546001600160a01b03163314610e4b5760405162461bcd60e51b815260040180806020018281038252602c815260200180611841602c913960400191505060405180910390fd5b600080547fffffffffffffffffffffffff0000000000000000000000000000000000000000166001600160a01b0392909216919091179055565b60008060028481548110610e9557fe5b60009182526020808320878452600380835260408086206001600160a01b03808b168852908552818720600590960290930191820154825482517f70a0823100000000000000000000000000000000000000000000000000000000815230600482015292519398509596909590949316926370a0823192602480840193829003018186803b158015610f2657600080fd5b505afa158015610f3a573d6000803e3d6000fd5b505050506040513d6020811015610f5057600080fd5b5051600285015490915042118015610f6757508015155b15610fc4576000610f7c856002015442610528565b90506000610f9d6004546106c288600101548561122890919063ffffffff16565b9050610fbf610fb8846106c284670de0b6b3a7640000611228565b85906111c7565b935050505b610fef83600101546106c8670de0b6b3a76400006106c286886000015461122890919063ffffffff16565b979650505050505050565b600033905060006002848154811061100e57fe5b600091825260208083208784526003825260408085206001600160a01b0388168652909252922060059091029091019150611048856107b5565b8054156110d457600061108082600101546106c8670de0b6b3a76400006106c28760030154876000015461122890919063ffffffff16565b905080156110d25761109284826112e8565b6040805182815290516001600160a01b038616917fe2403640ba68fed3a2f88b7557551d1993f84b99bb10ff833f0cf8db0c5e0486919081900360200190a25b505b83156111005781546110f1906001600160a01b03168430876114d1565b80546110fd90856111c7565b81555b6003820154815461111e91670de0b6b3a7640000916106c291611228565b600182015560408051858152905186916001600160a01b038616917f90890809c654f11d6e72a28fa60149770a0d11ec6c92319d6ceb2bb0a4ea1a159181900360200190a35050505050565b6000828211156111c1576040805162461bcd60e51b815260206004820152601e60248201527f536166654d6174683a207375627472616374696f6e206f766572666c6f770000604482015290519081900360640190fd5b50900390565b600082820183811015611221576040805162461bcd60e51b815260206004820152601b60248201527f536166654d6174683a206164646974696f6e206f766572666c6f770000000000604482015290519081900360640190fd5b9392505050565b600082611237575060006105e7565b8282028284828161124457fe5b04146112215760405162461bcd60e51b81526004018080602001828103825260218152602001806118936021913960400191505060405180910390fd5b60008082116112d7576040805162461bcd60e51b815260206004820152601a60248201527f536166654d6174683a206469766973696f6e206279207a65726f000000000000604482015290519081900360640190fd5b8183816112e057fe5b049392505050565b600154604080517f70a0823100000000000000000000000000000000000000000000000000000000815230600482015290516000926001600160a01b0316916370a08231916024808301926020929190829003018186803b15801561134c57600080fd5b505afa158015611360573d6000803e3d6000fd5b505050506040513d602081101561137657600080fd5b505190508015610b5357808211156113a45760015461139f906001600160a01b031684836113b7565b610b53565b600154610b53906001600160a01b031684845b604080516001600160a01b038416602482015260448082018490528251808303909101815260649091019091526020810180517bffffffffffffffffffffffffffffffffffffffffffffffffffffffff167fa9059cbb00000000000000000000000000000000000000000000000000000000179052610b5390849061155f565b60025460005b81811015610b5357826001600160a01b03166002828154811061145c57fe5b60009182526020909120600590910201546001600160a01b031614156114c9576040805162461bcd60e51b815260206004820181905260248201527f4c5368617265526577617264506f6f6c3a206578697374696e6720706f6f6c3f604482015290519081900360640190fd5b60010161143d565b604080516001600160a01b0380861660248301528416604482015260648082018490528251808303909101815260849091019091526020810180517bffffffffffffffffffffffffffffffffffffffffffffffffffffffff167f23b872dd0000000000000000000000000000000000000000000000000000000017905261155990859061155f565b50505050565b60606115b4826040518060400160405280602081526020017f5361666545524332303a206c6f772d6c6576656c2063616c6c206661696c6564815250856001600160a01b03166116109092919063ffffffff16565b805190915015610b53578080602001905160208110156115d357600080fd5b5051610b535760405162461bcd60e51b815260040180806020018281038252602a8152602001806118b4602a913960400191505060405180910390fd5b606061161f8484600085611627565b949350505050565b6060824710156116685760405162461bcd60e51b815260040180806020018281038252602681526020018061186d6026913960400191505060405180910390fd5b61167185611796565b6116c2576040805162461bcd60e51b815260206004820152601d60248201527f416464726573733a2063616c6c20746f206e6f6e2d636f6e7472616374000000604482015290519081900360640190fd5b60006060866001600160a01b031685876040518082805190602001908083835b6020831061171f57805182527fffffffffffffffffffffffffffffffffffffffffffffffffffffffffffffffe090920191602091820191016116e2565b6001836020036101000a03801982511681845116808217855250505050505090500191505060006040518083038185875af1925050503d8060008114611781576040519150601f19603f3d011682016040523d82523d6000602084013e611786565b606091505b5091509150610fef82828661179c565b3b151590565b606083156117ab575081611221565b8251156117bb5782518084602001fd5b8160405162461bcd60e51b81526004018080602001828103825283818151815260200191508051906020019080838360005b838110156118055781810151838201526020016117ed565b50505050905090810190601f1680156118325780820380516001836020036101000a031916815260200191505b509250505060405180910390fdfe4c5368617265526577617264506f6f6c3a2063616c6c6572206973206e6f7420746865206f70657261746f72416464726573733a20696e73756666696369656e742062616c616e636520666f722063616c6c536166654d6174683a206d756c7469706c69636174696f6e206f766572666c6f775361666545524332303a204552433230206f7065726174696f6e20646964206e6f742073756363656564a2646970667358221220a747d366db85e8390a542e1d4c32bc63cd2df5e0cc8fcd78d19af5809b23547d64736f6c634300060c0033",
  "linkReferences": {},
  "deployedLinkReferences": {}
}