{
  "_format": "hh-sol-artifact-1",
  "contractName": "Treasury",
  "sourceName": "contracts/Treasury.sol",
  "abi": [
    {
      "anonymous": false,
      "inputs": [
        {
          "indexed": false,
          "internalType": "uint256",
          "name": "timestamp",
          "type": "uint256"
        },
        {
          "indexed": false,
          "internalType": "uint256",
          "name": "seigniorage",
          "type": "uint256"
        }
      ],
      "name": "BoardroomFunded",
      "type": "event"
    },
    {
      "anonymous": false,
      "inputs": [
        {
          "indexed": true,
          "internalType": "address",
          "name": "from",
          "type": "address"
        },
        {
          "indexed": false,
          "internalType": "uint256",
          "name": "libraAmount",
          "type": "uint256"
        },
        {
          "indexed": false,
          "internalType": "uint256",
          "name": "bondAmount",
          "type": "uint256"
        }
      ],
      "name": "BoughtBonds",
      "type": "event"
    },
    {
      "anonymous": false,
      "inputs": [
        {
          "indexed": true,
          "internalType": "address",
          "name": "from",
          "type": "address"
        },
        {
          "indexed": false,
          "internalType": "uint256",
          "name": "bondAmount",
          "type": "uint256"
        }
      ],
      "name": "BurnedBonds",
      "type": "event"
    },
    {
      "anonymous": false,
      "inputs": [
        {
          "indexed": false,
          "internalType": "uint256",
          "name": "timestamp",
          "type": "uint256"
        },
        {
          "indexed": false,
          "internalType": "uint256",
          "name": "seigniorage",
          "type": "uint256"
        }
      ],
      "name": "DaoFundFunded",
      "type": "event"
    },
    {
      "anonymous": false,
      "inputs": [
        {
          "indexed": false,
          "internalType": "uint256",
          "name": "timestamp",
          "type": "uint256"
        },
        {
          "indexed": false,
          "internalType": "uint256",
          "name": "seigniorage",
          "type": "uint256"
        }
      ],
      "name": "DevFundFunded",
      "type": "event"
    },
    {
      "anonymous": false,
      "inputs": [
        {
          "indexed": true,
          "internalType": "address",
          "name": "executor",
          "type": "address"
        },
        {
          "indexed": false,
          "internalType": "uint256",
          "name": "at",
          "type": "uint256"
        }
      ],
      "name": "Initialized",
      "type": "event"
    },
    {
      "anonymous": false,
      "inputs": [
        {
          "indexed": false,
          "internalType": "uint256",
          "name": "timestamp",
          "type": "uint256"
        },
        {
          "indexed": false,
          "internalType": "uint256",
          "name": "seigniorage",
          "type": "uint256"
        }
      ],
      "name": "InsuranceFundFunded",
      "type": "event"
    },
    {
      "anonymous": false,
      "inputs": [
        {
          "indexed": true,
          "internalType": "address",
          "name": "from",
          "type": "address"
        },
        {
          "indexed": false,
          "internalType": "uint256",
          "name": "libraAmount",
          "type": "uint256"
        },
        {
          "indexed": false,
          "internalType": "uint256",
          "name": "bondAmount",
          "type": "uint256"
        }
      ],
      "name": "RedeemedBonds",
      "type": "event"
    },
    {
      "anonymous": false,
      "inputs": [
        {
          "indexed": false,
          "internalType": "uint256",
          "name": "timestamp",
          "type": "uint256"
        },
        {
          "indexed": false,
          "internalType": "uint256",
          "name": "seigniorage",
          "type": "uint256"
        }
      ],
      "name": "TreasuryFunded",
      "type": "event"
    },
    {
      "inputs": [],
      "name": "PERIOD",
      "outputs": [
        {
          "internalType": "uint256",
          "name": "",
          "type": "uint256"
        }
      ],
      "stateMutability": "view",
      "type": "function"
    },
    {
      "inputs": [],
      "name": "allocateSeigniorage",
      "outputs": [],
      "stateMutability": "nonpayable",
      "type": "function"
    },
    {
      "inputs": [],
      "name": "boardroom",
      "outputs": [
        {
          "internalType": "address",
          "name": "",
          "type": "address"
        }
      ],
      "stateMutability": "view",
      "type": "function"
    },
    {
      "inputs": [
        {
          "internalType": "uint256",
          "name": "amount",
          "type": "uint256"
        }
      ],
      "name": "boardroomAllocateSeigniorage",
      "outputs": [],
      "stateMutability": "nonpayable",
      "type": "function"
    },
    {
      "inputs": [
        {
          "internalType": "address",
          "name": "_token",
          "type": "address"
        },
        {
          "internalType": "uint256",
          "name": "_amount",
          "type": "uint256"
        },
        {
          "internalType": "address",
          "name": "_to",
          "type": "address"
        }
      ],
      "name": "boardroomGovernanceRecoverUnsupported",
      "outputs": [],
      "stateMutability": "nonpayable",
      "type": "function"
    },
    {
      "inputs": [
        {
          "internalType": "uint256",
          "name": "_withdrawLockupEpochs",
          "type": "uint256"
        },
        {
          "internalType": "uint256",
          "name": "_rewardLockupEpochs",
          "type": "uint256"
        }
      ],
      "name": "boardroomSetLockUp",
      "outputs": [],
      "stateMutability": "nonpayable",
      "type": "function"
    },
    {
      "inputs": [
        {
          "internalType": "address",
          "name": "_operator",
          "type": "address"
        }
      ],
      "name": "boardroomSetOperator",
      "outputs": [],
      "stateMutability": "nonpayable",
      "type": "function"
    },
    {
      "inputs": [],
      "name": "bondDepletionFloorPercent",
      "outputs": [
        {
          "internalType": "uint256",
          "name": "",
          "type": "uint256"
        }
      ],
      "stateMutability": "view",
      "type": "function"
    },
    {
      "inputs": [],
      "name": "bondSupplyExpansionPercent",
      "outputs": [
        {
          "internalType": "uint256",
          "name": "",
          "type": "uint256"
        }
      ],
      "stateMutability": "view",
      "type": "function"
    },
    {
      "inputs": [],
      "name": "bootstrapEpochs",
      "outputs": [
        {
          "internalType": "uint256",
          "name": "",
          "type": "uint256"
        }
      ],
      "stateMutability": "view",
      "type": "function"
    },
    {
      "inputs": [],
      "name": "bootstrapSupplyExpansionPercent",
      "outputs": [
        {
          "internalType": "uint256",
          "name": "",
          "type": "uint256"
        }
      ],
      "stateMutability": "view",
      "type": "function"
    },
    {
      "inputs": [
        {
          "internalType": "uint256",
          "name": "_libraAmount",
          "type": "uint256"
        },
        {
          "internalType": "uint256",
          "name": "targetPrice",
          "type": "uint256"
        }
      ],
      "name": "buyBonds",
      "outputs": [],
      "stateMutability": "nonpayable",
      "type": "function"
    },
    {
      "inputs": [],
      "name": "daoFund",
      "outputs": [
        {
          "internalType": "address",
          "name": "",
          "type": "address"
        }
      ],
      "stateMutability": "view",
      "type": "function"
    },
    {
      "inputs": [],
      "name": "daoFundSharedPercent",
      "outputs": [
        {
          "internalType": "uint256",
          "name": "",
          "type": "uint256"
        }
      ],
      "stateMutability": "view",
      "type": "function"
    },
    {
      "inputs": [],
      "name": "devFund",
      "outputs": [
        {
          "internalType": "address",
          "name": "",
          "type": "address"
        }
      ],
      "stateMutability": "view",
      "type": "function"
    },
    {
      "inputs": [],
      "name": "devFundSharedPercent",
      "outputs": [
        {
          "internalType": "uint256",
          "name": "",
          "type": "uint256"
        }
      ],
      "stateMutability": "view",
      "type": "function"
    },
    {
      "inputs": [],
      "name": "discountPercent",
      "outputs": [
        {
          "internalType": "uint256",
          "name": "",
          "type": "uint256"
        }
      ],
      "stateMutability": "view",
      "type": "function"
    },
    {
      "inputs": [],
      "name": "epoch",
      "outputs": [
        {
          "internalType": "uint256",
          "name": "",
          "type": "uint256"
        }
      ],
      "stateMutability": "view",
      "type": "function"
    },
    {
      "inputs": [],
      "name": "epochSupplyContractionLeft",
      "outputs": [
        {
          "internalType": "uint256",
          "name": "",
          "type": "uint256"
        }
      ],
      "stateMutability": "view",
      "type": "function"
    },
    {
      "inputs": [
        {
          "internalType": "uint256",
          "name": "",
          "type": "uint256"
        }
      ],
      "name": "excludedFromTotalSupply",
      "outputs": [
        {
          "internalType": "address",
          "name": "",
          "type": "address"
        }
      ],
      "stateMutability": "view",
      "type": "function"
    },
    {
      "inputs": [],
      "name": "getBondDiscountRate",
      "outputs": [
        {
          "internalType": "uint256",
          "name": "_rate",
          "type": "uint256"
        }
      ],
      "stateMutability": "view",
      "type": "function"
    },
    {
      "inputs": [],
      "name": "getBondPremiumRate",
      "outputs": [
        {
          "internalType": "uint256",
          "name": "_rate",
          "type": "uint256"
        }
      ],
      "stateMutability": "view",
      "type": "function"
    },
    {
      "inputs": [],
      "name": "getBurnableLibraLeft",
      "outputs": [
        {
          "internalType": "uint256",
          "name": "_burnableLibraLeft",
          "type": "uint256"
        }
      ],
      "stateMutability": "view",
      "type": "function"
    },
    {
      "inputs": [],
      "name": "getLibraCirculatingSupply",
      "outputs": [
        {
          "internalType": "uint256",
          "name": "",
          "type": "uint256"
        }
      ],
      "stateMutability": "view",
      "type": "function"
    },
    {
      "inputs": [],
      "name": "getLibraPrice",
      "outputs": [
        {
          "internalType": "uint256",
          "name": "libraPrice",
          "type": "uint256"
        }
      ],
      "stateMutability": "view",
      "type": "function"
    },
    {
      "inputs": [],
      "name": "getLibraUpdatedPrice",
      "outputs": [
        {
          "internalType": "uint256",
          "name": "_libraPrice",
          "type": "uint256"
        }
      ],
      "stateMutability": "view",
      "type": "function"
    },
    {
      "inputs": [],
      "name": "getRedeemableBonds",
      "outputs": [
        {
          "internalType": "uint256",
          "name": "_redeemableBonds",
          "type": "uint256"
        }
      ],
      "stateMutability": "view",
      "type": "function"
    },
    {
      "inputs": [],
      "name": "getReserve",
      "outputs": [
        {
          "internalType": "uint256",
          "name": "",
          "type": "uint256"
        }
      ],
      "stateMutability": "view",
      "type": "function"
    },
    {
      "inputs": [
        {
          "internalType": "contract IERC20",
          "name": "_token",
          "type": "address"
        },
        {
          "internalType": "uint256",
          "name": "_amount",
          "type": "uint256"
        },
        {
          "internalType": "address",
          "name": "_to",
          "type": "address"
        }
      ],
      "name": "governanceRecoverUnsupported",
      "outputs": [],
      "stateMutability": "nonpayable",
      "type": "function"
    },
    {
      "inputs": [
        {
          "internalType": "address",
          "name": "_libra",
          "type": "address"
        },
        {
          "internalType": "address",
          "name": "_lbond",
          "type": "address"
        },
        {
          "internalType": "address",
          "name": "_lshare",
          "type": "address"
        },
        {
          "internalType": "address",
          "name": "_libraOracle",
          "type": "address"
        },
        {
          "internalType": "address",
          "name": "_boardroom",
          "type": "address"
        },
        {
          "internalType": "address",
          "name": "_genesisPool",
          "type": "address"
        },
        {
          "internalType": "uint256",
          "name": "_startTime",
          "type": "uint256"
        }
      ],
      "name": "initialize",
      "outputs": [],
      "stateMutability": "nonpayable",
      "type": "function"
    },
    {
      "inputs": [],
      "name": "initialized",
      "outputs": [
        {
          "internalType": "bool",
          "name": "",
          "type": "bool"
        }
      ],
      "stateMutability": "view",
      "type": "function"
    },
    {
      "inputs": [],
      "name": "insuranceFund",
      "outputs": [
        {
          "internalType": "address",
          "name": "",
          "type": "address"
        }
      ],
      "stateMutability": "view",
      "type": "function"
    },
    {
      "inputs": [],
      "name": "insuranceFundSharedPercent",
      "outputs": [
        {
          "internalType": "uint256",
          "name": "",
          "type": "uint256"
        }
      ],
      "stateMutability": "view",
      "type": "function"
    },
    {
      "inputs": [],
      "name": "isInitialized",
      "outputs": [
        {
          "internalType": "bool",
          "name": "",
          "type": "bool"
        }
      ],
      "stateMutability": "view",
      "type": "function"
    },
    {
      "inputs": [],
      "name": "lbond",
      "outputs": [
        {
          "internalType": "address",
          "name": "",
          "type": "address"
        }
      ],
      "stateMutability": "view",
      "type": "function"
    },
    {
      "inputs": [],
      "name": "libra",
      "outputs": [
        {
          "internalType": "address",
          "name": "",
          "type": "address"
        }
      ],
      "stateMutability": "view",
      "type": "function"
    },
    {
      "inputs": [],
      "name": "libraOracle",
      "outputs": [
        {
          "internalType": "address",
          "name": "",
          "type": "address"
        }
      ],
      "stateMutability": "view",
      "type": "function"
    },
    {
      "inputs": [],
      "name": "libraPriceCeiling",
      "outputs": [
        {
          "internalType": "uint256",
          "name": "",
          "type": "uint256"
        }
      ],
      "stateMutability": "view",
      "type": "function"
    },
    {
      "inputs": [],
      "name": "libraPriceOne",
      "outputs": [
        {
          "internalType": "uint256",
          "name": "",
          "type": "uint256"
        }
      ],
      "stateMutability": "view",
      "type": "function"
    },
    {
      "inputs": [],
      "name": "lshare",
      "outputs": [
        {
          "internalType": "address",
          "name": "",
          "type": "address"
        }
      ],
      "stateMutability": "view",
      "type": "function"
    },
    {
      "inputs": [],
      "name": "maxDebtRatioPercent",
      "outputs": [
        {
          "internalType": "uint256",
          "name": "",
          "type": "uint256"
        }
      ],
      "stateMutability": "view",
      "type": "function"
    },
    {
      "inputs": [],
      "name": "maxDiscountRate",
      "outputs": [
        {
          "internalType": "uint256",
          "name": "",
          "type": "uint256"
        }
      ],
      "stateMutability": "view",
      "type": "function"
    },
    {
      "inputs": [
        {
          "internalType": "uint256",
          "name": "",
          "type": "uint256"
        }
      ],
      "name": "maxExpansionTiers",
      "outputs": [
        {
          "internalType": "uint256",
          "name": "",
          "type": "uint256"
        }
      ],
      "stateMutability": "view",
      "type": "function"
    },
    {
      "inputs": [],
      "name": "maxPremiumRate",
      "outputs": [
        {
          "internalType": "uint256",
          "name": "",
          "type": "uint256"
        }
      ],
      "stateMutability": "view",
      "type": "function"
    },
    {
      "inputs": [],
      "name": "maxSupplyContractionPercent",
      "outputs": [
        {
          "internalType": "uint256",
          "name": "",
          "type": "uint256"
        }
      ],
      "stateMutability": "view",
      "type": "function"
    },
    {
      "inputs": [],
      "name": "maxSupplyExpansionPercent",
      "outputs": [
        {
          "internalType": "uint256",
          "name": "",
          "type": "uint256"
        }
      ],
      "stateMutability": "view",
      "type": "function"
    },
    {
      "inputs": [],
      "name": "mintingFactorForPayingDebt",
      "outputs": [
        {
          "internalType": "uint256",
          "name": "",
          "type": "uint256"
        }
      ],
      "stateMutability": "view",
      "type": "function"
    },
    {
      "inputs": [],
      "name": "nextEpochPoint",
      "outputs": [
        {
          "internalType": "uint256",
          "name": "",
          "type": "uint256"
        }
      ],
      "stateMutability": "view",
      "type": "function"
    },
    {
      "inputs": [],
      "name": "operator",
      "outputs": [
        {
          "internalType": "address",
          "name": "",
          "type": "address"
        }
      ],
      "stateMutability": "view",
      "type": "function"
    },
    {
      "inputs": [],
      "name": "premiumPercent",
      "outputs": [
        {
          "internalType": "uint256",
          "name": "",
          "type": "uint256"
        }
      ],
      "stateMutability": "view",
      "type": "function"
    },
    {
      "inputs": [],
      "name": "premiumThreshold",
      "outputs": [
        {
          "internalType": "uint256",
          "name": "",
          "type": "uint256"
        }
      ],
      "stateMutability": "view",
      "type": "function"
    },
    {
      "inputs": [],
      "name": "previousEpochLibraPrice",
      "outputs": [
        {
          "internalType": "uint256",
          "name": "",
          "type": "uint256"
        }
      ],
      "stateMutability": "view",
      "type": "function"
    },
    {
      "inputs": [
        {
          "internalType": "uint256",
          "name": "_bondAmount",
          "type": "uint256"
        },
        {
          "internalType": "uint256",
          "name": "targetPrice",
          "type": "uint256"
        }
      ],
      "name": "redeemBonds",
      "outputs": [],
      "stateMutability": "nonpayable",
      "type": "function"
    },
    {
      "inputs": [],
      "name": "seigniorageExpansionFloorPercent",
      "outputs": [
        {
          "internalType": "uint256",
          "name": "",
          "type": "uint256"
        }
      ],
      "stateMutability": "view",
      "type": "function"
    },
    {
      "inputs": [],
      "name": "seigniorageSaved",
      "outputs": [
        {
          "internalType": "uint256",
          "name": "",
          "type": "uint256"
        }
      ],
      "stateMutability": "view",
      "type": "function"
    },
    {
      "inputs": [
        {
          "internalType": "address",
          "name": "_boardroom",
          "type": "address"
        }
      ],
      "name": "setBoardroom",
      "outputs": [],
      "stateMutability": "nonpayable",
      "type": "function"
    },
    {
      "inputs": [
        {
          "internalType": "uint256",
          "name": "_bondDepletionFloorPercent",
          "type": "uint256"
        }
      ],
      "name": "setBondDepletionFloorPercent",
      "outputs": [],
      "stateMutability": "nonpayable",
      "type": "function"
    },
    {
      "inputs": [
        {
          "internalType": "uint256",
          "name": "_bondSupplyExpansionPercent",
          "type": "uint256"
        }
      ],
      "name": "setBondSupplyExpansionPercent",
      "outputs": [],
      "stateMutability": "nonpayable",
      "type": "function"
    },
    {
      "inputs": [
        {
          "internalType": "uint256",
          "name": "_bootstrapEpochs",
          "type": "uint256"
        },
        {
          "internalType": "uint256",
          "name": "_bootstrapSupplyExpansionPercent",
          "type": "uint256"
        }
      ],
      "name": "setBootstrap",
      "outputs": [],
      "stateMutability": "nonpayable",
      "type": "function"
    },
    {
      "inputs": [
        {
          "internalType": "uint256",
          "name": "_discountPercent",
          "type": "uint256"
        }
      ],
      "name": "setDiscountPercent",
      "outputs": [],
      "stateMutability": "nonpayable",
      "type": "function"
    },
    {
      "inputs": [
        {
          "internalType": "address",
          "name": "_daoFund",
          "type": "address"
        },
        {
          "internalType": "uint256",
          "name": "_daoFundSharedPercent",
          "type": "uint256"
        },
        {
          "internalType": "address",
          "name": "_devFund",
          "type": "address"
        },
        {
          "internalType": "uint256",
          "name": "_devFundSharedPercent",
          "type": "uint256"
        },
        {
          "internalType": "address",
          "name": "_insuranceFund",
          "type": "address"
        },
        {
          "internalType": "uint256",
          "name": "_insuranceFundSharedPercent",
          "type": "uint256"
        }
      ],
      "name": "setExtraFunds",
      "outputs": [],
      "stateMutability": "nonpayable",
      "type": "function"
    },
    {
      "inputs": [
        {
          "internalType": "address",
          "name": "_libraOracle",
          "type": "address"
        }
      ],
      "name": "setLibraOracle",
      "outputs": [],
      "stateMutability": "nonpayable",
      "type": "function"
    },
    {
      "inputs": [
        {
          "internalType": "uint256",
          "name": "_libraPriceCeiling",
          "type": "uint256"
        }
      ],
      "name": "setLibraPriceCeiling",
      "outputs": [],
      "stateMutability": "nonpayable",
      "type": "function"
    },
    {
      "inputs": [
        {
          "internalType": "uint256",
          "name": "_maxDebtRatioPercent",
          "type": "uint256"
        }
      ],
      "name": "setMaxDebtRatioPercent",
      "outputs": [],
      "stateMutability": "nonpayable",
      "type": "function"
    },
    {
      "inputs": [
        {
          "internalType": "uint256",
          "name": "_maxDiscountRate",
          "type": "uint256"
        }
      ],
      "name": "setMaxDiscountRate",
      "outputs": [],
      "stateMutability": "nonpayable",
      "type": "function"
    },
    {
      "inputs": [
        {
          "internalType": "uint8",
          "name": "_index",
          "type": "uint8"
        },
        {
          "internalType": "uint256",
          "name": "_value",
          "type": "uint256"
        }
      ],
      "name": "setMaxExpansionTiersEntry",
      "outputs": [
        {
          "internalType": "bool",
          "name": "",
          "type": "bool"
        }
      ],
      "stateMutability": "nonpayable",
      "type": "function"
    },
    {
      "inputs": [
        {
          "internalType": "uint256",
          "name": "_maxPremiumRate",
          "type": "uint256"
        }
      ],
      "name": "setMaxPremiumRate",
      "outputs": [],
      "stateMutability": "nonpayable",
      "type": "function"
    },
    {
      "inputs": [
        {
          "internalType": "uint256",
          "name": "_maxSupplyContractionPercent",
          "type": "uint256"
        }
      ],
      "name": "setMaxSupplyContractionPercent",
      "outputs": [],
      "stateMutability": "nonpayable",
      "type": "function"
    },
    {
      "inputs": [
        {
          "internalType": "uint256",
          "name": "_maxSupplyExpansionPercent",
          "type": "uint256"
        }
      ],
      "name": "setMaxSupplyExpansionPercents",
      "outputs": [],
      "stateMutability": "nonpayable",
      "type": "function"
    },
    {
      "inputs": [
        {
          "internalType": "uint256",
          "name": "_mintingFactorForPayingDebt",
          "type": "uint256"
        }
      ],
      "name": "setMintingFactorForPayingDebt",
      "outputs": [],
      "stateMutability": "nonpayable",
      "type": "function"
    },
    {
      "inputs": [
        {
          "internalType": "address",
          "name": "_operator",
          "type": "address"
        }
      ],
      "name": "setOperator",
      "outputs": [],
      "stateMutability": "nonpayable",
      "type": "function"
    },
    {
      "inputs": [
        {
          "internalType": "uint256",
          "name": "_premiumPercent",
          "type": "uint256"
        }
      ],
      "name": "setPremiumPercent",
      "outputs": [],
      "stateMutability": "nonpayable",
      "type": "function"
    },
    {
      "inputs": [
        {
          "internalType": "uint256",
          "name": "_premiumThreshold",
          "type": "uint256"
        }
      ],
      "name": "setPremiumThreshold",
      "outputs": [],
      "stateMutability": "nonpayable",
      "type": "function"
    },
    {
      "inputs": [
        {
          "internalType": "uint8",
          "name": "_index",
          "type": "uint8"
        },
        {
          "internalType": "uint256",
          "name": "_value",
          "type": "uint256"
        }
      ],
      "name": "setSupplyTiersEntry",
      "outputs": [
        {
          "internalType": "bool",
          "name": "",
          "type": "bool"
        }
      ],
      "stateMutability": "nonpayable",
      "type": "function"
    },
    {
      "inputs": [],
      "name": "startTime",
      "outputs": [
        {
          "internalType": "uint256",
          "name": "",
          "type": "uint256"
        }
      ],
      "stateMutability": "view",
      "type": "function"
    },
    {
      "inputs": [
        {
          "internalType": "uint256",
          "name": "",
          "type": "uint256"
        }
      ],
      "name": "supplyTiers",
      "outputs": [
        {
          "internalType": "uint256",
          "name": "",
          "type": "uint256"
        }
      ],
      "stateMutability": "view",
      "type": "function"
    }
  ],
  "bytecode": "0x60806040526001805460ff60a01b191690556000600381905560045534801561002757600080fd5b50614dcf806100376000396000f3fe608060405234801561001057600080fd5b50600436106105145760003560e01c806382cad838116102a1578063b4d1d7951161016b578063d98f2495116100e3578063f245245a11610097578063f921eb331161007c578063f921eb3314610aea578063fcb6f00814610b07578063fec3a60114610b0f57610514565b8063f245245a14610aaa578063f8cd4d7214610ac757610514565b8063dfe2f9ee116100c8578063dfe2f9ee14610a92578063e90b245414610a9a578063f14698de14610aa257610514565b8063d98f249514610a82578063da3ed41914610a8a57610514565b8063c5967c261161013a578063c8f987f31161011f578063c8f987f314610a37578063cecce38e14610a3f578063d4b1494414610a5c57610514565b8063c5967c2614610a27578063c8412d0214610a2f57610514565b8063b4d1d79514610a07578063b790230314610a0f578063b8a878f914610a17578063bd20f9af14610a1f57610514565b80639982002511610219578063aed3ba6b116101cd578063b3ab15fb116101b2578063b3ab15fb146109b3578063b3ffc777146109d9578063b40d7365146109ff57610514565b8063aed3ba6b14610985578063b06ce14a1461098d57610514565b8063a0487eea116101fe578063a0487eea14610915578063a204452b14610932578063a3ec30fe1461094f57610514565b806399820025146108f05780639f7be3251461090d57610514565b80638d934f741161027057806391bbfed51161025557806391bbfed51461088a578063940e6064146108ad57806398b762a1146108d357610514565b80638d934f741461087a578063900cf0cf1461088257610514565b806382cad83814610830578063860c31771461084d578063874106cc146108555780638c664db61461085d57610514565b80634013a08e116103e257806358a698331161035a5780635b7561791161030e57806372c054f9116102f357806372c054f91461081857806378e979251461082057806381d11eaf1461082857610514565b80635b756179146108085780635e02c51e1461081057610514565b806359bf5d391161033f57806359bf5d39146107f05780635a0fc79c146107f85780635b0231681461080057610514565b806358a69833146107ad578063591663e1146107d357610514565b8063499f3f19116103b157806354f04a111161039657806354f04a111461077a57806355ebdeef1461079d578063570ca735146107a557610514565b8063499f3f191461072757806354575af41461074457610514565b80634013a08e146106d657806340af7ba5146106de57806342679903146106fb5780634390d2a81461070357610514565b8063154ec2db1161049057806322f832cd116104445780632e9c7b65116104295780632e9c7b65146106be578063349aa30a146106c6578063392e53cd146106ce57610514565b806322f832cd146106ae57806329ef1919146106b657610514565b806316f5ff171161047557806316f5ff1714610656578063196dd8621461065e5780631b0fb35f1461066657610514565b8063154ec2db1461061d578063158ef93e1461063a57610514565b80630cf60175116104e75780630f25cde5116104cc5780630f25cde51461059c578063118ebbf9146105a45780631460e390146105c757610514565b80630cf601751461058c5780630db7eb0b1461059457610514565b806301a937831461051957806303be7e761461053857806304e5c7b1146105525780630b5bcec71461056f575b600080fd5b6105366004803603602081101561052f57600080fd5b5035610b17565b005b610540610be1565b60408051918252519081900360200190f35b6105366004803603602081101561056857600080fd5b5035610be7565b6105366004803603602081101561058557600080fd5b5035610cb6565b610540610d52565b610540610e04565b610540610ea6565b610536600480360360408110156105ba57600080fd5b5080359060200135610eac565b610536600480360360e08110156105dd57600080fd5b506001600160a01b038135811691602081013582169160408201358116916060810135821691608082013581169160a08101359091169060c0013561153f565b6105366004803603602081101561063357600080fd5b50356118f5565b61064261199a565b604080519115158252519081900360200190f35b6105406119bb565b610540611aaf565b610536600480360360c081101561067c57600080fd5b506001600160a01b03813581169160208101359160408201358116916060810135916080820135169060a00135611c28565b610540611ee9565b610540611eef565b610540611ef5565b610540611efb565b610642611f01565b610540611f22565b610536600480360360208110156106f457600080fd5b5035611f28565b610540611fcd565b61070b611fd3565b604080516001600160a01b039092168252519081900360200190f35b6105366004803603602081101561073d57600080fd5b5035611fe2565b6105366004803603606081101561075a57600080fd5b506001600160a01b0381358116916020810135916040909101351661207f565b6105366004803603604081101561079057600080fd5b508035906020013561220c565b61054061298b565b61070b612991565b610536600480360360208110156107c357600080fd5b50356001600160a01b03166129a0565b610536600480360360208110156107e957600080fd5b5035612a18565b610540612acb565b610540612ad1565b61070b612ad7565b610536612ae6565b61070b6131ce565b6105406131dd565b6105406132ae565b6105406132b4565b61070b6004803603602081101561084657600080fd5b50356132ba565b6105406132e1565b6105406132e7565b6105366004803603602081101561087357600080fd5b50356132ed565b61070b6133a0565b6105406133af565b610536600480360360408110156108a057600080fd5b50803590602001356133b5565b610642600480360360408110156108c357600080fd5b5060ff81351690602001356134ad565b610536600480360360208110156108e957600080fd5b50356135c9565b6105406004803603602081101561090657600080fd5b5035613617565b61070b613635565b6105406004803603602081101561092b57600080fd5b5035613644565b6105366004803603602081101561094857600080fd5b5035613651565b6105366004803603606081101561096557600080fd5b506001600160a01b0381358116916020810135916040909101351661369f565b61070b61377b565b610536600480360360208110156109a357600080fd5b50356001600160a01b031661378a565b610536600480360360208110156109c957600080fd5b50356001600160a01b031661383a565b610536600480360360208110156109ef57600080fd5b50356001600160a01b03166138b2565b61054061392a565b610540613a31565b61070b613a37565b610540613a46565b610540613a4c565b610540613ac7565b610540613af1565b610540613af7565b61053660048036036020811015610a5557600080fd5b5035613afd565b61064260048036036040811015610a7257600080fd5b5060ff8135169060200135613baf565b610540613cb2565b610540613cb8565b610540613cbe565b610540613cc4565b610540613cca565b61053660048036036020811015610ac057600080fd5b5035613cd0565b61053660048036036040811015610add57600080fd5b5080359060200135613d1e565b61053660048036036020811015610b0057600080fd5b5035613df0565b610540613ebb565b61070b613ec1565b6001546001600160a01b03163314610b605760405162461bcd60e51b8152600401808060200182810382526024815260200180614c986024913960400191505060405180910390fd5b600954604080517f97ffe1d70000000000000000000000000000000000000000000000000000000081526004810184905290516001600160a01b03909216916397ffe1d79160248082019260009290919082900301818387803b158015610bc657600080fd5b505af1158015610bda573d6000803e3d6000fd5b5050505050565b60225481565b6001546001600160a01b03163314610c305760405162461bcd60e51b8152600401808060200182810382526024815260200180614c986024913960400191505060405180910390fd5b600c54811015610c715760405162461bcd60e51b815260040180806020018281038252602b815260200180614b00602b913960400191505060405180910390fd5b6096811115610cb15760405162461bcd60e51b8152600401808060200182810382526024815260200180614b2b6024913960400191505060405180910390fd5b601c55565b6001546001600160a01b03163314610cff5760405162461bcd60e51b8152600401808060200182810382526024815260200180614c986024913960400191505060405180910390fd5b600a8110158015610d1257506103e88111155b610d4d5760405162461bcd60e51b8152600401808060200182810382526028815260200180614c476028913960400191505060405180910390fd5b601055565b600080610d5d613a4c565b9050600b548111610e0057601b54610d7957600b549150610e00565b6000610da282610d9c670de0b6b3a7640000600b54613ed090919063ffffffff16565b90613f30565b90506000610dcd612710610d9c601b54610dc7600b5487613f9790919063ffffffff16565b90613ed0565b600b54909150610ddd9082613ff4565b93506000601954118015610df2575060195484115b15610dfd5760195493505b50505b5090565b600080610e0f613a4c565b9050600c54811115610e00576000610e396064610d9c601c54600b54613ed090919063ffffffff16565b9050808210610e9b576000610e65612710610d9c601d54610dc7600b5488613f9790919063ffffffff16565b600b54909150610e759082613ff4565b93506000601a54118015610e8a5750601a5484115b15610e9557601a5493505b50610ea1565b600b5492505b505090565b600b5481565b610eb461404e565b15610ef05760405162461bcd60e51b8152600401808060200182810382526026815260200180614ce66026913960400191505060405180910390fd5b610ef861406d565b15610f345760405162461bcd60e51b8152600401808060200182810382526026815260200180614ce66026913960400191505060405180910390fd5b600254421015610f8b576040805162461bcd60e51b815260206004820152601960248201527f54726561737572793a206e6f7420737461727465642079657400000000000000604482015290519081900360640190fd5b6006546040805163570ca73560e01b8152905130926001600160a01b03169163570ca735916004808301926020929190829003018186803b158015610fcf57600080fd5b505afa158015610fe3573d6000803e3d6000fd5b505050506040513d6020811015610ff957600080fd5b50516001600160a01b031614801561108757506007546040805163570ca73560e01b8152905130926001600160a01b03169163570ca735916004808301926020929190829003018186803b15801561105057600080fd5b505afa158015611064573d6000803e3d6000fd5b505050506040513d602081101561107a57600080fd5b50516001600160a01b0316145b801561110957506008546040805163570ca73560e01b8152905130926001600160a01b03169163570ca735916004808301926020929190829003018186803b1580156110d257600080fd5b505afa1580156110e6573d6000803e3d6000fd5b505050506040513d60208110156110fc57600080fd5b50516001600160a01b0316145b801561118b57506009546040805163570ca73560e01b8152905130926001600160a01b03169163570ca735916004808301926020929190829003018186803b15801561115457600080fd5b505afa158015611168573d6000803e3d6000fd5b505050506040513d602081101561117e57600080fd5b50516001600160a01b0316145b6111dc576040805162461bcd60e51b815260206004820152601e60248201527f54726561737572793a206e656564206d6f7265207065726d697373696f6e0000604482015290519081900360640190fd5b6000821161121b5760405162461bcd60e51b815260040180806020018281038252602e815260200180614a9b602e913960400191505060405180910390fd5b6000611225613a4c565b905081811461127b576040805162461bcd60e51b815260206004820152601b60248201527f54726561737572793a204c49425241207072696365206d6f7665640000000000604482015290519081900360640190fd5b600c5481116112bb5760405162461bcd60e51b8152600401808060200182810382526033815260200180614b9a6033913960400191505060405180910390fd5b60006112c5610e04565b90506000811161131c576040805162461bcd60e51b815260206004820152601b60248201527f54726561737572793a20696e76616c696420626f6e6420726174650000000000604482015290519081900360640190fd5b6000611334670de0b6b3a7640000610d9c8785613ed0565b600654604080517f70a08231000000000000000000000000000000000000000000000000000000008152306004820152905192935083926001600160a01b03909216916370a0823191602480820192602092909190829003018186803b15801561139d57600080fd5b505afa1580156113b1573d6000803e3d6000fd5b505050506040513d60208110156113c757600080fd5b505110156114065760405162461bcd60e51b8152600401808060200182810382526025815260200180614b756025913960400191505060405180910390fd5b61141e611415600d548361408c565b600d5490613f97565b600d55600754604080517f79cc67900000000000000000000000000000000000000000000000000000000081523360048201526024810188905290516001600160a01b03909216916379cc67909160448082019260009290919082900301818387803b15801561148d57600080fd5b505af11580156114a1573d6000803e3d6000fd5b50506006546114bd92506001600160a01b0316905033836140a2565b6114c5614122565b6040805182815260208101879052815133927f51e0d16595cabc591e64da08e45bb223577e5b9a39cd947b4ddc3472b2dd8878928290030190a25050436000908152602081815260408083203284529091528082208054600160ff1991821681179092553384529190922080549091169091179055505050565b60015474010000000000000000000000000000000000000000900460ff16156115af576040805162461bcd60e51b815260206004820152601d60248201527f54726561737572793a20616c726561647920696e697469616c697a6564000000604482015290519081900360640190fd5b6006805473ffffffffffffffffffffffffffffffffffffffff199081166001600160a01b038a811691909117909255600780548216898416179055600880548216888416179055600a80548216878416179055600980549091169185169190911790556002819055670de0b6b3a7640000600b81905561163790606490610d9c906065613ed0565b600c556005805460018101825560009182527f036b6384b5eca791c62761152d0c79bb0604c104a5fb6f4eb0703f3154bb3db001805473ffffffffffffffffffffffffffffffffffffffff19166001600160a01b03851617905560408051610120810182529182526969e10de76676d0800000602083015269d3c21bcecceda1000000908201526a013da329b633647180000060608201526a01a784379d99db4200000060808201526a0422ca8b0a00a42500000060a08201526a084595161401484a00000060c08201526a108b2a2c2802909400000060e08201526a295be96e6406697200000061010082015261173390600e9060096149ee565b5060408051610120810182526101c28152610190602082015261015e9181019190915261012c606082015260fa608082015260c860a0820152609660c0820152607d60e0820152606461010082015261179090600f906009614a44565b50610190601055612710601155610dac601281905561012c6013556014556101f46015819055606e601c55611b58601d55600c601655601755600654604080517f70a0823100000000000000000000000000000000000000000000000000000000815230600482015290516001600160a01b03909216916370a0823191602480820192602092909190829003018186803b15801561182d57600080fd5b505afa158015611841573d6000803e3d6000fd5b505050506040513d602081101561185757600080fd5b5051600d556001805473ffffffffffffffffffffffffffffffffffffffff197fffffffffffffffffffffff00ffffffffffffffffffffffffffffffffffffffff909116740100000000000000000000000000000000000000001716339081179091556040805143815290517f25ff68dd81b34665b5ba7e553ee5511bf6812e12adb4a7e2c0d9e26b3099ce799181900360200190a250505050505050565b6001546001600160a01b0316331461193e5760405162461bcd60e51b8152600401808060200182810382526024815260200180614c986024913960400191505060405180910390fd5b614e20811115611995576040805162461bcd60e51b815260206004820152601d60248201527f5f646973636f756e7450657263656e74206973206f7665722032303025000000604482015290519081900360640190fd5b601b55565b60015474010000000000000000000000000000000000000000900460ff1681565b600a54600654604080517f6808a1280000000000000000000000000000000000000000000000000000000081526001600160a01b039283166004820152670de0b6b3a7640000602482015290516000939290921691636808a12891604480820192602092909190829003018186803b158015611a3657600080fd5b505afa925050508015611a5b57506040513d6020811015611a5657600080fd5b505160015b611a965760405162461bcd60e51b8152600401808060200182810382526037815260200180614ac96037913960400191505060405180910390fd5b71ffffffffffffffffffffffffffffffffffff16905090565b600654604080517f18160ddd00000000000000000000000000000000000000000000000000000000815290516000926001600160a01b031691839183916318160ddd916004808301926020929190829003018186803b158015611b1157600080fd5b505afa158015611b25573d6000803e3d6000fd5b505050506040513d6020811015611b3b57600080fd5b505190506000805b60055460ff82161015611c1557611c0b846001600160a01b03166370a0823160058460ff1681548110611b7257fe5b60009182526020918290200154604080517fffffffff0000000000000000000000000000000000000000000000000000000060e086901b1681526001600160a01b0390921660048301525160248083019392829003018186803b158015611bd857600080fd5b505afa158015611bec573d6000803e3d6000fd5b505050506040513d6020811015611c0257600080fd5b50518390613ff4565b9150600101611b43565b50611c208282613f97565b935050505090565b6001546001600160a01b03163314611c715760405162461bcd60e51b8152600401808060200182810382526024815260200180614c986024913960400191505060405180910390fd5b6001600160a01b038616611cce576040805162461bcd60e51b8152602060048083019190915260248201527f7a65726f00000000000000000000000000000000000000000000000000000000604482015290519081900360640190fd5b610bb8851115611d25576040805162461bcd60e51b815260206004820152600c60248201527f6f7574206f662072616e67650000000000000000000000000000000000000000604482015290519081900360640190fd5b6001600160a01b038416611d82576040805162461bcd60e51b8152602060048083019190915260248201527f7a65726f00000000000000000000000000000000000000000000000000000000604482015290519081900360640190fd5b6103e8831115611dd9576040805162461bcd60e51b815260206004820152600c60248201527f6f7574206f662072616e67650000000000000000000000000000000000000000604482015290519081900360640190fd5b6001600160a01b038216611e36576040805162461bcd60e51b8152602060048083019190915260248201527f7a65726f00000000000000000000000000000000000000000000000000000000604482015290519081900360640190fd5b6103e8811115611e8d576040805162461bcd60e51b815260206004820152600c60248201527f6f7574206f662072616e67650000000000000000000000000000000000000000604482015290519081900360640190fd5b601f805473ffffffffffffffffffffffffffffffffffffffff199081166001600160a01b039889161790915560209590955560218054861694871694909417909355602291909155602380549093169316929092179055602455565b60125481565b601b5481565b601a5481565b60155481565b60015474010000000000000000000000000000000000000000900460ff1690565b601e5481565b6001546001600160a01b03163314611f715760405162461bcd60e51b8152600401808060200182810382526024815260200180614c986024913960400191505060405180910390fd5b614e20811115611fc8576040805162461bcd60e51b815260206004820152601c60248201527f5f7072656d69756d50657263656e74206973206f766572203230302500000000604482015290519081900360640190fd5b601d55565b60185481565b6021546001600160a01b031681565b6001546001600160a01b0316331461202b5760405162461bcd60e51b8152600401808060200182810382526024815260200180614c986024913960400191505060405180910390fd5b612710811015801561203f5750614e208111155b61207a5760405162461bcd60e51b8152600401808060200182810382526029815260200180614c1e6029913960400191505060405180910390fd5b601e55565b6001546001600160a01b031633146120c85760405162461bcd60e51b8152600401808060200182810382526024815260200180614c986024913960400191505060405180910390fd5b6006546001600160a01b038481169116141561212b576040805162461bcd60e51b815260206004820152600560248201527f6c69627261000000000000000000000000000000000000000000000000000000604482015290519081900360640190fd5b6007546001600160a01b0384811691161415612190576040805162461bcd60e51b8152602060048083019190915260248201527f626f6e6400000000000000000000000000000000000000000000000000000000604482015290519081900360640190fd5b6008546001600160a01b03848116911614156121f3576040805162461bcd60e51b815260206004820152600560248201527f7368617265000000000000000000000000000000000000000000000000000000604482015290519081900360640190fd5b6122076001600160a01b03841682846140a2565b505050565b61221461404e565b156122505760405162461bcd60e51b8152600401808060200182810382526026815260200180614ce66026913960400191505060405180910390fd5b61225861406d565b156122945760405162461bcd60e51b8152600401808060200182810382526026815260200180614ce66026913960400191505060405180910390fd5b6002544210156122eb576040805162461bcd60e51b815260206004820152601960248201527f54726561737572793a206e6f7420737461727465642079657400000000000000604482015290519081900360640190fd5b6006546040805163570ca73560e01b8152905130926001600160a01b03169163570ca735916004808301926020929190829003018186803b15801561232f57600080fd5b505afa158015612343573d6000803e3d6000fd5b505050506040513d602081101561235957600080fd5b50516001600160a01b03161480156123e757506007546040805163570ca73560e01b8152905130926001600160a01b03169163570ca735916004808301926020929190829003018186803b1580156123b057600080fd5b505afa1580156123c4573d6000803e3d6000fd5b505050506040513d60208110156123da57600080fd5b50516001600160a01b0316145b801561246957506008546040805163570ca73560e01b8152905130926001600160a01b03169163570ca735916004808301926020929190829003018186803b15801561243257600080fd5b505afa158015612446573d6000803e3d6000fd5b505050506040513d602081101561245c57600080fd5b50516001600160a01b0316145b80156124eb57506009546040805163570ca73560e01b8152905130926001600160a01b03169163570ca735916004808301926020929190829003018186803b1580156124b457600080fd5b505afa1580156124c8573d6000803e3d6000fd5b505050506040513d60208110156124de57600080fd5b50516001600160a01b0316145b61253c576040805162461bcd60e51b815260206004820152601e60248201527f54726561737572793a206e656564206d6f7265207065726d697373696f6e0000604482015290519081900360640190fd5b6000821161257b5760405162461bcd60e51b8152600401808060200182810382526030815260200180614bee6030913960400191505060405180910390fd5b6000612585613a4c565b90508181146125db576040805162461bcd60e51b815260206004820152601b60248201527f54726561737572793a204c49425241207072696365206d6f7665640000000000604482015290519081900360640190fd5b600b54811061261b5760405162461bcd60e51b8152600401808060200182810382526033815260200180614b9a6033913960400191505060405180910390fd5b60045483111561265c5760405162461bcd60e51b815260040180806020018281038252602a815260200180614d42602a913960400191505060405180910390fd5b6000612666610d52565b9050600081116126bd576040805162461bcd60e51b815260206004820152601b60248201527f54726561737572793a20696e76616c696420626f6e6420726174650000000000604482015290519081900360640190fd5b60006126d5670de0b6b3a7640000610d9c8785613ed0565b905060006126e1611aaf565b9050600061276983600760009054906101000a90046001600160a01b03166001600160a01b03166318160ddd6040518163ffffffff1660e01b815260040160206040518083038186803b15801561273757600080fd5b505afa15801561274b573d6000803e3d6000fd5b505050506040513d602081101561276157600080fd5b505190613ff4565b9050612786612710610d9c60145485613ed090919063ffffffff16565b8111156127da576040805162461bcd60e51b815260206004820152601360248201527f6f766572206d6178206465627420726174696f00000000000000000000000000604482015290519081900360640190fd5b600654604080517f79cc6790000000000000000000000000000000000000000000000000000000008152336004820152602481018a905290516001600160a01b03909216916379cc67909160448082019260009290919082900301818387803b15801561284657600080fd5b505af115801561285a573d6000803e3d6000fd5b5050600754604080517f40c10f190000000000000000000000000000000000000000000000000000000081523360048201526024810188905290516001600160a01b0390921693506340c10f1992506044808201926020929091908290030181600087803b1580156128cb57600080fd5b505af11580156128df573d6000803e3d6000fd5b505050506040513d60208110156128f557600080fd5b50506004546129049088613f97565b60045561290f614122565b6040805188815260208101859052815133927f73017f1b70789e2e66759eeb3c7ec11f59e6eedb55d921cfaec5410dd42a4799928290030190a25050436000908152602081815260408083203284529091528082208054600160ff19918216811790925533845291909220805490911690911790555050505050565b60205481565b6001546001600160a01b031681565b6001546001600160a01b031633146129e95760405162461bcd60e51b8152600401808060200182810382526024815260200180614c986024913960400191505060405180910390fd5b600a805473ffffffffffffffffffffffffffffffffffffffff19166001600160a01b0392909216919091179055565b6001546001600160a01b03163314612a615760405162461bcd60e51b8152600401808060200182810382526024815260200180614c986024913960400191505060405180910390fd5b6103e88110158015612a7557506127108111155b612ac6576040805162461bcd60e51b815260206004820152600c60248201527f6f7574206f662072616e67650000000000000000000000000000000000000000604482015290519081900360640190fd5b601455565b600d5490565b600d5481565b6008546001600160a01b031681565b612aee61404e565b15612b2a5760405162461bcd60e51b8152600401808060200182810382526026815260200180614ce66026913960400191505060405180910390fd5b612b3261406d565b15612b6e5760405162461bcd60e51b8152600401808060200182810382526026815260200180614ce66026913960400191505060405180910390fd5b600254421015612bc5576040805162461bcd60e51b815260206004820152601960248201527f54726561737572793a206e6f7420737461727465642079657400000000000000604482015290519081900360640190fd5b612bcd613ac7565b421015612c21576040805162461bcd60e51b815260206004820152601860248201527f54726561737572793a206e6f74206f70656e6564207965740000000000000000604482015290519081900360640190fd5b6006546040805163570ca73560e01b8152905130926001600160a01b03169163570ca735916004808301926020929190829003018186803b158015612c6557600080fd5b505afa158015612c79573d6000803e3d6000fd5b505050506040513d6020811015612c8f57600080fd5b50516001600160a01b0316148015612d1d57506007546040805163570ca73560e01b8152905130926001600160a01b03169163570ca735916004808301926020929190829003018186803b158015612ce657600080fd5b505afa158015612cfa573d6000803e3d6000fd5b505050506040513d6020811015612d1057600080fd5b50516001600160a01b0316145b8015612d9f57506008546040805163570ca73560e01b8152905130926001600160a01b03169163570ca735916004808301926020929190829003018186803b158015612d6857600080fd5b505afa158015612d7c573d6000803e3d6000fd5b505050506040513d6020811015612d9257600080fd5b50516001600160a01b0316145b8015612e2157506009546040805163570ca73560e01b8152905130926001600160a01b03169163570ca735916004808301926020929190829003018186803b158015612dea57600080fd5b505afa158015612dfe573d6000803e3d6000fd5b505050506040513d6020811015612e1457600080fd5b50516001600160a01b0316145b612e72576040805162461bcd60e51b815260206004820152601e60248201527f54726561737572793a206e656564206d6f7265207065726d697373696f6e0000604482015290519081900360640190fd5b612e7a614122565b612e82613a4c565b601855600d54600090612e9d90612e97611aaf565b90613f97565b90506016546003541015612ed357612ece612ec9612710610d9c60175485613ed090919063ffffffff16565b614186565b613152565b600c54601854111561315257600754604080517f18160ddd00000000000000000000000000000000000000000000000000000000815290516000926001600160a01b0316916318160ddd916004808301926020929190829003018186803b158015612f3d57600080fd5b505afa158015612f51573d6000803e3d6000fd5b505050506040513d6020811015612f6757600080fd5b5051600b54601854919250600091612f7e91613f97565b90506000806000612f98655af3107a4000610dc78861452d565b905080841115612fa6578093505b612fc1612710610d9c60115488613ed090919063ffffffff16565b600d5410612fe657612fdf670de0b6b3a7640000610d9c8887613ed0565b9150613052565b6000612ffe670de0b6b3a7640000610d9c8988613ed0565b905061301b612710610d9c60125484613ed090919063ffffffff16565b92506130278184613f97565b601e54909450156130505761304d612710610d9c601e5487613ed090919063ffffffff16565b93505b505b81156130615761306182614186565b821561314c57600d546130749084613ff4565b600d55600654604080517f40c10f190000000000000000000000000000000000000000000000000000000081523060048201526024810186905290516001600160a01b03909216916340c10f19916044808201926020929091908290030181600087803b1580156130e457600080fd5b505af11580156130f8573d6000803e3d6000fd5b505050506040513d602081101561310e57600080fd5b5050604080514281526020810185905281517ff705142bf09f04297640495ddf7c59b7fd6f51894c5aea9602d631cf05f0efc2929181900390910190a15b50505050505b50600354613161906001613ff4565b600355600c5461316f613a4c565b1161318d57613188612710610d9c601354610dc7611aaf565b613190565b60005b600455436000908152602081815260408083203284529091528082208054600160ff1991821681179092553384529190922080549091169091179055565b6009546001600160a01b031681565b6000806131e8613a4c565b9050600c54811115610e0057600654604080517f70a0823100000000000000000000000000000000000000000000000000000000815230600482015290516000926001600160a01b0316916370a08231916024808301926020929190829003018186803b15801561325857600080fd5b505afa15801561326c573d6000803e3d6000fd5b505050506040513d602081101561328257600080fd5b505190506000613290610e04565b90508015610dfd57611c2081610d9c84670de0b6b3a7640000613ed0565b60025481565b60115481565b600581815481106132c757fe5b6000918252602090912001546001600160a01b0316905081565b60245481565b60175481565b6001546001600160a01b031633146133365760405162461bcd60e51b8152600401808060200182810382526024815260200180614c986024913960400191505060405180910390fd5b6101f4811015801561334a57506127108111155b61339b576040805162461bcd60e51b815260206004820152600c60248201527f6f7574206f662072616e67650000000000000000000000000000000000000000604482015290519081900360640190fd5b601155565b601f546001600160a01b031681565b60035481565b6001546001600160a01b031633146133fe5760405162461bcd60e51b8152600401808060200182810382526024815260200180614c986024913960400191505060405180910390fd5b6078821115613454576040805162461bcd60e51b815260206004820152601e60248201527f5f626f6f74737472617045706f6368733a206f7574206f662072616e67650000604482015290519081900360640190fd5b6064811015801561346757506103e88111155b6134a25760405162461bcd60e51b815260040180806020018281038252602e815260200180614d6c602e913960400191505060405180910390fd5b601691909155601755565b6001546000906001600160a01b031633146134f95760405162461bcd60e51b8152600401808060200182810382526024815260200180614c986024913960400191505060405180910390fd5b60098360ff161061353b5760405162461bcd60e51b8152600401808060200182810382526029815260200180614c6f6029913960400191505060405180910390fd5b60ff83161561356d57600e6001840360ff168154811061355757fe5b9060005260206000200154821161356d57600080fd5b60088360ff1610156135a257600e8360010160ff168154811061358c57fe5b906000526020600020015482106135a257600080fd5b81600e8460ff16815481106135b357fe5b6000918252602090912001555060015b92915050565b6001546001600160a01b031633146136125760405162461bcd60e51b8152600401808060200182810382526024815260200180614c986024913960400191505060405180910390fd5b601955565b600e818154811061362457fe5b600091825260209091200154905081565b600a546001600160a01b031681565b600f818154811061362457fe5b6001546001600160a01b0316331461369a5760405162461bcd60e51b8152600401808060200182810382526024815260200180614c986024913960400191505060405180910390fd5b601a55565b6001546001600160a01b031633146136e85760405162461bcd60e51b8152600401808060200182810382526024815260200180614c986024913960400191505060405180910390fd5b600954604080517f54575af40000000000000000000000000000000000000000000000000000000081526001600160a01b038681166004830152602482018690528481166044830152915191909216916354575af491606480830192600092919082900301818387803b15801561375e57600080fd5b505af1158015613772573d6000803e3d6000fd5b50505050505050565b6006546001600160a01b031681565b6001546001600160a01b031633146137d35760405162461bcd60e51b8152600401808060200182810382526024815260200180614c986024913960400191505060405180910390fd5b600954604080517fb3ab15fb0000000000000000000000000000000000000000000000000000000081526001600160a01b0384811660048301529151919092169163b3ab15fb91602480830192600092919082900301818387803b158015610bc657600080fd5b6001546001600160a01b031633146138835760405162461bcd60e51b8152600401808060200182810382526024815260200180614c986024913960400191505060405180910390fd5b6001805473ffffffffffffffffffffffffffffffffffffffff19166001600160a01b0392909216919091179055565b6001546001600160a01b031633146138fb5760405162461bcd60e51b8152600401808060200182810382526024815260200180614c986024913960400191505060405180910390fd5b6009805473ffffffffffffffffffffffffffffffffffffffff19166001600160a01b0392909216919091179055565b600080613935613a4c565b9050600b548111610e0057600061394a611aaf565b90506000613969612710610d9c60145485613ed090919063ffffffff16565b90506000600760009054906101000a90046001600160a01b03166001600160a01b03166318160ddd6040518163ffffffff1660e01b815260040160206040518083038186803b1580156139bb57600080fd5b505afa1580156139cf573d6000803e3d6000fd5b505050506040513d60208110156139e557600080fd5b5051905080821115613a2a5760006139fd8383613f97565b90506000613a17670de0b6b3a7640000610d9c8489613ed0565b9050613a256004548261408c565b965050505b5050505090565b61546081565b6023546001600160a01b031681565b60195481565b600a54600654604080517f3ddac9530000000000000000000000000000000000000000000000000000000081526001600160a01b039283166004820152670de0b6b3a7640000602482015290516000939290921691633ddac95391604480820192602092909190829003018186803b158015611a3657600080fd5b6000613aec613ae3615460600354613ed090919063ffffffff16565b60025490613ff4565b905090565b601d5481565b601c5481565b6001546001600160a01b03163314613b465760405162461bcd60e51b8152600401808060200182810382526024815260200180614c986024913960400191505060405180910390fd5b60648110158015613b5957506105dc8111155b613baa576040805162461bcd60e51b815260206004820152600c60248201527f6f7574206f662072616e67650000000000000000000000000000000000000000604482015290519081900360640190fd5b601355565b6001546000906001600160a01b03163314613bfb5760405162461bcd60e51b8152600401808060200182810382526024815260200180614c986024913960400191505060405180910390fd5b60098360ff1610613c3d5760405162461bcd60e51b8152600401808060200182810382526029815260200180614c6f6029913960400191505060405180910390fd5b600a8210158015613c5057506103e88211155b613ca1576040805162461bcd60e51b815260206004820152601460248201527f5f76616c75653a206f7574206f662072616e6765000000000000000000000000604482015290519081900360640190fd5b81600f8460ff16815481106135b357fe5b60105481565b60145481565b600c5481565b60135481565b60165481565b6001546001600160a01b03163314613d195760405162461bcd60e51b8152600401808060200182810382526024815260200180614c986024913960400191505060405180910390fd5b601555565b6001546001600160a01b03163314613d675760405162461bcd60e51b8152600401808060200182810382526024815260200180614c986024913960400191505060405180910390fd5b600954604080517f2ffaaa09000000000000000000000000000000000000000000000000000000008152600481018590526024810184905290516001600160a01b0390921691632ffaaa099160448082019260009290919082900301818387803b158015613dd457600080fd5b505af1158015613de8573d6000803e3d6000fd5b505050505050565b6001546001600160a01b03163314613e395760405162461bcd60e51b8152600401808060200182810382526024815260200180614c986024913960400191505060405180910390fd5b600b548110158015613e655750613e616064610d9c6078600b54613ed090919063ffffffff16565b8111155b613eb6576040805162461bcd60e51b815260206004820152600c60248201527f6f7574206f662072616e67650000000000000000000000000000000000000000604482015290519081900360640190fd5b600c55565b60045481565b6007546001600160a01b031681565b600082613edf575060006135c3565b82820282848281613eec57fe5b0414613f295760405162461bcd60e51b8152600401808060200182810382526021815260200180614bcd6021913960400191505060405180910390fd5b9392505050565b6000808211613f86576040805162461bcd60e51b815260206004820152601a60248201527f536166654d6174683a206469766973696f6e206279207a65726f000000000000604482015290519081900360640190fd5b818381613f8f57fe5b049392505050565b600082821115613fee576040805162461bcd60e51b815260206004820152601e60248201527f536166654d6174683a207375627472616374696f6e206f766572666c6f770000604482015290519081900360640190fd5b50900390565b600082820183811015613f29576040805162461bcd60e51b815260206004820152601b60248201527f536166654d6174683a206164646974696f6e206f766572666c6f770000000000604482015290519081900360640190fd5b4360009081526020818152604080832032845290915290205460ff1690565b4360009081526020818152604080832033845290915290205460ff1690565b600081831061409b5781613f29565b5090919050565b604080516001600160a01b038416602482015260448082018490528251808303909101815260649091019091526020810180517bffffffffffffffffffffffffffffffffffffffffffffffffffffffff167fa9059cbb000000000000000000000000000000000000000000000000000000001790526122079084906145a8565b600a60009054906101000a90046001600160a01b03166001600160a01b031663a2e620456040518163ffffffff1660e01b8152600401600060405180830381600087803b15801561417257600080fd5b505af1925050508015614183575060015b50565b600654604080517f40c10f190000000000000000000000000000000000000000000000000000000081523060048201526024810184905290516001600160a01b03909216916340c10f19916044808201926020929091908290030181600087803b1580156141f357600080fd5b505af1158015614207573d6000803e3d6000fd5b505050506040513d602081101561421d57600080fd5b50506020546000901561432157614245612710610d9c60205485613ed090919063ffffffff16565b600654601f54604080517fa9059cbb0000000000000000000000000000000000000000000000000000000081526001600160a01b03928316600482015260248101859052905193945091169163a9059cbb916044808201926020929091908290030181600087803b1580156142b957600080fd5b505af11580156142cd573d6000803e3d6000fd5b505050506040513d60208110156142e357600080fd5b5050604080514281526020810183905281517fcb3f34aaa3445b461e6da5492dc89e5c257a59fa598131f3b6bbc97a3638e409929181900390910190a15b6022546000901561442357614347612710610d9c60225486613ed090919063ffffffff16565b600654602154604080517fa9059cbb0000000000000000000000000000000000000000000000000000000081526001600160a01b03928316600482015260248101859052905193945091169163a9059cbb916044808201926020929091908290030181600087803b1580156143bb57600080fd5b505af11580156143cf573d6000803e3d6000fd5b505050506040513d60208110156143e557600080fd5b5050604080514281526020810183905281517fdc8b715b18523e58b7fd0da53259dfa91efd91df4a854d94b136e3333a3b9395929181900390910190a15b61443181612e978585613f97565b600954600654919450614452916001600160a01b0390811691166000614659565b60095460065461446f916001600160a01b03918216911685614659565b600954604080517f97ffe1d70000000000000000000000000000000000000000000000000000000081526004810186905290516001600160a01b03909216916397ffe1d79160248082019260009290919082900301818387803b1580156144d557600080fd5b505af11580156144e9573d6000803e3d6000fd5b5050604080514281526020810187905281517f03ca7276ab7799bf73fb79d27ff0610cd7049574f2508ef8445162833d439aea9450908190039091019150a1505050565b600060085b600e8160ff168154811061454257fe5b9060005260206000200154831061457757600f8160ff168154811061456357fe5b60009182526020909120015460105561459e565b7fffffffffffffffffffffffffffffffffffffffffffffffffffffffffffffffff01614532565b5050601054919050565b60606145fd826040518060400160405280602081526020017f5361666545524332303a206c6f772d6c6576656c2063616c6c206661696c6564815250856001600160a01b03166147b39092919063ffffffff16565b8051909150156122075780806020019051602081101561461c57600080fd5b50516122075760405162461bcd60e51b815260040180806020018281038252602a815260200180614cbc602a913960400191505060405180910390fd5b8015806146f85750604080517fdd62ed3e0000000000000000000000000000000000000000000000000000000081523060048201526001600160a01b03848116602483015291519185169163dd62ed3e91604480820192602092909190829003018186803b1580156146ca57600080fd5b505afa1580156146de573d6000803e3d6000fd5b505050506040513d60208110156146f457600080fd5b5051155b6147335760405162461bcd60e51b8152600401808060200182810382526036815260200180614d0c6036913960400191505060405180910390fd5b604080516001600160a01b038416602482015260448082018490528251808303909101815260649091019091526020810180517bffffffffffffffffffffffffffffffffffffffffffffffffffffffff167f095ea7b3000000000000000000000000000000000000000000000000000000001790526122079084906145a8565b60606147c284846000856147ca565b949350505050565b60608247101561480b5760405162461bcd60e51b8152600401808060200182810382526026815260200180614b4f6026913960400191505060405180910390fd5b61481485614944565b614865576040805162461bcd60e51b815260206004820152601d60248201527f416464726573733a2063616c6c20746f206e6f6e2d636f6e7472616374000000604482015290519081900360640190fd5b60006060866001600160a01b031685876040518082805190602001908083835b602083106148c257805182527fffffffffffffffffffffffffffffffffffffffffffffffffffffffffffffffe09092019160209182019101614885565b6001836020036101000a03801982511681845116808217855250505050505090500191505060006040518083038185875af1925050503d8060008114614924576040519150601f19603f3d011682016040523d82523d6000602084013e614929565b606091505b509150915061493982828661494a565b979650505050505050565b3b151590565b60608315614959575081613f29565b8251156149695782518084602001fd5b8160405162461bcd60e51b81526004018080602001828103825283818151815260200191508051906020019080838360005b838110156149b357818101518382015260200161499b565b50505050905090810190601f1680156149e05780820380516001836020036101000a031916815260200191505b509250505060405180910390fd5b828054828255906000526020600020908101928215614a38579160200282015b82811115614a3857825182906affffffffffffffffffffff16905591602001919060010190614a0e565b50610e00929150614a85565b828054828255906000526020600020908101928215614a38579160200282015b82811115614a38578251829061ffff16905591602001919060010190614a64565b5b80821115610e005760008155600101614a8656fe54726561737572793a2063616e6e6f742072656465656d20626f6e64732077697468207a65726f20616d6f756e7454726561737572793a206661696c656420746f20636f6e73756c74204c494252412070726963652066726f6d20746865206f7261636c655f7072656d69756d5468726573686f6c642065786365656473206c6962726150726963654365696c696e675f7072656d69756d5468726573686f6c6420697320686967686572207468616e20312e35416464726573733a20696e73756666696369656e742062616c616e636520666f722063616c6c54726561737572793a20747265617375727920686173206e6f206d6f72652062756467657454726561737572793a206c696272615072696365206e6f7420656c696769626c6520666f7220626f6e64207075726368617365536166654d6174683a206d756c7469706c69636174696f6e206f766572666c6f7754726561737572793a2063616e6e6f7420707572636861736520626f6e64732077697468207a65726f20616d6f756e745f6d696e74696e67466163746f72466f72506179696e67446562743a206f7574206f662072616e67655f6d6178537570706c79457870616e73696f6e50657263656e743a206f7574206f662072616e6765496e6465782068617320746f206265206c6f776572207468616e20636f756e74206f6620746965727354726561737572793a2063616c6c6572206973206e6f7420746865206f70657261746f725361666545524332303a204552433230206f7065726174696f6e20646964206e6f742073756363656564436f6e747261637447756172643a206f6e6520626c6f636b2c206f6e652066756e6374696f6e5361666545524332303a20617070726f76652066726f6d206e6f6e2d7a65726f20746f206e6f6e2d7a65726f20616c6c6f77616e636554726561737572793a206e6f7420656e6f75676820626f6e64206c65667420746f2070757263686173655f626f6f747374726170537570706c79457870616e73696f6e50657263656e743a206f7574206f662072616e6765a2646970667358221220970d28956329b4fa24b2cd0da8d7508182b931d407fe0ab601134404cd875a9e64736f6c634300060c0033",
  "linkReferences": {},
  "deployedLinkReferences": {}
}